:100000000C94A5010C94D6010C94D6010C94D60145
:100010000C94D6010C94D6010C94D6010C94D60104
:100020000C94D6010C94D6010C94D6010C94D601F4
:100030000C94D6010C94D6010C94D6010C94D601E4
:100040000C94D6010C94B5070C94D6010C94D601EF
:100050000C94D6010C94D6010C94D6010C94E106B4
:100060000C94D6010C94AB060C9481060C94D6012A
:100070000C94D6010C94D6010C94D6010C94D601A4
:100080000C9487070C94D6010C94D6010C94D601DD
:100090000C94D6010C94D6010C94D6010C94D60184
:1000A0000C94D6010C94D6010C9459070C94D601EB
:1000B0000C94D6010C94D6010C94D6010C942B0709
:1000C0000C94D6010C94D6010C94D6010C94D60154
:1000D0000C94D6010C94D6010C94D6010C94D60144
:1000E0000C94D6010C94C0030C94FE070C94B80336
:1000F0000C94D1030C94F3030C94CD030C94DB0308
:100100000C946A020C94ED030C94DF030C943D02F2
:100110000C94D3020C9420030C94A1030C94C703F9
:100120000C948D020C94F7030C94E9030C949B023D
:100130000C94E5030C94BC030C9479020C94A60374
:100140000C94C4030C94D70300407A10F35A00A017
:10015000724E18090010A5D4E80000E87648170090
:1001600000E40B54020000CA9A3B000000E1F505D0
:10017000000080969800000040420F000000A0861A
:1001800001000000102700000000E803000000004C
:100190006400000000000A000000000001000000F0
:1001A00000002C76D888DC674F0823DFC1DFAE590A
:1001B000E1B1B796E5E3E453C63AE651997696E89D
:1001C000E6C28426EB898C9B62ED407C6FFCEFBC21
:1001D0009C9F40F2BAA56FA5F490055A2AF75C934C
:1001E0006B6CF9676DC11BFCE0E40D47FEF520E682
:1001F000B500D0ED902E0300943577050080841E65
:10020000080000204E0A000000C80C333333330FBF
:10021000986E12831141EF8D2114893BE65516CF5C
:10022000FEE6DB18D1844B381BF77C1D901DA4BB68
:10023000E424203284725E228100C9F124ECA1E51D
:100240003D2700002100240027002A002D00300057
:10025000330001010000040107010A01000022002F
:10026000250028002B002E00310034000201000080
:10027000050108010B010505050507050808080823
:10028000020202020A0A080804040404010101012E
:100290000101010103030303030303030407070729
:1002A0000C0C0C0C0C0C0C0C0202020206060606CE
:1002B000060606060B0B0B0B0B0B0B0B010210209B
:1002C000200808102040102040800201020108048C
:1002D0000201010204081020408080402010080420
:1002E0000201800402018040201008040201080479
:1002F00002010102040810204080010204081020BD
:10030000408000000A0B02090C0D0E0807030401CF
:1003100000000000000000000000000000000000DD
:1003200000000000000000000000000000001211AA
:1003300010000000000000000000000000000000AD
:100340000000000000000000FE0711241FBECFEFD8
:10035000D1E2DEBFCDBF00E00CBF12E0A0E0B2E012
:10036000EEE6F2E200E00BBF02C007900D92AC3463
:10037000B107D9F723E0ACE4B2E001C01D92A73A7F
:10038000B207E1F711E0C5EAD1E000E006C021972D
:100390000109802FFE010E94170FC43AD10780E0A7
:1003A0000807A9F70E943A080C9435110C94000034
:1003B0008F929F92AF92BF92FF920F931F93CF9312
:1003C000DF93F090A0032FE22F1508F44CC020918A
:1003D000A20308E512E0021B110927FD1395000F87
:1003E000111F000F111F2091A103C8E8D0E0C21B0C
:1003F000D10927FDD395CC0FDD1FCC0FDD1F4E019A
:100400000D2E000CAA08BB089801012E000C440B0D
:10041000550B281939094A095B09DC010E945B0E5A
:1004200024EB30E040E050E00E94310E820E931E3B
:10043000A41EB51E8C169D062CF0E80180169106B0
:100440000CF4E4012297CC0FDD1F2FB7F8948F2D09
:1004500090E0FC01EE0FFF1FE80FF91FE659FD4F7A
:10046000D283C1832FBFDF91CF911F910F91FF9056
:10047000BF90AF909F908F900895AF92BF92CF9210
:10048000DF92EF92FF920F931F93CF93DF936C0154
:100490007B018B01040F151FEB015E01AE18BF0835
:1004A000C017D10759F06991D601ED91FC910190E7
:1004B000F081E02DC6011995892B79F7C501DF91EF
:1004C000CF911F910F91FF90EF90DF90CF90BF9051
:1004D000AF900895FC01538D448D252F30E0842F7B
:1004E00090E0821B930B541710F0CF96089501975C
:1004F0000895FC01918D828D981761F0A28DAE0F49
:10050000BF2FB11D5D968C91928D9F5F9F73928FCF
:1005100090E008958FEF9FEF0895FC01918D828DFB
:10052000981731F0828DE80FF11D858D90E00895C8
:100530008FEF9FEF0895FC01918D228D892F90E020
:10054000805C9F4F821B91098F73992708958AEFD2
:1005500092E00E949B0221E0892B09F420E0822F87
:100560000895FC01A48DA80FB92FB11DA35ABF4F48
:100570002C91848D90E001968F739927848FA689A2
:10058000B7892C93A089B1898C91837080648C93F6
:10059000938D848D981306C00288F389E02D8081A5
:1005A0008F7D80830895EF92FF920F931F93CF93D7
:1005B000DF93EC0181E0888F9B8D8C8D98131AC09E
:1005C000E889F989808185FF15C09FB7F894EE8985
:1005D000FF896083E889F9898081837080648083E2
:1005E0009FBF81E090E0DF91CF911F910F91FF902D
:1005F000EF900895F62E0B8D10E00F5F1F4F0F73D5
:100600001127E02E8C8D8E110CC00FB607FCFACF8F
:10061000E889F989808185FFF5CFCE010E94B1027A
:10062000F1CFEB8DEC0FFD2FF11DE35AFF4FF08260
:100630009FB7F8940B8FEA89FB8980818062CFCFC6
:10064000CF93DF93EC01888D8823B9F0AA89BB8909
:10065000E889F9898C9185FD03C0808186FD0DC0F4
:100660000FB607FCF7CF8C9185FFF2CF808185FF15
:10067000EDCFCE010E94B102E9CFDF91CF91089575
:1006800080E090E0892B29F00E94A70281110E944E
:10069000000080E090E0892B49F080E090E0892B19
:1006A00029F00E94000081110E94000080E090E08B
:1006B000892B49F080E090E0892B29F00E9400000E
:1006C00081110E94000080E090E0892B49F080E0D9
:1006D00090E0892B29F00E94000081110C94000009
:1006E0000895282F30E0F901EE5FFC4F9491F90155
:1006F000E454FD4F44912A583D4FF901249122239F
:1007000009F435C0992311F191509231F8F4E92F91
:10071000F0E08827E157FC4F8F4F0C94170FC00370
:10072000C403A103B803BC03A603C703CD03D103CD
:10073000D703DB03DF03E503E903A603ED03F303BC
:10074000F703809180008F7780938000E22FF0E0A4
:10075000EE0FFF1FE45AFD4FA591B4918FB7F894A7
:10076000EC91611148C040954E234C938FBF089582
:10077000809180008F7DE8CF80918000877FE4CFDB
:1007800084B58F7784BDE2CF84B58F7DFBCF809118
:10079000B0008F778093B000D9CF8091B0008F7D6B
:1007A000F9CF809190008F7780939000CFCF809188
:1007B00090008F7DF9CF80919000877FF5CF809159
:1007C000A0008F778093A000C1CF8091A0008F7D83
:1007D000F9CF8091A000877FF5CF809120018F779E
:1007E00080932001B3CF809120018F7DF9CF80913C
:1007F0002001877FF5CF4E2BB8CF863308F0865384
:1008000020917B00982F9870277F922B90937B00EC
:100810008770806480937C0080917A0080648093EC
:100820007A0080917A0086FDFCCF809178009091CB
:10083000790008953FB7F89480915602909157023D
:10084000A0915802B091590226B5A89B05C02F3F30
:1008500019F00196A11DB11D3FBFBA2FA92F982FE6
:100860008827BC01CD01620F711D811D911D42E0E1
:10087000660F771F881F991F4A95D1F70895CF9368
:10088000DF93DC018C91803308F06DC0CB01FB015C
:10089000E454FD4F24918A589D4FFC018491882394
:1008A00099F090E0880F991FFC01EE5BFD4FC59118
:1008B000D491FC01E45AFD4F859194918FB7F8943F
:1008C000E881E22BE8838FBF8C91282F30E0F9017B
:1008D000EE0FFF1FE20FF31FE659FD4F962F9F7398
:1008E0006081607C692B608311961C92119712962F
:1008F0001C9212972CE0622F0E940B0F829FB00176
:10090000112430E020E0AB01420F531FFA01EE0F3B
:10091000FF1FE40FF51FE659FD4F908196FD16C0AD
:100920002F5F3F4F2C30310571F7813001F5109268
:10093000800082E0809381001092850010928400F4
:10094000B19A80916F00826080936F00EC918E2F3E
:1009500090E0FC01EE0FFF1FE80FF91FE659FD4F75
:100960008081806480838C91DF91CF910895823063
:1009700061F4109290008093910010929500109273
:10098000940088BB80937100E1CF833069F41092AA
:10099000A00082E08093A1001092A5001092A40014
:1009A00089BB80937200D2CF8111D0CF10922001E9
:1009B00082E08093210110922501109224018ABBCC
:1009C00080937300C3CFAF92BF92CF92DF92EF922A
:1009D000FF920F931F93CF93DF936B017A01EC018A
:1009E000C45BDD4F28813CE0389F8001399F100DAA
:1009F0001124A0905002B12C27FF1FC0FB011182CF
:100A0000108288818F5F888388819801280F311D2B
:100A100087FD3A95F6012A153B051CF488818C3038
:100A2000C4F180819181049680349C4908F473C09C
:100A3000F60180819181049670C088819801280F09
:100A4000311D87FD3A952A153B05DCF68881A80102
:100A5000480F511D87FD5A95FA01EE0FFF1FE40F55
:100A6000F51FE659FD4F808186FFCBCF8881F801C5
:100A7000E80FF11D87FDFA95CF01EE0FFF1FE80F7C
:100A8000F91FE659FD4F808160E08F730E9471036A
:100A9000B8CF808191812881A801420F511D27FD87
:100AA0005A959A01FA01EE0FFF1FE20FF31FE65964
:100AB000FD4F21813281820F931FF7019183808343
:100AC00088819801280F311D87FD3A95F901EE0FB5
:100AD000FF1FE20FF31FE659FD4F808186FF22C002
:100AE0008881080F111D87FD1A95F801EE0FFF1F71
:100AF000E00FF11FE659FD4F808161E08F73DF91B8
:100B0000CF911F910F91FF90EF90DF90CF90BF900A
:100B1000AF900C94710380E49CE9F701918380838A
:100B20008FEF8883DF91CF911F910F91FF90EF900E
:100B3000DF90CF90BF90AF9008950F931F93CF9306
:100B4000DF93EC0188819981009759F02A813B81DC
:100B50002617370730F081E0DF91CF911F910F9179
:100B600008958B016F5F7F4F0E944410009759F0EA
:100B7000998388831B830A832C813D81232B59F71A
:100B8000FC011082E8CF80E0E7CFEF92FF920F9355
:100B90001F93CF93DF936115710541F480E0DF91DE
:100BA000CF911F910F91FF90EF900895411551053E
:100BB000B1F07B01EC010C811D81040F151FB80100
:100BC0000E949D05882351F3288139818C819D8164
:100BD000B701820F931F0E942E111D830C8381E0A9
:100BE000DECFCF93DF93EC0188819981009711F0DC
:100BF0000E94BB0F198218821D821C821B821A82DE
:100C0000DF91CF910895CF92DF92EF92FF920F93F1
:100C10001F93CF93DF93CDB7DEB7A1970FB6F894AC
:100C2000DEBF0FBECDBF7C01CB01BA01F70111823F
:100C3000108213821282158214828E010F5F1F4F61
:100C400022E044E00E94A30A6C01009771F0FC01CD
:100C500001900020E9F731978F01081B190BB801AB
:100C6000C7010E949D05811112C0C7010E94F105B4
:100C7000A1960FB6F894DEBF0FBECDBFDF91CF9126
:100C80001F910F91FF90EF90DF90CF900895F701A3
:100C900015830483B601808191810E942E11E8CFD3
:100CA000CF93DF93EC01FB0101900020E9F731972E
:100CB000AF01461B570B0E94C505811103C0CE0131
:100CC0000E94F105CE01DF91CF910895CF93DF937C
:100CD000EC01FB0144815581608171810E94C50551
:100CE000811103C0CE010E94F105CE01DF91CF91A9
:100CF0000895FC0180819181009711F00C94BB0F45
:100D000008951F920F920FB60F9211240BB60F92F7
:100D10002F933F934F935F936F937F938F939F9303
:100D2000AF93BF93EF93FF938AEF92E00E94B102DB
:100D3000FF91EF91BF91AF919F918F917F916F91B3
:100D40005F914F913F912F910F900BBE0F900FBE6F
:100D50000F901F9018951F920F920FB60F921124AB
:100D60000BB60F922F938F939F93EF93FF93E09186
:100D70000A03F0910B038081E0911003F0911103BD
:100D800082FD1DC09081809113038F5F8F7320912E
:100D90001403821741F0E0911303F0E0E650FD4F99
:100DA000958F80931303FF91EF919F918F912F91D6
:100DB0000F900BBE0F900FBE0F901F901895808163
:100DC000F2CF1F920F920FB60F9211242F933F93E1
:100DD0008F939F93AF93BF93809152029091530250
:100DE000A0915402B09155023091510223E0230F9B
:100DF0002D3758F50196A11DB11D20935102809306
:100E0000520290935302A0935402B09355028091E2
:100E1000560290915702A0915802B0915902019642
:100E2000A11DB11D8093560290935702A0935802C2
:100E3000B0935902BF91AF919F918F913F912F91A4
:100E40000F900FBE0F901F90189526E8230F029663
:100E5000A11DB11DD2CF1F920F920FB60F92112478
:100E60000BB60F922F933F934F935F936F937F93A4
:100E70008F939F93AF93BF93EF93FF9348E251E01B
:100E800064E271E090E080E00E94E304FF91EF9162
:100E9000BF91AF919F918F917F916F915F914F9192
:100EA0003F912F910F900BBE0F900FBE0F901F9090
:100EB00018951F920F920FB60F9211240BB60F9236
:100EC0002F933F934F935F936F937F938F939F9352
:100ED000AF93BF93EF93FF9348EA50E064EA70E06A
:100EE00083E090E00E94E304FF91EF91BF91AF9106
:100EF0009F918F917F916F915F914F913F912F9132
:100F00000F900BBE0F900FBE0F901F9018951F9261
:100F10000F920FB60F9211240BB60F922F933F939F
:100F20004F935F936F937F938F939F93AF93BF93F1
:100F3000EF93FF9348E950E064E970E082E090E0CD
:100F40000E94E304FF91EF91BF91AF919F918F9128
:100F50007F916F915F914F913F912F910F900BBEB9
:100F60000F900FBE0F901F9018951F920F920FB603
:100F70000F9211240BB60F922F933F934F935F93D1
:100F80006F937F938F939F93AF93BF93EF93FF9351
:100F900048E850E064E870E081E090E00E94E304FB
:100FA000FF91EF91BF91AF919F918F917F916F9141
:100FB0005F914F913F912F910F900BBE0F900FBEFD
:100FC0000F901F901895FC0190915002903398F467
:100FD00081E0890F809350029083892F90E0FC017B
:100FE000EE0FFF1FE80FF91FE659FD4F88EB9BE05E
:100FF0009283818308958FEF80830895EAEFF2E072
:101000001382128288EE93E0A0E0B0E0848395839F
:10101000A683B7838AE092E09183808385EC90E099
:101020009587848784EC90E09787868780EC90E0B2
:10103000918B808B81EC90E0938B828B82EC90E0A3
:10104000958B848B86EC90E0978B868B118E128E1D
:10105000138E148E80EA93E00E94E3078DE993E0FB
:101060000E94E3078AE993E00E94E30787E993E09F
:101070000C94E307CF93DF93CDB7DEB76E970FB62F
:10108000F894DEBF0FBECDBF789484B5826084BD76
:1010900084B5816084BD85B5826085BD85B581607C
:1010A00085BD80916E00816080936E0010928100FA
:1010B00080918100826080938100809181008160B5
:1010C0008093810080918000816080938000809176
:1010D000B10084608093B1008091B0008160809302
:1010E000B000809191008260809391008091910086
:1010F0008160809391008091900081608093900046
:101100008091A10082608093A1008091A100816004
:101110008093A1008091A00081608093A0008091C5
:10112000210182608093210180912101816080935F
:1011300021018091200181608093200180917A00BB
:10114000846080937A0080917A00826080937A0034
:1011500080917A00816080937A0080917A00806823
:1011600080937A001092C1006DE070E080EA93E015
:101170000E943F046BE070E08DE993E00E943F0421
:101180006AE070E08AE993E00E943F0469E070E061
:1011900087E993E00E943F04E0910A03F0910B037A
:1011A00082E08083E0910603F09107031082E091D2
:1011B0000803F09109038FEC808310921203E091F1
:1011C0000E03F0910F0386E08083E0910C03F09111
:1011D0000D03808180618083E0910C03F0910D0309
:1011E000808188608083E0910C03F0910D03808101
:1011F00080688083E0910C03F0910D0380818F7DE6
:10120000808386E30E94FD03BC01990F880B990B34
:101210000E94140D20E030E040EA50E40E94730D7B
:1012200020E030E048EC52E40E94730D20E030EC06
:101230004FE754E40E94940E609366027093670235
:10124000809368029093690287E30E94FD03BC01CA
:10125000990F880B990B0E94140D20E030E040EAB2
:1012600050E40E94730D20E030E048EC52E40E940C
:10127000730D20E030EC4FE754E40E94940E60932D
:10128000620270936302809364029093650288E324
:101290000E94FD03BC01990F880B990B0E94140D4D
:1012A00020E030E040EA50E40E94730D20E030E09E
:1012B00048EC52E40E94730D20E030EC4FE754E418
:1012C0000E94940E60935E0270935F0280936002AE
:1012D0009093610289E30E94FD03BC01990F880B82
:1012E000990B0E94140D20E030E040EA50E40E9487
:1012F000730D20E030E048EC52E40E94730D20E0D2
:1013000030EC4FE754E40E94940EAB01BC014093D3
:101310005A0250935B0260935C0270935D02CE01AF
:1013200001960E94030640915E0250915F02609117
:10133000600270916102CE0107960E9403064091FF
:101340006202509163026091640270916502CE0165
:101350000D960E94030640916602509167026091CB
:10136000680270916902CE0143960E9403061A8EAC
:10137000198E1C8E1B8E1E8E1D8E69E070E0CE01B4
:1013800049960E949D058111C7C0CE0149960E94D1
:10139000F105BE016D5E7F4FCE0149960E94660643
:1013A00062E272E00E945006BE01635F7F4F0E94BE
:1013B00066066FE272E00E945006BE01695F7F4FD1
:1013C0000E9466066CE372E00E945006BE016F5FE9
:1013D0007F4F0E946606FC014481558160817181C6
:1013E0008AEF92E00E943D0242E050E069E472E040
:1013F0008AEF92E00E943D02CE0149960E94790652
:10140000CE0143960E947906CE010D960E94790680
:10141000CE0107960E947906CE0101960E947906B8
:1014200020E030E040EC51E4609166027091670288
:1014300080916802909169020E94060F18160CF0C4
:1014400076C084E690E00E94D80120E030E040E8D9
:1014500051E4609162027091630280916402909104
:1014600065020E94060F18160CF064C084E690E036
:101470000E94D80120E030E040EF51E460915E022C
:1014800070915F0280916002909161020E94060F4C
:1014900018160CF052C084E690E00E94D80120E0BB
:1014A00030E048ED51E460915A0270915B02809106
:1014B0005C0290915D020E94060F18160CF040C06D
:1014C00084E690E00E94D8010E941A044B015C015E
:1014D00084EFC82EDD24D394E12CF12C0E941A0451
:1014E000681979098A099B09683E7340810591054D
:1014F000A8F3F1E0CF1AD108E108F10828EE820E36
:1015000023E0921EA11CB11CC114D104E104F1041A
:1015100029F70E94400375CE89E090E09E8F8D8F61
:1015200068E172E0898D9A8D0E942E1132CF90E091
:1015300080E089CF90E080E09BCF90E080E0ADCF6D
:1015400090E080E0BFCFEF920F931F93CF93DF9394
:10155000E80134E047FD34E1042E000C550B57FF41
:1015600003C0519541955109E32E022F242FAE015E
:101570000E94C10ACE01DF91CF911F910F91EF9090
:1015800008958F929F92AF92BF92CF92DF92EF9287
:10159000FF920F931F93CF93DF9300D000D000D022
:1015A000CDB7DEB76A01F22EB02E102FFBE3AF2EBF
:1015B000A01608F41BE31F5F012F27E0AE014F5F69
:1015C0005F4F0E943A0CBC018981982F997091302D
:1015D00009F44EC09BE2E1FC04C09E2D9170E0FC3A
:1015E00049C05E2D5071E82FE87083FF55C084E03C
:1015F000911101C083E0EF2DE81B8F1508F0E0E0AA
:10160000D6018E2F20E25523C9F1992329F0D60166
:101610009C93C60101966C0196012D5F3F4FE2FE3F
:1016200033C08EE4D6018C9391E411969C9311976C
:1016300012968C93D9018E2F90E281112AC0E20F6D
:10164000F32FF11D10828EEF9FEF29960FB6F894BD
:10165000DEBF0FBECDBFDF91CF911F910F91FF90E5
:10166000EF90DF90CF90BF90AF909F908F900895B4
:101670009DE2B7CF90E2B5CF2D9381508111FCCF81
:10168000CE0ED11CE0E0C1CF8EE6D6018C9391E660
:10169000CCCF9D938150D1CF482F447082FF3DC065
:1016A00084E0911101C083E08F1510F4EF2DE81B49
:1016B000D6018E2F20E2552309F1992329F0D60176
:1016C0009C93C60101966C0196012D5F3F4FE2FE8F
:1016D0001BC089E4D6018C938EE411968C931197EC
:1016E00086E412968C93D9018E2F90E2882309F418
:1016F000A6CF9D938150FACF2D9381508111FCCFBD
:10170000CE0ED11CE0E0D9CF89E6D6018C938EE6CF
:1017100011968C93119786E6E4CF9B0177FF02C068
:1017200030E020E0A1E0B0E0911102C0B0E0A0E024
:10173000F9013196AE0FBF1F8B2C912CBB2009F401
:1017400061C05401EFEFAE1ABE0AAA0DBB1DFA1616
:101750001B0619F014F04F2D4A1B511188C0E3FCF1
:1017600059C07601A42FB0E2A1114FC0C40ED11C04
:10177000992309F45BC040E0D6011196F6019083ED
:101780006D01552309F448C0012F060F9A81582F87
:10179000507184FF03C0913309F4015010160CF00E
:1017A00047C0093008F008E0EEE2FE2E5B01A01A07
:1017B000B10885019194819491082F3F320729F453
:1017C000D601FC92F60131966F016217730794F10E
:1017D000021713077CF5DB01A21BB30BAA24A39409
:1017E000B12CAC0EBD1EAA0DBB1D11968C912150C3
:1017F0003109D601119628153905F4F0F6018083D8
:101800006D01DBCFB12CA12CA0CFF701B1937F01EB
:10181000A150AACF9111B0CFD601942F50E302C0AE
:101820005D9391509111FCCFC40ED11C40E0ACCF20
:1018300001E0BACF80E3DBCF6217730731F4963350
:1018400088F4953311F4552369F0F6018083FD0186
:10185000842F90E2811108C0A40FB11D1C9290E06A
:1018600080E0F3CE81E3F1CF91938150F3CF9111DA
:1018700083CF8ACF283008F027E03327DA01990F89
:10188000311D87FD916000966105710539F4326064
:101890002E5F3D9330E32A95E1F708959F3F30F0A6
:1018A00080387105610509F03C5F3C5F3D939130E4
:1018B00008F08068911DDF93CF931F930F93FF92E1
:1018C000EF92192F987F9695E92F96959695E90FA7
:1018D000FF27EE55FE4F99273327EE24FF24A7015B
:1018E000E70105900894079428F4360FE71EF81EC8
:1018F000491F511D660F771F881F991F0694A1F776
:101900000590079428F4E70EF81E491F561FC11DC5
:10191000770F881F991F661F0694A1F705900794FB
:1019200028F4F80E491F561FC71FD11D880F991F95
:10193000661F771F0694A1F70590079420F4490FBE
:10194000561FC71FD81F990F661F771F881F069441
:10195000A9F784911095177041F0D695C7955795C2
:101960004795F794E7941A95C1F7E8E4F1E0689495
:101970001590159135916591959105907FE273953C
:10198000E118F10A430B560BC90BD009C0F7E10C63
:10199000F11E431F561FC91FD01D7EF4703311F472
:1019A0008A95E6CFE894015030F0080F0AF400273A
:1019B000021708F4202F2395022F7A3328F079E3B9
:1019C0007D932A95E9F710C07D932A9589F60694B0
:1019D00097956795379517951794E118F10A430B7A
:1019E000560BC90BD00998F023957E9173957A33E5
:1019F00008F070E37C932013B8F77E9170617D93BB
:101A000030F0839571E37D9370E32A95E1F711241B
:101A1000EF90FF900F911F91CF91DF91992787FD54
:101A200090950895E89409C097FB3EF490958095B1
:101A3000709561957F4F8F4F9F4F9923A9F0F92F94
:101A400096E9BB279395F695879577956795B79512
:101A5000F111F8CFFAF4BB0F11F460FF1BC06F5FF8
:101A60007F4F8F4F9F4F16C0882311F096E911C00A
:101A7000772321F09EE8872F762F05C0662371F02B
:101A800096E8862F70E060E02AF09A95660F771F3F
:101A9000881FDAF7880F9695879597F90895990F1B
:101AA0000008550FAA0BE0E8FEEF16161706E80728
:101AB000F907C0F012161306E407F50798F0621B49
:101AC000730B840B950B39F40A2661F0232B242B1E
:101AD000252B21F408950A2609F4A140A6958FEF3D
:101AE000811D811D08950E94860D0C94F70D0E94A2
:101AF000E90D38F00E94F00D20F0952311F00C94C0
:101B0000E00D0C94E60D11240C942B0E0E94080E8F
:101B100070F3959FC1F3950F50E0551F629FF00140
:101B2000729FBB27F00DB11D639FAA27F00DB11D59
:101B3000AA1F649F6627B00DA11D661F829F2227E2
:101B4000B00DA11D621F739FB00DA11D621F839F69
:101B5000A00D611D221F749F3327A00D611D231F3F
:101B6000849F600D211D822F762F6A2F11249F578D
:101B700050409AF0F1F088234AF0EE0FFF1FBB1F90
:101B8000661F771F881F91505040A9F79E3F51054F
:101B900080F00C94E00D0C942B0E5F3FE4F3983E24
:101BA000D4F3869577956795B795F795E7959F5FF9
:101BB000C1F7FE2B880F911D9695879597F908958B
:101BC00097F99F6780E870E060E008959FEF80ECF0
:101BD000089500240A941616170618060906089593
:101BE00000240A9412161306140605060895092EF9
:101BF0000394000C11F4882352F0BB0F40F4BF2B68
:101C000011F460FF04C06F5F7F4F8F4F9F4F0895A7
:101C100057FD9058440F551F59F05F3F71F047959D
:101C2000880F97FB991F61F09F3F79F08795089582
:101C3000121613061406551FF2CF4695F1DF08C0A1
:101C4000161617061806991FF1CF869571056105BE
:101C500008940895E894BB2766277727CB0197F966
:101C60000895052E97FB1EF400940E94480E57FD20
:101C700007D00E94630E07FC03D04EF40C94480E6C
:101C800050954095309521953F4F4F4F5F4F0895A8
:101C900090958095709561957F4F8F4F9F4F0895D8
:101CA0000E94850EA59F900DB49F900DA49F800D5E
:101CB000911D11240895B7FF0C94500E0E94500EF0
:101CC000821B930B0895A1E21A2EAA1BBB1BFD01D8
:101CD0000DC0AA1FBB1FEE1FFF1FA217B307E4070B
:101CE000F50720F0A21BB30BE40BF50B661F771F63
:101CF000881F991F1A9469F7609570958095909543
:101D00009B01AC01BD01CF010895A29FB001B39F1B
:101D1000C001A39F700D811D1124911DB29F700DF4
:101D2000811D1124911D08950E94A80E0C94F70D99
:101D30000E94F00D58F00E94E90D40F029F45F3F39
:101D400029F00C94E00D51110C942B0E0C94E60D1F
:101D50000E94080E68F39923B1F3552391F3951B64
:101D6000550BBB27AA2762177307840738F09F5FBC
:101D70005F4F220F331F441FAA1FA9F335D00E2E29
:101D80003AF0E0E832D091505040E695001CCAF796
:101D90002BD0FE2F29D0660F771F881FBB1F261759
:101DA00037074807AB07B0E809F0BB0B802DBF0130
:101DB000FF2793585F4F3AF09E3F510578F00C94FF
:101DC000E00D0C942B0E5F3FE4F3983ED4F3869520
:101DD00077956795B795F7959F5FC9F7880F911D20
:101DE0009695879597F90895E1E0660F771F881F0C
:101DF000BB1F621773078407BA0720F0621B730BBF
:101E0000840BBA0BEE1F88F7E09508950E944F0DE2
:101E100008F48FEF0895991B79E004C0991F961775
:101E200008F0961B881F7A95C9F780950895EE0FE4
:101E3000FF1F881F8BBF0790F691E02D19940F9319
:101E40001F93CF93DF938230910510F482E090E0EE
:101E5000E091A503F091A60330E020E0B0E0A0E01F
:101E6000309799F42115310509F44AC0281B390B24
:101E700024303105D8F58A819B816115710589F17E
:101E8000FB0193838283FE0111C040815181028155
:101E9000138148175907E0F04817590799F410972C
:101EA00061F012960C93129713961C933296CF0101
:101EB000DF91CF911F910F9108950093A503109387
:101EC000A603F4CF2115310551F04217530738F01E
:101ED000A901DB019A01BD01DF01F801C1CFEF01CA
:101EE000F9CF9093A6038093A503CDCFFE01E20F17
:101EF000F31F819391932250310939832883D7CFDF
:101F00002091A3033091A403232B41F420910202DA
:101F1000309103023093A4032093A3032091000285
:101F2000309101022115310541F42DB73EB74091A2
:101F3000040250910502241B350BE091A303F0919C
:101F4000A403E217F307A0F42E1B3F0B2817390751
:101F500078F0AC014E5F5F4F2417350748F04E0F05
:101F60005F1F5093A4034093A303819391939FCF4A
:101F7000F0E0E0E09CCFCF93DF930097E9F0FC0125
:101F8000329713821282A091A503B091A603ED01AE
:101F900030E020E01097A1F420813181820F931F5F
:101FA0002091A3033091A4032817390709F061C0D9
:101FB000F093A403E093A303DF91CF910895EA0186
:101FC000CE17DF07E8F54A815B819E014115510577
:101FD000B1F7E901FB83EA8349915991C40FD51FF9
:101FE000EC17FD0761F4808191810296840F951FA3
:101FF000E90199838883828193819B838A83F0E0BE
:10200000E0E012968D919C9113970097B9F52D9170
:102010003C911197CD010296820F931F2091A3034B
:102020003091A4032817390739F6309751F51092EB
:10203000A6031092A503B093A403A093A303BCCF5F
:10204000D383C28340815181840F951FC817D9075C
:1020500061F44E5F5F4F88819981480F591F51830A
:1020600040838A819B81938382832115310509F006
:10207000B0CFF093A603E093A5039ECFFD01DC0152
:10208000C0CF13821282D7CF4F925F926F927F920E
:102090008F929F92AF92BF92CF92DF92EF92FF9278
:1020A0000F931F93CF93DF938C01009799F4CB018B
:1020B000DF91CF911F910F91FF90EF90DF90CF9024
:1020C000BF90AF909F908F907F906F905F904F9058
:1020D0000C941F0FFC01E60FF71F9C0122503109E1
:1020E000E217F30708F4AEC0D901CD91DC91119746
:1020F000C617D70720F1C530D10578F0CE01049777
:102100008617970750F0C61BD70B2297C193D19320
:102110006D937C93CF010E94BB0FC801DF91CF91DB
:102120001F910F91FF90EF90DF90CF90BF90AF90F5
:102130009F908F907F906F905F904F9008955B017C
:10214000AC1ABD0A4C018C0E9D1EA091A503B09146
:10215000A603512C412CF12CE12C109731F58091E4
:10216000A3039091A4038815990509F05CC0461655
:10217000570608F058C08091000290910102009724
:1021800041F48DB79EB74091040250910502841B23
:10219000950BE817F90708F055C0F093A403E093F6
:1021A000A303F90171836083B8CF8D919C9111973E
:1021B00012966C90129713967C901397A815B905F8
:1021C00059F56C0142E0C40ED11CCA14DB0420F1A5
:1021D000AC014A195B09DA011296159780F0628208
:1021E000738251834083D9016D937C93E114F10490
:1021F00071F0D7011396FC93EE9312978ECF22962F
:102200008C0F9D1FF90191838083F301EFCFF09331
:10221000A603E093A50381CF4816590608F42C01C4
:102220007D01D3019ACFCB010E941F0F7C01009743
:1022300049F0AE01B8010E942511C8010E94BB0FF0
:1022400087016BCF10E000E068CFFB01DC0102C02A
:1022500001900D9241505040D8F70895FB01DC01E8
:0E22600001900D920020E1F70895F894FFCF51
:10226E000000A703800000000000D3023D026A02B6
:10227E0020039B0279028D0254656D702043313A22
:10228E0020000D0A2054656D702043323A20000D57
:10229E000A2054656D702043333A20000D0A2054F5
:0C22AE00656D702043343A20000D0A00DA
:00000001FF
