:100000000C9435010C9466010C9466010C94660105
:100010000C9466010C9466010C9466010C946601C4
:100020000C9466010C9466010C9466010C946601B4
:100030000C9466010C9466010C9466010C946601A4
:100040000C9466010C9466010C9466010C94660194
:100050000C9466010C9466010C9466010C9449039F
:100060000C9466010C9413030C94E9020C94660141
:100070000C9466010C9466010C9466010C94660164
:100080000C9466010C9466010C9466010C94660154
:100090000C9466010C9466010C9466010C94660144
:1000A0000C9466010C9466010C9466010C94660134
:1000B0000C9466010C9466010C9466010C94660124
:1000C0000C9466010C9466010C9466010C94660114
:1000D0000C9466010C9466010C9466010C94660104
:1000E0000C9466010C946A050C947E050C946801CE
:1000F0000C9470050C9466050C9455050C945D05E4
:100100000C9482050C94A4010C94B5050C944B023C
:100110000C949D040C9498040C9460050C94780540
:100120000C9490050C948C050C94C6010C94590504
:100130000C94FE010C9451050C9474050C94B801B8
:100140000C9486050C9495010000220025002800DF
:100150002B002E00310034000201000005010801CF
:100160000B0100002100240027002A002D00300090
:10017000330001010000040107010A010000200012
:100180002300260029002C002F003200000100006F
:10019000030106010901050505050705080808080A
:1001A000020202020A0A080804040404010101010F
:1001B000010101010303030303030303040707070A
:1001C0000C0C0C0C0C0C0C0C0202020206060606AF
:1001D000060606060B0B0B0B0B0B0B0B010210207C
:1001E000200808102040102040800201020108046D
:1001F0000201010204081020408080402010080401
:100200000201800402018040201008040201080459
:10021000020101020408102040800102040810209D
:10022000408000000A0B02090C0D0E0807030401B0
:1002300000000000000000000000000000000000BE
:10024000000000000000000000000000000012118B
:10025000100000000000000000000000000000008E
:100260000000000000000000B50511241FBECFEF04
:10027000D1E2DEBFCDBF00E00CBF22E0A4E2B2E0DD
:1002800001C01D92AE3CB207E1F712E0A0E0B2E07F
:10029000EEE6F0E100E00BBF02C007900D92A43241
:1002A000B107D9F711E0C5E3D1E000E006C021971E
:1002B0000109802FFE010E941706C433D10780E098
:1002C0000807A9F70E9493030C9435080C940000CA
:1002D000AF92BF92CF92DF92EF92FF920F931F9354
:1002E000CF93DF936C017B018B01040F151FEB0192
:1002F0005E01AE18BF08C017D10759F06991D60149
:10030000ED91FC910190F081E02DC6011995892BAA
:1003100079F7C501DF91CF911F910F91FF90EF9079
:10032000DF90CF90BF90AF900895FC01538D448D26
:10033000252F30E0842F90E0821B930B541710F090
:10034000CF96089501970895FC01918D828D98179D
:1003500061F0A28DAE0FBF2FB11D5D968C91928D75
:100360009F5F9F73928F90E008958FEF9FEF0895A6
:10037000FC01918D828D981731F0828DE80FF11D6F
:10038000858D90E008958FEF9FEF0895FC01918D8A
:10039000228D892F90E0805C9F4F821B91098F7383
:1003A000992708958DE292E00E94C60121E0892BF1
:1003B00009F420E0822F0895FC01A48DA80FB92F25
:1003C000B11DA35ABF4F2C91848D90E001968F737D
:1003D0009927848FA689B7892C93A089B1898C919C
:1003E000837080648C93938D848D981306C00288EB
:1003F000F389E02D80818F7D80830895EF92FF92B5
:100400000F931F93CF93DF93EC0181E0888F9B8D37
:100410008C8D98131AC0E889F989808185FF15C0F1
:100420009FB7F894EE89FF896083E889F989808114
:100430008370806480839FBF81E090E0DF91CF91E3
:100440001F910F91FF90EF900895F62E0B8D10E005
:100450000F5F1F4F0F731127E02E8C8D8E110CC074
:100460000FB607FCFACFE889F989808185FFF5CFBF
:10047000CE010E94DC01F1CFEB8DEC0FFD2FF11DC1
:10048000E35AFF4FF0829FB7F8940B8FEA89FB89FC
:1004900080818062CFCFCF93DF93EC01888D88235A
:1004A000B9F0AA89BB89E889F9898C9185FD03C0D7
:1004B000808186FD0DC00FB607FCF7CF8C9185FFBC
:1004C000F2CF808185FFEDCFCE010E94DC01E9CF24
:1004D000DF91CF91089580E090E0892B29F00E9470
:1004E000D20181110E94000080E090E0892B49F048
:1004F00080E090E0892B29F00E94000081110E9489
:10050000000080E090E0892B49F080E090E0892BAA
:1005100029F00E94000081110E94000080E090E01C
:10052000892B49F080E090E0892B29F00E9400009F
:1005300081110C94000008953FB7F894809129022E
:1005400090912A02A0912B02B0912C0226B5A89B73
:1005500005C02F3F19F00196A11DB11D3FBFBA2F55
:10056000A92F982F8827BC01CD01620F711D811D15
:10057000911D42E0660F771F881F991F4A95D1F79A
:1005800008950F931F93CF93DF93EC018881998196
:10059000009759F02A813B812617370730F081E018
:1005A000DF91CF911F910F9108958B016F5F7F4F66
:1005B0000E944407009759F0998388831B830A831C
:1005C0002C813D81232B59F7FC011082E8CF80E07C
:1005D000E7CF1F920F920FB60F9211240BB60F9216
:1005E0002F933F934F935F936F937F938F939F933B
:1005F000AF93BF93EF93FF938DE292E00E94DC01F3
:10060000FF91EF91BF91AF919F918F917F916F91EA
:100610005F914F913F912F910F900BBE0F900FBEA6
:100620000F901F9018951F920F920FB60F921124E2
:100630000BB60F922F938F939F93EF93FF93E091BD
:100640003D02F0913E028081E0914302F09144022C
:1006500082FD1DC09081809146028F5F8F73209133
:100660004702821741F0E0914602F0E0E35DFD4F62
:10067000958F80934602FF91EF919F918F912F91DB
:100680000F900BBE0F900FBE0F901F90189580819A
:10069000F2CF1F920F920FB60F9211242F933F9318
:1006A0008F939F93AF93BF938091250290912602E1
:1006B000A0912702B09128023091240223E0230F59
:1006C0002D3758F50196A11DB11D2093240280936A
:1006D000250290932602A0932702B09328028091CE
:1006E000290290912A02A0912B02B0912C0201962E
:1006F000A11DB11D8093290290932A02A0932B0281
:10070000B0932C02BF91AF919F918F913F912F9108
:100710000F900FBE0F901F90189526E8230F02969A
:10072000A11DB11DD2CFCF93DF93CDB7DEB76897B0
:100730000FB6F894DEBF0FBECDBF789484B582604B
:1007400084BD84B5816084BD85B5826085BD85B575
:10075000816085BD80916E00816080936E001092F3
:10076000810080918100826080938100809181006E
:1007700081608093810080918000816080938000FF
:100780008091B10084608093B1008091B00081605D
:100790008093B0008091910082608093910080915D
:1007A000910081608093910080919000816080939E
:1007B00090008091A10082608093A1008091A100AF
:1007C00081608093A1008091A00081608093A0004F
:1007D00080912101826080932101809121018160BB
:1007E000809321018091200181608093200180917C
:1007F0007A00846080937A0080917A00826080938E
:100800007A0080917A00816080937A0080917A00EA
:10081000806880937A001092C100E0913D02F091CF
:100820003E0282E08083E0913902F0913A02108228
:10083000E0913B02F0913C028FEC808310924502E4
:10084000E0914102F091420286E08083E0913F0214
:10085000F0914002808180618083E0913F02F091BD
:100860004002808188608083E0913F02F0914002E5
:10087000808180688083E0913F02F0914002808116
:100880008F7D808340EE242E41E0342EF1012491AF
:100890005AE9A52E51E0B52EF50184918823C9F0BF
:1008A00090E0880F991FFC01EE59FE4FA591B4917D
:1008B000FC01E85BFE4F459154919FB7F8943C9141
:1008C000822F809583238C93FA018081282B2083AB
:1008D0009FBF26E2822E22E0922E8E010F5F1F4FD5
:1008E000F4018491F1012491F5019491992309F483
:1008F0001BC1882311F181508231F8F4E82FF0E018
:100900008827EA57FB4F8F4F0C94170659055D0552
:100910009804510555059D04600566056A05700536
:10092000740578057E0582059D0486058C05900575
:10093000809180008F7780938000E92FF0E0EE0FA8
:10094000FF1FE458FE4FA591B4918C91282381E0BC
:1009500090E009F480E01C8A1B8A1E8A1D8A188E8A
:100960001F8A4AE0B8010E94E205F80101900020C8
:10097000E9F731977F01E01AF10AB701CE014396FA
:100980000E94C1022B893C898111D1C021153105FA
:1009900019F0C9010E94BB061C8A1B8A188E1F8A87
:1009A0001E8A1D8A1A8219821C821B821E821D8247
:1009B00067E070E0C8010E94C10229813A8181117B
:1009C000BDC02115310519F0C9010E94BB061A826C
:1009D00019821E821D821C821B826B887C88611496
:1009E000710409F4B5C0EF88F88CE114F104B1F09A
:1009F0008D819E81E80EF91EB701C8010E94C102D7
:100A0000882309F4A5C029813A818D819E81B30193
:100A1000820F931F0E942E08FE82ED824D815E811F
:100A200069817A818DE292E00E94680142E050E0A3
:100A300060E272E08DE292E00E94680189819A8111
:100A4000009711F00E94BB068B899C89009711F0DA
:100A50000E94BB060E949C026B017C0184E6482E2A
:100A6000512C612C712C0E949C026C197D098E09FD
:100A70009F09683E734081059105A8F3F1E04F1A84
:100A800051086108710828EEC20E23E0D21EE11C55
:100A9000F11C411451046104710429F70E946B0296
:100AA0001FCF809180008F7D46CF80918000877F0F
:100AB00042CF84B58F7784BD40CF84B58F7DFBCF87
:100AC0008091B0008F778093B00037CF8091B000D5
:100AD0008F7DF9CF809190008F77809390002DCFFC
:100AE000809190008F7DF9CF80919000877FF5CF26
:100AF0008091A0008F778093A0001FCF8091A000ED
:100B00008F7DF9CF8091A000877FF5CF8091200164
:100B10008F778093200111CF809120018F7DF9CFB5
:100B200080912001877FF5CF80E090E014CFF88E90
:100B3000EF8AB801C9010E942E0834CF87E090E007
:100B40009E838D8368E172E0C9010E942E0845CF23
:100B500089819A81009711F00E94BB061A8219823E
:100B60001E821D821C821B8259CFEDE2F2E01382AD
:100B7000128288EE93E0A0E0B0E084839583A683A0
:100B8000B7838AE092E09183808385EC90E095873B
:100B9000848784EC90E09787868780EC90E0918B47
:100BA000808B81EC90E0938B828B82EC90E0958B34
:100BB000848B86EC90E0978B868B118E128E138E31
:100BC000148E0895BB274A3031F4992322F4BDE2F4
:100BD000909581959F4F0C94EE05BB27FB015527FF
:100BE000AA27880F991FAA1FA41710F0A41B83958A
:100BF0005051B9F7A05DAA3308F0A95DA193009701
:100C000079F7B111B1931192CB010C940706DC0175
:100C1000FC01672F71917723E1F7329704C07C9133
:100C20006D9370836291AE17BF07C8F30895EE0FFE
:100C3000FF1F881F8BBF0790F691E02D19940F932B
:100C40001F93CF93DF938230910510F482E090E000
:100C5000E091CC02F091CD0230E020E0B0E0A0E0E5
:100C6000309799F42115310509F44AC0281B390B36
:100C700024303105D8F58A819B816115710589F190
:100C8000FB0193838283FE0111C040815181028167
:100C9000138148175907E0F04817590799F410973E
:100CA00061F012960C93129713961C933296CF0113
:100CB000DF91CF911F910F9108950093CC02109373
:100CC000CD02F4CF2115310551F04217530738F00A
:100CD000A901DB019A01BD01DF01F801C1CFEF01DC
:100CE000F9CF9093CD028093CC02CDCFFE01E20FDD
:100CF000F31F819391932250310939832883D7CFF1
:100D00002091CA023091CB02232B41F420910202A0
:100D1000309103023093CB022093CA02209100024B
:100D2000309101022115310541F42DB73EB74091B4
:100D3000040250910502241B350BE091CA02F09188
:100D4000CB02E217F307A0F42E1B3F0B281739073D
:100D500078F0AC014E5F5F4F2417350748F04E0F17
:100D60005F1F5093CB024093CA02819391939FCF10
:100D7000F0E0E0E09CCFCF93DF930097E9F0FC0137
:100D8000329713821282A091CC02B091CD02ED0174
:100D900030E020E01097A1F420813181820F931F71
:100DA0002091CA023091CB022817390709F061C09F
:100DB000F093CB02E093CA02DF91CF910895EA014C
:100DC000CE17DF07E8F54A815B819E014115510589
:100DD000B1F7E901FB83EA8349915991C40FD51F0B
:100DE000EC17FD0761F4808191810296840F951FB5
:100DF000E90199838883828193819B838A83F0E0D0
:100E0000E0E012968D919C9113970097B9F52D9182
:100E10003C911197CD010296820F931F2091CA0237
:100E20003091CB022817390739F6309751F51092D7
:100E3000CD021092CC02B093CB02A093CA02BCCFD9
:100E4000D383C28340815181840F951FC817D9076E
:100E500061F44E5F5F4F88819981480F591F51831C
:100E600040838A819B81938382832115310509F018
:100E7000B0CFF093CD02E093CC029ECFFD01DC0118
:100E8000C0CF13821282D7CF4F925F926F927F9220
:100E90008F929F92AF92BF92CF92DF92EF92FF928A
:100EA0000F931F93CF93DF938C01009799F4CB019D
:100EB000DF91CF911F910F91FF90EF90DF90CF9036
:100EC000BF90AF909F908F907F906F905F904F906A
:100ED0000C941F06FC01E60FF71F9C0122503109FC
:100EE000E217F30708F4AEC0D901CD91DC91119758
:100EF000C617D70720F1C530D10578F0CE01049789
:100F00008617970750F0C61BD70B2297C193D19332
:100F10006D937C93CF010E94BB06C801DF91CF91F6
:100F20001F910F91FF90EF90DF90CF90BF90AF9007
:100F30009F908F907F906F905F904F9008955B018E
:100F4000AC1ABD0A4C018C0E9D1EA091CC02B09132
:100F5000CD02512C412CF12CE12C109731F58091D0
:100F6000CA029091CB028815990509F05CC046161B
:100F7000570608F058C08091000290910102009736
:100F800041F48DB79EB74091040250910502841B35
:100F9000950BE817F90708F055C0F093CB02E093E2
:100FA000CA02F90171836083B8CF8D919C9111972A
:100FB00012966C90129713967C901397A815B9050A
:100FC00059F56C0142E0C40ED11CCA14DB0420F1B7
:100FD000AC014A195B09DA011296159780F062821A
:100FE000738251834083D9016D937C93E114F104A2
:100FF00071F0D7011396FC93EE9312978ECF229641
:101000008C0F9D1FF90191838083F301EFCFF09343
:10101000CD02E093CC0281CF4816590608F42C018A
:101020007D01D3019ACFCB010E941F067C0100975E
:1010300049F0AE01B8010E942508C8010E94BB0614
:1010400087016BCF10E000E068CFFB01DC0102C03C
:1010500001900D9241505040D8F70895FB01DC01FA
:0E10600001900D920020E1F70895F894FFCF63
:10106E000000CE02800000000000FE016801950124
:10107E004B02C601A401B8015365C3B1616C3A00BD
:04108E000D0A000047
:00000001FF
