:100000000C9483000C94B4000C94B4000C94B400D1
:100010000C94B4000C94B4000C94B4000C94B40090
:100020000C94B4000C94B4000C94B4000C94B40080
:100030000C94B4000C94B4000C94B4000C94B40070
:100040000C94B4000C94B4000C94B4000C94B40060
:100050000C94B4000C94B4000C94B4000C9495036C
:100060000C94B4000C945F030C9435030C94B4000E
:100070000C94B4000C94B4000C94B4000C94B40030
:100080000C94B4000C94B4000C94B4000C94B40020
:100090000C94B4000C94B4000C94B4000C94B40010
:1000A0000C94B4000C94B4000C94B4000C94B40000
:1000B0000C94B4000C94B4000C94B4000C94B400F0
:1000C0000C94B4000C94B4000C94B4000C94B400E0
:1000D0000C94B4000C94B4000C94B4000C94B400D0
:1000E0000C94B4000C948C010C94B6000C94E300B6
:1000F0000C94D9010C9454010C948B050C9446017A
:100100000C94F2008B0511241FBECFEFD1E2DEBFAD
:10011000CDBF00E00CBF23E0AEE5B2E001C01D9210
:10012000AB30B207E1F712E0A0E0B2E0E2E9F0E1C3
:1001300000E00BBF02C007900D92AE35B107D9F7B2
:1001400010E0C3E8D0E000E006C021970109802F4D
:10015000FE010E942906C238D10780E00807A9F7EE
:100160000E94DF030C9447080C940000AF92BF92EA
:10017000CF92DF92EF92FF920F931F93CF93DF9373
:100180006C017B018B01040F151FEB015E01AE18A2
:10019000BF08C017D10759F06991D601ED91FC91C4
:1001A0000190F081E02DC6011995892B79F7C501E1
:1001B000DF91CF911F910F91FF90EF90DF90CF9043
:1001C000BF90AF900895FC01538D448D252F30E0F2
:1001D000842F90E0821B930B541710F0CF96089554
:1001E00001970895FC01918D828D981761F0A28D81
:1001F000AE0FBF2FB11D5D968C91928D9F5F9F7347
:10020000928F90E008958FEF9FEF08952FB7F894A5
:100210008091660290916702A0916802B091690294
:100220002FBF8093720290937302A0937402B093D5
:1002300075028AE692E00E94F20097FF26C02FB76F
:10024000F8948091660290916702A0916802B09143
:1002500069022FBF40917202509173026091740243
:1002600070917502841B950BA60BB70B40916E0223
:1002700050916F026091700270917102841795071E
:10028000A607B707B0F28FEF9FEF0895FC01918D9D
:10029000828D981731F0828DE80FF11D858D90E0E9
:1002A00008958FEF9FEF0895FC01918D228D892F86
:1002B00090E0805C9F4F821B91098F73992708956E
:1002C0008AE692E00E94540121E0892B09F420E0A3
:1002D000822F0895FC01A48DA80FB92FB11DA35A38
:1002E000BF4F2C91848D90E001968F739927848F56
:1002F000A689B7892C93A089B1898C918370806479
:100300008C93938D848D981306C00288F389E02D19
:1003100080818F7D80830895EF92FF920F931F93CA
:10032000CF93DF93EC0181E0888F9B8D8C8D9813A8
:100330001AC0E889F989808185FF15C09FB7F894B4
:10034000EE89FF896083E889F98980818370806400
:1003500080839FBF81E090E0DF91CF911F910F914B
:10036000FF90EF900895F62E0B8D10E00F5F1F4F5A
:100370000F731127E02E8C8D8E110CC00FB607FC69
:10038000FACFE889F989808185FFF5CFCE010E94F7
:100390006A01F1CFEB8DEC0FFD2FF11DE35AFF4FFA
:1003A000F0829FB7F8940B8FEA89FB898081806285
:1003B000CFCFCF93DF93EC01888D8823B9F0AA8942
:1003C000BB89E889F9898C9185FD03C0808186FD10
:1003D0000DC00FB607FCF7CF8C9185FFF2CF80815F
:1003E00085FFEDCFCE010E946A01E9CFDF91CF9169
:1003F000089580E090E0892B29F00E94600181112E
:100400000E94000080E090E0892B49F080E090E0BD
:10041000892B29F00E94000081110E94000080E0D9
:1004200090E0892B49F080E090E0892B29F00E9430
:10043000000081110E94000080E090E0892B49F0CB
:1004400080E090E0892B29F00E94000081110C943B
:10045000000008953FB7F89480915F029091600288
:10046000A0916102B091620226B5A89B05C02F3F02
:1004700019F00196A11DB11D3FBFBA2FA92F982FCA
:100480008827BC01CD01620F711D811D911D42E0C5
:10049000660F771F881F991F4A95D1F7089580919D
:1004A00063029091640201979093640280936302C7
:1004B000181619061CF084E0809365020895FC016B
:1004C00001900020E9F73197AF01481B590BBC019F
:1004D0008AE692E00C94B600FC018081918100973D
:1004E00011F00C94CD0608950F931F93CF93DF93D3
:1004F000EC0188819981009759F02A813B81261768
:10050000370730F081E0DF91CF911F910F9108956F
:100510008B016F5F7F4F0E945607009759F09983B8
:1005200088831B830A832C813D81232B59F7FC018F
:100530001082E8CF80E0E7CFEF92FF920F931F93F6
:10054000CF93DF93EC017B018A01BA010E94740210
:1005500028813981811114C02115310519F0C90193
:100560000E94CD06198218821D821C821B821A826B
:10057000CE01DF91CF911F910F91FF90EF900895E1
:100580001D830C83B701C9010E944008F1CFEF928F
:10059000FF920F931F93CF93DF931F921F92CDB7BC
:1005A000DEB78C01FC011182108213821282158247
:1005B000148250E040E06AE572E00E949C020E94D2
:1005C000060197FD1EC089831A82F801E480F58038
:1005D000FFEFEF1AFF0AB701C8010E9474028823D7
:1005E00071F3F8012081318184819581BE016F5FB3
:1005F0007F4F820F931F0E944008F801F582E4822A
:10060000DECFC8010F900F90DF91CF911F910F9116
:10061000FF90EF900895CF92DF92EF92FF92CF93E9
:10062000DF9300D000D0CDB7DEB7CE0101960E9497
:10063000C70289819A81C12CD12C7601009719F0CB
:100640000E94B8056B01CE0101960E946C02C601A2
:1006500026960FB6F894DEBF0FBECDBFDF91CF91C7
:10066000FF90EF90DF90CF9008951F920F920FB6FA
:100670000F9211240BB60F922F933F934F935F93DA
:100680006F937F938F939F93AF93BF93EF93FF935A
:100690008AE692E00E946A01FF91EF91BF91AF91CB
:1006A0009F918F917F916F915F914F913F912F918A
:1006B0000F900BBE0F900FBE0F901F9018951F92BA
:1006C0000F920FB60F9211240BB60F922F938F93A8
:1006D0009F93EF93FF93E0917A02F0917B028081E8
:1006E000E0918002F091810282FD1DC09081809195
:1006F00083028F5F8F7320918402821741F0E09113
:100700008302F0E0E659FD4F958F80938302FF91BD
:10071000EF919F918F912F910F900BBE0F900FBE75
:100720000F901F9018958081F2CF1F920F920FB6F5
:100730000F9211242F933F938F939F93AF93BF9367
:100740008091660290916702A0916802B09169025F
:1007500030915E0223E0230F2D3758F50196A11D3D
:10076000B11D20935E028093660290936702A0936E
:100770006802B093690280915F0290916002A0913B
:100780006102B09162020196A11DB11D80935F02CA
:1007900090936002A0936102B0936202BF91AF9107
:1007A0009F918F913F912F910F900FBE0F901F90AF
:1007B000189526E8230F0296A11DB11DD2CFCF9325
:1007C000DF93CDB7DEB768970FB6F894DEBF0FBEE4
:1007D000CDBF789484B5826084BD84B5816084BDCA
:1007E00085B5826085BD85B5816085BD80916E00CF
:1007F000816080936E001092810080918100826000
:10080000809381008091810081608093810080913C
:1008100080008160809380008091B100846080932B
:10082000B1008091B00081608093B0008091910010
:10083000826080939100809191008160809391000B
:10084000809190008160809390008091A1008260EF
:100850008093A1008091A10081608093A10080918C
:10086000A00081608093A00080912101826080932C
:1008700021018091210181608093210180912001DB
:1008800081608093200180917A00846080937A0057
:1008900080917A00826080937A0080917A008160F2
:1008A00080937A0080917A00806880937A00109219
:1008B000C100E0917A02F0917B0282E08083E091B6
:1008C0007602F09177021082E0917802F09179023D
:1008D0008FEC808310928202E0917E02F0917F0281
:1008E00086E08083E0917C02F0917D0280818061CE
:1008F0008083E0917C02F0917D028081886080831A
:10090000E0917C02F0917D02808180688083E0919B
:100910007C02F0917D0280818F7D808393E0B92EEF
:100920008E010F5F1F4F22E0A22EF0906502F110A2
:1009300030C08AE192E00E945F02809165028F5F81
:10094000809365020E942A022B013C0184E6C82E96
:10095000D12CE12CF12C0E942A0264197509860918
:100960009709683E734081059105A8F381E0C81A94
:10097000D108E108F10828EE420E23E0521E611C66
:10098000711CC114D104E104F10429F70E94F9019A
:10099000CCCF24E0F2126EC080910002909101024F
:1009A0001C8A1B8A1E8A1D8A188E1F8A4AE0B8017B
:1009B0000E94DF05F80101900020E9F73197AF01AF
:1009C000401B510BB801CE0143960E949C021A8233
:1009D00019821C821B821E821D824FE050E068E358
:1009E00072E0C8010E949C02CB88DC88C114D1044B
:1009F000A1F1EF88F88CE114F104A9F08D819E81BA
:100A0000E80EF91EB701C8010E947402882329F17B
:100A100029813A818D819E81B601820F931F0E94A8
:100A20004008FE82ED824D815E8169817A818AE68D
:100A300092E00E94B60088E592E00E945F02C80141
:100A40000E946C02CE0143960E946C0288E592E0FF
:100A50000E945F021092650275CF89819A8100978A
:100A600011F00E94CD061A8219821E821D821C82FC
:100A70001B82D9CF8AE692E00E945401181619060B
:100A80000CF060CF81E0F81220C0C8010E94C702BC
:100A900089819A81009791F00E94B8057B0170933B
:100AA000640260936302C8010E946C021E141F045A
:100AB0004CF088E492E00E945F02C8CF60E070E0F2
:100AC000CB01ECCFA09265023DCF22E0F21213C021
:100AD0000E940B039093010280930002B092650282
:100AE0000E944F028BE592E00E945F0288E592E04F
:100AF0000E945F0227CF0E940B03209100023091D9
:100B000001022817390724F4909301028093000210
:100B10000E944F0217CFEAE6F2E01382128288EEBB
:100B200093E0A0E0B0E084839583A683B7838CE054
:100B300092E09183808385EC90E09587848784ECB4
:100B400090E09787868780EC90E0918B808B81EC9A
:100B500090E0938B828B82EC90E0958B848B86EC7B
:100B600090E0978B868B118E128E138E148E0895C3
:100B70001F93FC0199278827BC01E894119110323A
:100B8000E9F3193010F01E30C8F31B3251F01D325A
:100B900049F4689406C00E94EA05610F711D811D29
:100BA000911D119110531A30B0F33EF49095809539
:100BB000709561957F4F8F4F9F4F1F910895BB2771
:100BC0004A3031F4992322F4BDE2909581959F4FEC
:100BD0000C940006592F482F372F262F660F771FAA
:100BE000881F991F660F771F881F991F620F731F39
:100BF000841F951F660F771F881F991F0895BB27B5
:100C0000FB015527AA27880F991FAA1FA41710F0C8
:100C1000A41B83955051B9F7A05DAA3308F0A95DD4
:100C2000A193009779F7B111B1931192CB010C9474
:100C30001906DC01FC01672F71917723E1F73297E8
:100C400004C07C916D9370836291AE17BF07C8F3A7
:100C50000895EE0FFF1F881F8BBF0790F691E02DC0
:100C600019940F931F93CF93DF938230910510F463
:100C700082E090E0E0910903F0910A0330E020E087
:100C8000B0E0A0E0309799F42115310509F44AC08D
:100C9000281B390B24303105D8F58A819B816115D9
:100CA000710589F1FB0193838283FE0111C04081AC
:100CB00051810281138148175907E0F048175907FD
:100CC00099F4109761F012960C93129713961C9357
:100CD0003296CF01DF91CF911F910F91089500932C
:100CE000090310930A03F4CF2115310551F042177F
:100CF000530738F0A901DB019A01BD01DF01F801BA
:100D0000C1CFEF01F9CF90930A0380930903CDCFB0
:100D1000FE01E20FF31F8193919322503109398331
:100D20002883D7CF2091070330910803232B41F468
:100D300020910402309105023093080320930703A9
:100D400020910202309103022115310541F42DB7A3
:100D50003EB74091060250910702241B350BE091EB
:100D60000703F0910803E217F307A0F42E1B3F0BD3
:100D70002817390778F0AC014E5F5F4F241735070D
:100D800048F04E0F5F1F5093080340930703819371
:100D900091939FCFF0E0E0E09CCFCF93DF9300975B
:100DA000E9F0FC01329713821282A0910903B091FD
:100DB0000A03ED0130E020E01097A1F42081318199
:100DC000820F931F209107033091080328173907DA
:100DD00009F061C0F0930803E0930703DF91CF911E
:100DE0000895EA01CE17DF07E8F54A815B819E018D
:100DF00041155105B1F7E901FB83EA834991599106
:100E0000C40FD51FEC17FD0761F480819181029614
:100E1000840F951FE90199838883828193819B8345
:100E20008A83F0E0E0E012968D919C9113970097F1
:100E3000B9F52D913C911197CD010296820F931F28
:100E400020910703309108032817390739F63097A6
:100E500051F510920A0310920903B0930803A0936E
:100E60000703BCCFD383C28340815181840F951F78
:100E7000C817D90761F44E5F5F4F88819981480F89
:100E8000591F518340838A819B81938382832115DB
:100E9000310509F0B0CFF0930A03E09309039ECF28
:100EA000FD01DC01C0CF13821282D7CF4F925F9237
:100EB0006F927F928F929F92AF92BF92CF92DF926A
:100EC000EF92FF920F931F93CF93DF938C010097C4
:100ED00099F4CB01DF91CF911F910F91FF90EF908B
:100EE000DF90CF90BF90AF909F908F907F906F904A
:100EF0005F904F900C943106FC01E60FF71F9C01A8
:100F000022503109E217F30708F4AEC0D901CD91A0
:100F1000DC911197C617D70720F1C530D10578F0BD
:100F2000CE0104978617970750F0C61BD70B229760
:100F3000C193D1936D937C93CF010E94CD06C801DC
:100F4000DF91CF911F910F91FF90EF90DF90CF90A5
:100F5000BF90AF909F908F907F906F905F904F90D9
:100F600008955B01AC1ABD0A4C018C0E9D1EA09128
:100F70000903B0910A03512C412CF12CE12C10975C
:100F800031F580910703909108038815990509F0C0
:100F90005CC04616570608F058C080910202909136
:100FA0000302009741F48DB79EB74091060250911D
:100FB0000702841B950BE817F90708F055C0F0935A
:100FC0000803E0930703F90171836083B8CF8D9123
:100FD0009C91119712966C90129713967C90139790
:100FE000A815B90559F56C0142E0C40ED11CCA140C
:100FF000DB0420F1AC014A195B09DA01129615975E
:1010000080F06282738251834083D9016D937C9317
:10101000E114F10471F0D7011396FC93EE9312974B
:101020008ECF22968C0F9D1FF90191838083F3014F
:10103000EFCFF0930A03E093090381CF48165906D6
:1010400008F42C017D01D3019ACFCB010E94310617
:101050007C01009749F0AE01B8010E943708C80131
:101060000E94CD0687016BCF10E000E068CFFB0146
:10107000DC0102C001900D9241505040D8F7089514
:10108000FB01DC0101900D920020E1F70895F89436
:02109000FFCF90
:10109200F6FF00000B038000000000008C01B60088
:1010A200E300D9015401F200460144616D65206CF0
:1010B200612063616E7469646164206465206E7589
:1010C2006D65726F733A20000D0A456C206D61796F
:1010D2006F722065733A20004E756D65726F206ED7
:0E10E2006F2076616C69646F0D0A0064000077
:00000001FF
