:100000000C9483000C94B4000C94B4000C94B400D1
:100010000C94B4000C94B4000C94B4000C94B40090
:100020000C94B4000C94B4000C94B4000C94B40080
:100030000C94B4000C94B4000C94B4000C94B40070
:100040000C94B4000C94B4000C94B4000C94B40060
:100050000C94B4000C94B4000C94B4000C941203EF
:100060000C94B4000C94DC020C94B2020C94B40016
:100070000C94B4000C94B4000C94B4000C94B40030
:100080000C94B4000C94B4000C94B4000C94B40020
:100090000C94B4000C94B4000C94B4000C94B40010
:1000A0000C94B4000C94B4000C94B4000C94B40000
:1000B0000C94B4000C94B4000C94B4000C94B400F0
:1000C0000C94B4000C94B4000C94B4000C94B400E0
:1000D0000C94B4000C94B4000C94B4000C94B400D0
:1000E0000C94B4000C9435050C94F2000C9454015B
:1000F0000C94B6000C94D9010C948C010C94E30080
:100100000C944601350511241FBECFEFD1E2DEBFAE
:10011000CDBF00E00CBF22E0A2E4B2E001C01D921E
:10012000A63FB207E1F712E0A0E0B2E0E6EEFFE0A2
:1001300000E00BBF02C007900D92A234B107D9F7BF
:1001400010E0C3E8D0E000E006C021970109802F4D
:10015000FE010E94D305C238D10780E00807A9F745
:100160000E945C030C94F1070C940000AF92BF92C4
:10017000CF92DF92EF92FF920F931F93CF93DF9373
:100180006C017B018B01040F151FEB015E01AE18A2
:10019000BF08C017D10759F06991D601ED91FC91C4
:1001A0000190F081E02DC6011995892B79F7C501E1
:1001B000DF91CF911F910F91FF90EF90DF90CF9043
:1001C000BF90AF900895FC01538D448D252F30E0F2
:1001D000842F90E0821B930B541710F0CF96089554
:1001E00001970895FC01918D828D981761F0A28D81
:1001F000AE0FBF2FB11D5D968C91928D9F5F9F7347
:10020000928F90E008958FEF9FEF08952FB7F894A5
:100210008091510290915202A0915302B0915402E8
:100220002FBF80935D0290935E02A0935F02B09314
:10023000600285E592E00E94F20097FF26C02FB78A
:10024000F8948091510290915202A0915302B09182
:1002500054022FBF40915D0250915E0260915F0297
:1002600070916002841B950BA60BB70B409159024D
:1002700050915A0260915B0270915C02841795075D
:10028000A607B707B0F28FEF9FEF0895FC01918D9D
:10029000828D981731F0828DE80FF11D858D90E0E9
:1002A00008958FEF9FEF0895FC01918D228D892F86
:1002B00090E0805C9F4F821B91098F73992708956E
:1002C00085E592E00E94540121E0892B09F420E0A9
:1002D000822F0895FC01A48DA80FB92FB11DA35A38
:1002E000BF4F2C91848D90E001968F739927848F56
:1002F000A689B7892C93A089B1898C918370806479
:100300008C93938D848D981306C00288F389E02D19
:1003100080818F7D80830895EF92FF920F931F93CA
:10032000CF93DF93EC0181E0888F9B8D8C8D9813A8
:100330001AC0E889F989808185FF15C09FB7F894B4
:10034000EE89FF896083E889F98980818370806400
:1003500080839FBF81E090E0DF91CF911F910F914B
:10036000FF90EF900895F62E0B8D10E00F5F1F4F5A
:100370000F731127E02E8C8D8E110CC00FB607FC69
:10038000FACFE889F989808185FFF5CFCE010E94F7
:100390006A01F1CFEB8DEC0FFD2FF11DE35AFF4FFA
:1003A000F0829FB7F8940B8FEA89FB898081806285
:1003B000CFCFCF93DF93EC01888D8823B9F0AA8942
:1003C000BB89E889F9898C9185FD03C0808186FD10
:1003D0000DC00FB607FCF7CF8C9185FFF2CF80815F
:1003E00085FFEDCFCE010E946A01E9CFDF91CF9169
:1003F000089580E090E0892B29F00E94600181112E
:100400000E94000080E090E0892B49F080E090E0BD
:10041000892B29F00E94000081110E94000080E0D9
:1004200090E0892B49F080E090E0892B29F00E9430
:10043000000081110E94000080E090E0892B49F0CB
:1004400080E090E0892B29F00E94000081110C943B
:10045000000008953FB7F8948091430290914402C0
:10046000A0914502B091460226B5A89B05C02F3F3A
:1004700019F00196A11DB11D3FBFBA2FA92F982FCA
:100480008827BC01CD01620F711D811D911D42E0C5
:10049000660F771F881F991F4A95D1F7089542E08C
:1004A00050E068E172E085E592E00C94B600FC0152
:1004B00080819181009711F00C94770608950F9335
:1004C0001F93CF93DF93EC0188819981009759F0B6
:1004D0002A813B812617370730F081E0DF91CF91E9
:1004E0001F910F9108958B016F5F7F4F0E9400074E
:1004F000009759F0998388831B830A832C813D815F
:10050000232B59F7FC011082E8CF80E0E7CFEF9270
:10051000FF920F931F93CF93DF93EC017B018A012E
:10052000BA010E945F0228813981811114C021150E
:10053000310519F0C9010E947706198218821D82BF
:100540001C821B821A82CE01DF91CF911F910F91E5
:10055000FF90EF9008951D830C83B701C9010E949D
:10056000EA07F1CF1F920F920FB60F9211240BB62C
:100570000F922F933F934F935F936F937F938F933C
:100580009F93AF93BF93EF93FF9385E592E00E9413
:100590006A01FF91EF91BF91AF919F918F917F91F0
:1005A0006F915F914F913F912F910F900BBE0F90E4
:1005B0000FBE0F901F9018951F920F920FB60F92BB
:1005C00011240BB60F922F938F939F93EF93FF936A
:1005D000E0916502F09166028081E0916B02F091FA
:1005E0006C0282FD1DC0908180916E028F5F8F73BF
:1005F00020916F02821741F0E0916E02F0E0EB5A19
:10060000FD4F958F80936E02FF91EF919F918F9197
:100610002F910F900BBE0F900FBE0F901F9018954B
:100620008081F2CF1F920F920FB60F9211242F9359
:100630003F938F939F93AF93BF938091510290917B
:100640005202A0915302B09154023091420223E031
:10065000230F2D3758F50196A11DB11D209342029D
:100660008093510290935202A0935302B09354028C
:100670008091430290914402A0914502B0914602BC
:100680000196A11DB11D8093430290934402A09353
:100690004502B0934602BF91AF919F918F913F91D8
:1006A0002F910F900FBE0F901F90189526E8230FE3
:1006B0000296A11DB11DD2CFCF93DF93CDB7DEB788
:1006C00068970FB6F894DEBF0FBECDBF789484B59F
:1006D000826084BD84B5816084BD85B5826085BD3E
:1006E00085B5816085BD80916E00816080936E00CC
:1006F00010928100809181008260809381008091BE
:10070000810081608093810080918000816080936E
:1007100080008091B10084608093B1008091B0002E
:1007200081608093B00080919100826080939100FD
:100730008091910081608093910080919000816010
:10074000809390008091A10082608093A1008091AD
:10075000A10081608093A1008091A00081608093BE
:10076000A00080912101826080932101809121016C
:10077000816080932101809120018160809320011C
:1007800080917A00846080937A0080917A00826000
:1007900080937A0080917A00816080937A008091C2
:1007A0007A00806880937A001092C100E09165021F
:1007B000F091660282E08083E0916102F091620232
:1007C0001082E0916302F09164028FEC80831092BA
:1007D0006D02E0916902F0916A0286E08083E09107
:1007E0006702F0916802808180618083E0916702F6
:1007F000F0916802808188608083E0916702F091C7
:100800006802808180688083E0916702F0916802CD
:1008100080818F7D80838E010F5F1F4F32E0C32E5A
:100820003324339480915002811133C04EE050E064
:100830006BE172E085E592E00E94B6000E944F02F3
:10084000309250020E942A024B015C0188EC482E33
:10085000512C612C712C0E942A02681979098A098D
:100860009B09683E734081059105A8F381E0481A11
:1008700051086108710828EE820E23E0921EA11C27
:10088000B11C411451046104710429F70E94F9015B
:10089000C9CF823009F088C0409148025091490286
:1008A00020914E0230914F02429FC001439F900D14
:1008B000529F900D112460914C0270914D02409115
:1008C0004A0250914B02649F9001659F300D749FC6
:1008D000300D11241C8A1B8A1E8A1D8A188E1F8ABD
:1008E0004AE0B801821B930B0E948905F801019030
:1008F0000020E9F73197AF01401B510BB801CE0141
:1009000043960E9487021A8219821C821B821E82D1
:100910001D8246E150E06AE272E0C8010E9487024F
:100920006B887C886114710491F18F88988C811494
:100930009104A9F08D819E81880E991EB401C80191
:100940000E945F02882319F129813A818D819E815D
:10095000B301820F931F0E94EA079E828D824D8110
:100960005E8169817A8185E592E00E94B6000E94ED
:100970004F02C8010E945702CE0143960E945702BF
:100980000E944F0210925002109247025BCF898161
:100990009A81009711F00E9477061A8219821E82AE
:1009A0001D821C821B82DBCF85E592E00E945401F0
:1009B000181619060CF046CF1A8219821C821B8267
:1009C0001E821D8250E040E06AE172E0C8010E9490
:1009D00087020E94060197FD1BC08B8B1C8A8D80AD
:1009E0009E802FEF821A920AB401C8010E945F0212
:1009F000882379F329813A818D819E81BE016D5EC4
:100A00007F4F820F931F0E94EA079E828D82E1CF63
:100A100089819A81009729F10E946205D09047024E
:100A2000ED2DE695F0E0D0FAEE24E0F8F12CEE0F93
:100A3000FF1FEE0DFF1DEE0FFF1FE85BFD4F7183E3
:100A40006083C8010E945702D394D09247020E944B
:100A50004F0280914702843009F0F4CEC0925002D8
:100A6000F1CE60E070E0CB01D9CFE5E5F2E0138292
:100A7000128288EE93E0A0E0B0E084839583A683A1
:100A8000B7838AE092E09183808385EC90E095873C
:100A9000848784EC90E09787868780EC90E0918B48
:100AA000808B81EC90E0938B828B82EC90E0958B35
:100AB000848B86EC90E0978B868B118E128E138E32
:100AC000148E08951F93FC0199278827BC01E89490
:100AD00011911032E9F3193010F01E30C8F31B32B7
:100AE00051F01D3249F4689406C00E949405610FCC
:100AF000711D811D911D119110531A30B0F33EF4F8
:100B000090958095709561957F4F8F4F9F4F1F9166
:100B10000895BB274A3031F4992322F4BDE2909521
:100B200081959F4F0C94AA05592F482F372F262FB8
:100B3000660F771F881F991F660F771F881F991FE1
:100B4000620F731F841F951F660F771F881F991FE1
:100B50000895BB27FB015527AA27880F991FAA1FB5
:100B6000A41710F0A41B83955051B9F7A05DAA33C8
:100B700008F0A95DA193009779F7B111B193119293
:100B8000CB010C94C305DC01FC01672F7191772325
:100B9000E1F7329704C07C916D9370836291AE1738
:100BA000BF07C8F30895EE0FFF1F881F8BBF079084
:100BB000F691E02D19940F931F93CF93DF9382301A
:100BC000910510F482E090E0E091F402F091F502DA
:100BD00030E020E0B0E0A0E0309799F42115310535
:100BE00009F44AC0281B390B24303105D8F58A8115
:100BF0009B816115710589F1FB0193838283FE015D
:100C000011C0408151810281138148175907E0F0DA
:100C10004817590799F4109761F012960C931297A0
:100C200013961C933296CF01DF91CF911F910F91B4
:100C300008950093F4021093F502F4CF21153105C5
:100C400051F04217530738F0A901DB019A01BD01A9
:100C5000DF01F801C1CFEF01F9CF9093F502809346
:100C6000F402CDCFFE01E20FF31F81939193225046
:100C7000310939832883D7CF2091F2023091F302D2
:100C8000232B41F420910202309103023093F302AE
:100C90002093F202209100023091010221153105CA
:100CA00041F42DB73EB74091040250910502241B38
:100CB000350BE091F202F091F302E217F307A0F492
:100CC0002E1B3F0B2817390778F0AC014E5F5F4FA2
:100CD0002417350748F04E0F5F1F5093F3024093DF
:100CE000F202819391939FCFF0E0E0E09CCFCF930D
:100CF000DF930097E9F0FC01329713821282A091F2
:100D0000F402B091F502ED0130E020E01097A1F47B
:100D100020813181820F931F2091F2023091F302E2
:100D20002817390709F061C0F093F302E093F2024B
:100D3000DF91CF910895EA01CE17DF07E8F54A81E8
:100D40005B819E0141155105B1F7E901FB83EA83FF
:100D500049915991C40FD51FEC17FD0761F48081AB
:100D600091810296840F951FE9019983888382817E
:100D700093819B838A83F0E0E0E012968D919C91B1
:100D800013970097B9F52D913C911197CD010296DB
:100D9000820F931F2091F2023091F3022817390736
:100DA00039F6309751F51092F5021092F402B09393
:100DB000F302A093F202BCCFD383C283408151815E
:100DC000840F951FC817D90761F44E5F5F4F888164
:100DD0009981480F591F518340838A819B81938356
:100DE00082832115310509F0B0CFF093F502E0932D
:100DF000F4029ECFFD01DC01C0CF13821282D7CF57
:100E00004F925F926F927F928F929F92AF92BF921A
:100E1000CF92DF92EF92FF920F931F93CF93DF93C6
:100E20008C01009799F4CB01DF91CF911F910F9125
:100E3000FF90EF90DF90CF90BF90AF909F908F90FA
:100E40007F906F905F904F900C94DB05FC01E60F54
:100E5000F71F9C0122503109E217F30708F4AEC0D6
:100E6000D901CD91DC911197C617D70720F1C53074
:100E7000D10578F0CE0104978617970750F0C61B6E
:100E8000D70B2297C193D1936D937C93CF010E948E
:100E90007706C801DF91CF911F910F91FF90EF90DE
:100EA000DF90CF90BF90AF909F908F907F906F908A
:100EB0005F904F9008955B01AC1ABD0A4C018C0EF7
:100EC0009D1EA091F402B091F502512C412CF12C01
:100ED000E12C109731F58091F2029091F302881580
:100EE000990509F05CC04616570608F058C0809175
:100EF000000290910102009741F48DB79EB7409196
:100F0000040250910502841B950BE817F90708F0BD
:100F100055C0F093F302E093F202F901718360830C
:100F2000B8CF8D919C91119712966C901297139651
:100F30007C901397A815B90559F56C0142E0C40ED1
:100F4000D11CCA14DB0420F1AC014A195B09DA0197
:100F50001296159780F06282738251834083D90183
:100F60006D937C93E114F10471F0D7011396FC9317
:100F7000EE9312978ECF22968C0F9D1FF9019183CD
:100F80008083F301EFCFF093F502E093F40281CF79
:100F90004816590608F42C017D01D3019ACFCB01E4
:100FA0000E94DB057C01009749F0AE01B8010E9468
:100FB000E107C8010E94770687016BCF10E000E0CF
:100FC00068CFFB01DC0102C001900D9241505040FE
:100FD000D8F70895FB01DC0101900D920020E1F7A4
:060FE0000895F894FFCF14
:100FE6000000F6028000000000008C01B600E3005D
:100FF600D9015401F20046010D0A0044616D6520D5
:101006006C61206D617472697A000D0A4C6120640E
:10101600657465726D696E616E74652065733A20DC
:021026000000C8
:00000001FF
