:100000000C9462000C948A000C948A000C948A0070
:100010000C948A000C948A000C948A000C948A0038
:100020000C948A000C948A000C948A000C948A0028
:100030000C948A000C948A000C948A000C948A0018
:100040000C949C020C948A000C946A020C94440256
:100050000C948A000C948A000C948A000C948A00F8
:100060000C948A000C948A00000000080002010031
:100070000003040700000000000000000000000072
:10008000250028002B0000000000240027002A0083
:1000900000000000230026002900040404040404D6
:1000A0000404020202020202030303030303010227
:1000B00004081020408001020408102001020408F6
:1000C0001020F60411241FBECFEFD8E0DEBFCDBF55
:1000D00021E0AAE2B1E001C01D92A43DB207E1F720
:1000E00011E0A0E0B1E0E2E6FFE002C005900D9271
:1000F000AA32B107D9F710E0C2E6D0E004C02197D8
:10010000FE010E94B705C136D107C9F70E942B0333
:100110000C94AF070C940000AF92BF92CF92DF9285
:10012000EF92FF920F931F93CF93DF936C017B01AC
:100130008B01040F151FEB015E01AE18BF08C0173D
:10014000D10759F06991D601ED91FC910190F081B0
:10015000E02DC6010995892B79F7C501DF91CF9173
:100160001F910F91FF90EF90DF90CF90BF90AF90D5
:100170000895FC01538D448D252F30E0842F90E0AD
:10018000821B930B541710F0CF9608950197089592
:10019000FC01918D828D981761F0A28DAE0FBF2F5B
:1001A000B11D5D968C91928D9F5F9F73928F90E0B1
:1001B00008958FEF9FEF0895FC01918D828D981720
:1001C00031F0828DE80FF11D858D90E008958FEF5D
:1001D0009FEF0895FC01918D228D892F90E0805C26
:1001E0009F4F821B91098F739927089583E391E0B4
:1001F0000E94EA0021E0892B09F420E0822F089573
:1002000080E090E0892B29F00E94F60081110C9487
:1002100000000895FC01A48DA80FB92FB11DA35AA9
:10022000BF4F2C91848D90E001968F739927848F16
:10023000A689B7892C93A089B1898C918370806439
:100240008C93938D848D981306C00288F389E02DDA
:1002500080818F7D80830895EF92FF920F931F938B
:10026000CF93DF93EC0181E0888F9B8D8C8D981369
:100270001AC0E889F989808185FF15C09FB7F89475
:10028000EE89FF896083E889F989808183708064C1
:1002900080839FBF81E090E0DF91CF911F910F910C
:1002A000FF90EF900895F62E0B8D10E00F5F1F4F1B
:1002B0000F731127E02E8C8D8E110CC00FB607FC2A
:1002C000FACFE889F989808185FFF5CFCE010E94B8
:1002D0000A01F1CFEB8DEC0FFD2FF11DE35AFF4F1B
:1002E000F0829FB7F8940B8FEA89FB898081806246
:1002F000CFCFCF93DF93EC01888D8823B9F0AA8903
:10030000BB89E889F9898C9185FD03C0808186FDD0
:100310000DC00FB607FCF7CF8C9185FFF2CF80811F
:1003200085FFEDCFCE010E940A01E9CFDF91CF9189
:10033000089590E0FC01E859FF4F2491FC01E2553B
:10034000FF4F3491FC01E656FF4FE491EE23C9F0D4
:10035000222339F0233001F1A8F4213019F12230A1
:1003600029F1F0E0EE0FFF1FE458FF4FA591B49183
:100370008FB7F894EC91611126C030953E233C93E1
:100380008FBF08952730A9F02830C9F0243049F7ED
:10039000809180008F7D03C0809180008F77809353
:1003A0008000DFCF84B58F7784BDDBCF84B58F7DB0
:1003B000FBCF8091B0008F778093B000D2CF809137
:1003C000B0008F7DF9CF3E2BDACF3FB7F894809104
:1003D0002F0190913001A0913101B091320126B5E9
:1003E000A89B05C02F3F19F00196A11DB11D3FBF6D
:1003F000BA2FA92F982F8827BC01CD01620F711D3C
:10040000811D911D42E0660F771F881F991F4A9535
:10041000D1F70895CF93DF93EC01888199810097FC
:1004200011F00E945906198218821D821C821B82BB
:100430001A82DF91CF9108950F931F93CF93DF938B
:10044000EC0188819981009759F02A813B81261718
:10045000370730F081E0DF91CF911F910F91089520
:100460008B016F5F7F4F0E94E206009759F09983DE
:1004700088831B830A832C813D81232B59F7FC0140
:100480001082E8CF80E0E7CF1F920F920FB60F9255
:1004900011242F933F934F935F936F937F938F9389
:1004A0009F93AF93BF93EF93FF9383E391E00E94F9
:1004B0000A01FF91EF91BF91AF919F918F917F9131
:1004C0006F915F914F913F912F910F900FBE0F90C1
:1004D0001F9018951F920F920FB60F9211242F9311
:1004E0008F939F93EF93FF93E0914301F091440129
:1004F0008081E0914901F0914A0182FD1BC0908109
:1005000080914C018F5F8F7320914D01821741F0D4
:10051000E0914C01F0E0ED5CFE4F958F80934C0133
:10052000FF91EF919F918F912F910F900FBE0F90A0
:100530001F9018958081F4CF1F920F920FB60F92E3
:1005400011242F933F938F939F93AF93BF938091E9
:100550002B0190912C01A0912D01B0912E01309191
:100560002A0123E0230F2D3758F50196A11DB11D57
:1005700020932A0180932B0190932C01A0932D01AD
:10058000B0932E0180912F0190913001A091310103
:10059000B09132010196A11DB11D80932F0190935E
:1005A0003001A0933101B0933201BF91AF919F917F
:1005B0008F913F912F910F900FBE0F901F90189524
:1005C00026E8230F0296A11DB11DD2CFCF92DF9254
:1005D000EF92FF920F931F93E82FF92F05C0015060
:1005E00011092109310961F1908196239417B9F31A
:1005F00005C0015011092109310911F1908196239B
:100600009413F7CFC12CD12CE12CF12C0AC08FEF21
:10061000C81AD80AE80AF80A0C151D052E053F0568
:1006200079F080818623841791F36C2D7D2D8E2D9A
:100630009F2D1F910F91FF90EF90DF90CF90089525
:1006400060E070E080E090E01F910F91FF90EF90EC
:10065000DF90CF900895CF93DF93CDB7DEB7689743
:100660000FB6F894DEBF0FBECDBF789484B582601C
:1006700084BD84B5816084BD85B5826085BD85B546
:10068000816085BD80916E00816080936E001092C4
:10069000810080918100826080938100809181003F
:1006A00081608093810080918000816080938000D0
:1006B0008091B10084608093B1008091B00081602E
:1006C0008093B00080917A00846080937A0080915A
:1006D0007A00826080937A0080917A0081608093B2
:1006E0007A0080917A00806880937A001092C1002D
:1006F000E0914301F091440182E08083E0913F0169
:10070000F09140011082E0914101F09142018FECA3
:10071000808310924B01E0914701F091480186E0FF
:100720008083E0914501F091460180818061808362
:10073000E0914501F0914601808188608083E091DD
:100740004501F0914601808180688083E0914501F8
:10075000F091460180818F7D8083EAEBF0E0249167
:10076000E6EAF0E08491882399F090E0880F991FE1
:10077000FC01EA57FF4FA591B491FC01E458FF4FEB
:10078000859194918FB7F894EC91E22BEC938FBF05
:10079000EBEBF0E02491E7EAF0E084918823C9F0E4
:1007A00090E0880F991FFC01EA57FF4FA591B49183
:1007B000FC01E458FF4F459154913FB7F8949C9148
:1007C000822F809598239C93FA01908189238083BE
:1007D0003FBF23E0222E312C3AE3C32ED12CCE0191
:1007E00001967C0160E08CE00E949901C1010197B3
:1007F000F1F761E08CE00E94990183E290E00197BB
:10080000F1F760E08CE00E949901EBEBF0E064917D
:10081000E7EAF0E08491E82FF0E0EE0FFF1FE057E9
:10082000FF4F8591949100E412E42FE030E0462FD1
:100830000E94E602611571058105910529F06F5F3F
:100840007F4F8F4F9F4F9F701C8A1B8A1E8A1D8A65
:10085000188E1F8ACB01B6010E948F05CB014AE09A
:10086000B7010E942305F70101900020E9F73197B5
:100870008F010E191F09B801CE0143960E941C0278
:10088000811190C0CE0143960E940A021A821982F9
:100890001C821B821E821D826AE070E0C7010E94DA
:1008A0001C02811187C0C7010E940A026B887C88E4
:1008B0006114710409F489C00F89188D011511059F
:1008C000B1F08D819E81080F191FB801C7010E94E8
:1008D0001C02882309F479C029813A818D819E8187
:1008E000B301820F931F0E94A8071E830D830D8101
:1008F0001E810D5F1F4FB801C7010E941C028111AC
:1009000068C0C7010E940A024D815E8169817A81B7
:1009100083E391E00E948C0042E050E067E271E0E6
:1009200083E391E00E948C0089819A81009711F005
:100930000E9459068B899C89009711F00E945906E4
:100940000E94E5012B013C0184EF882E99249394A9
:10095000A12CB12C0E94E50164197509860997093B
:10096000683E734081059105A8F3F1E08F1A910864
:10097000A108B10828EE420E23E0521E611C711C32
:1009800081149104A104B10429F780E090E0892B3F
:1009900009F428CF0E94F600882309F423CF0E948F
:1009A000000020CF188F0F8BB7018B899C890E9484
:1009B000A8076CCF8AE090E09E838D8368E171E0A8
:1009C00089819A810E94A80771CFC7010E940A02FB
:1009D0008ECF29813A818D819E8163E271E0820F01
:1009E000931F0E94A8071E830D838ECFE3E3F1E0DF
:1009F0001382128288EE93E0A0E0B0E084839583B6
:100A0000A683B7838AE091E09183808385EC90E0B0
:100A10009587848784EC90E09787868780EC90E0C8
:100A2000918B808B81EC90E0938B828B82EC90E0B9
:100A3000958B848B86EC90E0978B868B118E128E33
:100A4000138E148E0895BB274A3031F4992322F473
:100A5000BDE2909581959F4F0C942F05BB27FB011C
:100A60005527AA27880F991FAA1FA41710F0A41BA7
:100A700083955051B9F7A05DAA3308F0A95DA19301
:100A8000009779F7B111B1931192CB010C944805FD
:100A9000DC01FC01672F71917723E1F7329704C0E5
:100AA0007C916D9370836291AE17BF07C8F3089570
:100AB0002F923F924F925F926F927F928F929F926E
:100AC000AF92BF92CF92DF92EF92FF920F931F935C
:100AD000CF93DF93CDB7DEB7CA1BDB0B0FB6F8940D
:100AE000DEBF0FBECDBF09942A88398848885F844D
:100AF0006E847D848C849B84AA84B984C884DF80BE
:100B0000EE80FD800C811B81AA81B981CE0FD11DA1
:100B10000FB6F894DEBF0FBECDBFED01089597FB71
:100B2000072E16F4009407D077FD09D00E94A30584
:100B300007FC05D03EF4909581959F4F08957095E0
:100B400061957F4F0895AA1BBB1B51E107C0AA1FE7
:100B5000BB1FA617B70710F0A61BB70B881F991F5E
:100B60005A95A9F780959095BC01CD010895EE0F97
:100B7000FF1F0590F491E02D09940F931F93CF93DD
:100B8000DF938230910510F482E090E0E091D20191
:100B9000F091D30130E020E0B0E0A0E0309799F48C
:100BA0002115310509F44AC0281B390B24303105C1
:100BB000D8F58A819B816115710589F1FB019383C9
:100BC0008283FE0111C04081518102811381481747
:100BD0005907E0F04817590799F4109761F01296F9
:100BE0000C93129713961C933296CF01DF91CF91FD
:100BF0001F910F9108950093D2011093D301F4CF68
:100C00002115310551F04217530738F0A901DB01D6
:100C10009A01BD01DF01F801C1CFEF01F9CF909337
:100C2000D3018093D201CDCFFE01E20FF31F819358
:100C300091932250310939832883D7CF2091D00155
:100C40003091D101232B41F4209102013091030115
:100C50003093D1012093D001209100013091010106
:100C60002115310541F42DB73EB740910401509153
:100C70000501241B350BE091D001F091D101E21761
:100C8000F307A0F42E1B3F0B2817390778F0AC01AF
:100C90004E5F5F4F2417350748F04E0F5F1F50938C
:100CA000D1014093D001819391939FCFF0E0E0E098
:100CB0009CCFCF93DF930097E9F0FC01329713822A
:100CC0001282A091D201B091D301ED0130E020E079
:100CD0001097A1F420813181820F931F2091D001C0
:100CE0003091D1012817390709F061C0F093D10183
:100CF000E093D001DF91CF910895EA01CE17DF078D
:100D0000E8F54A815B819E0141155105B1F7E90182
:100D1000FB83EA8349915991C40FD51FEC17FD0756
:100D200061F4808191810296840F951FE901998376
:100D30008883828193819B838A83F0E0E0E012962E
:100D40008D919C9113970097B9F52D913C91119736
:100D5000CD010296820F931F2091D0013091D101D5
:100D60002817390739F6309751F51092D3011092B0
:100D7000D201B093D101A093D001BCCFD383C28361
:100D800040815181840F951FC817D90761F44E5FC8
:100D90005F4F88819981480F591F518340838A8111
:100DA0009B81938382832115310509F0B0CFF093A5
:100DB000D301E093D2019ECFFD01DC01C0CF1382AD
:100DC0001282D7CFB0E0A0E0E8EEF6E00C945A052E
:100DD0008C01009751F4CB010E94BD058C01C80124
:100DE000CDB7DEB7E0E10C947605FC01E60FF71F06
:100DF0009C0122503109E217F30708F49DC0D90184
:100E0000CD91DC911197C617D70798F0C530D10561
:100E100030F3CE0104978617970708F3C61BD70B4C
:100E20002297C193D1936D937C93CF010E94590671
:100E3000D6CF5B01AC1ABD0A4C018C0E9D1EA09151
:100E4000D201B091D301512C412CF12CE12C1097FF
:100E500031F58091D0019091D1018815990509F063
:100E60005CC04616570608F058C08091000190916A
:100E70000101009741F48DB79EB740910401509154
:100E80000501841B950BE817F90708F055C0F0938E
:100E9000D101E093D001F90171836083A0CF8D91DE
:100EA0009C91119712966C90129713967C901397C1
:100EB000A815B90559F56C0142E0C40ED11CCA143D
:100EC000DB0420F1AC014A195B09DA01129615978F
:100ED00080F06282738251834083D9016D937C9349
:100EE000E114F10471F0D7011396FC93EE9312977D
:100EF00076CF22968C0F9D1FF90191838083F30199
:100F0000EFCFF093D301E093D20169CF4816590691
:100F100008F42C017D01D3019ACFCB010E94BD05BD
:100F20007C01009749F0AE01B8010E949F07C801FB
:100F30000E945906870153CF10E000E050CFFB011B
:100F4000DC0102C001900D9241505040D8F7089545
:100F5000FB01DC0101900D920020E1F70895F89467
:020F6000FFCFC1
:100F62000000D4018000000000002C018C00B900B8
:100F72007901EA00C800DC0044697374616E636938
:0A0F8200613A00636D2E000D0A00B5
:00000001FF
