:100000000C94DF000C9407010C9407010C94070179
:100010000C9407010C9407010C9407010C94070140
:100020000C9407010C9407010C9407010C94070130
:100030000C9407010C9407010C9407010C94070120
:100040000C94E1040C9407010C94AF040C94890403
:100050000C9407010C9407010C9407010C94070100
:100060000C9407010C94070100407A10F35A00A089
:10007000724E18090010A5D4E80000E87648170071
:1000800000E40B54020000CA9A3B000000E1F505B1
:10009000000080969800000040420F000000A086FB
:1000A00001000000102700000000E803000000002D
:1000B0006400000000000A000000000001000000D1
:1000C00000002C76D888DC674F0823DFC1DFAE59EB
:1000D000E1B1B796E5E3E453C63AE651997696E87E
:1000E000E6C28426EB898C9B62ED407C6FFCEFBC02
:1000F0009C9F40F2BAA56FA5F490055A2AF75C932D
:100100006B6CF9676DC11BFCE0E40D47FEF520E662
:10011000B500D0ED902E0300943577050080841E45
:10012000080000204E0A000000C80C333333330FA0
:10013000986E12831141EF8D2114893BE65516CF3D
:10014000FEE6DB18D1844B381BF77C1D901DA4BB49
:10015000E424203284725E228100C9F124ECA1E5FE
:100160003D2700000000240027002A0000000000B6
:10017000250028002B000000000023002600290095
:10018000040404040404040402020202020203033D
:100190000303030301020408102040800102040845
:1001A00010200102040810200000000800020100D5
:1001B0000003040700000000000000002B051124CC
:1001C0001FBECFEFD8E0DEBFCDBF21E0AEE3B1E090
:1001D00001C01D92AA3FB207E1F711E0A0E0B1E033
:1001E000E0E2FBE102C005900D92AE33B107D9F712
:1001F00010E0CFEDD0E004C02197FE010E94960BE5
:10020000CE3DD107C9F70E9462050C948E0D0C9467
:100210000000AF92BF92CF92DF92EF92FF920F93C6
:100220001F93CF93DF936C017B018B01040F151F8C
:10023000EB015E01AE18BF08C017D10759F06991F4
:10024000D601ED91FC910190F081E02DC601099558
:10025000892B79F7C501DF91CF911F910F91FF9005
:10026000EF90DF90CF90BF90AF900895FC01538D39
:10027000448D252F30E0842F90E0821B930B541780
:1002800010F0CF96089501970895FC01918D828D0D
:10029000981761F0A28DAE0FBF2FB11D5D968C91A6
:1002A000928D9F5F9F73928F90E008958FEF9FEFE5
:1002B0000895FC01918D828D981731F0828DE80FA1
:1002C000F11D858D90E008958FEF9FEF0895FC015B
:1002D000918D228D892F90E0805C9F4F821B910928
:1002E0008F73992708958BE491E00E94670121E0C4
:1002F000892B09F420E0822F089580E090E0892B7B
:1003000029F00E94730181110C9400000895FC01F2
:10031000A48DA80FB92FB11DA35ABF4F2C91848D66
:1003200090E001968F739927848FA689B7892C93C3
:10033000A089B1898C91837080648C93938D848D16
:10034000981306C00288F389E02D80818F7D808319
:100350000895EF92FF920F931F93CF93DF93EC01D9
:1003600081E0888F9B8D8C8D98131AC0E889F9895C
:10037000808185FF15C09FB7F894EE89FF8960835F
:10038000E889F98980818370806480839FBF81E0E0
:1003900090E0DF91CF911F910F91FF90EF90089522
:1003A000F62E0B8D10E00F5F1F4F0F731127E02EFD
:1003B0008C8D8E110CC00FB607FCFACFE889F98935
:1003C000808185FFF5CFCE010E948701F1CFEB8DB3
:1003D000EC0FFD2FF11DE35AFF4FF0829FB7F89409
:1003E0000B8FEA89FB8980818062CFCFCF93DF9327
:1003F000EC01888D8823B9F0AA89BB89E889F9893D
:100400008C9185FD03C0808186FD0DC00FB607FC71
:10041000F7CF8C9185FFF2CF808185FFEDCFCE01A4
:100420000E948701E9CFDF91CF910895833081F059
:1004300028F4813099F08230A9F008958730A9F02E
:100440008830C9F08430B1F4809180008F7D03C082
:10045000809180008F7780938000089584B58F7796
:1004600084BD089584B58F7DFBCF8091B0008F77D8
:100470008093B00008958091B0008F7DF9CFCF9325
:10048000DF93282F30E0F901E855FE4F8491F90100
:10049000EC56FE4FD491F901E058FE4FC491CC23A5
:1004A000A1F081110E941602EC2FF0E0EE0FFF1F69
:1004B000EA58FE4FA591B491EC91ED2381E090E0D4
:1004C00009F480E0DF91CF91089580E090E0FACFC9
:1004D0001F93CF93DF93282F30E0F901E855FE4FAB
:1004E0008491F901EC56FE4FD491F901E058FE4F8A
:1004F000C491CC23A9F0162F81110E941602EC2F73
:10050000F0E0EE0FFF1FE459FE4FA591B4918FB7B5
:10051000F894EC91111108C0D095DE23DC938FBFC5
:10052000DF91CF911F910895DE2BF8CFCF93DF930A
:1005300090E0FC01EC56FE4F249180589E4FFC0148
:1005400084918823D1F090E0880F991FFC01EE5927
:10055000FE4FA591B491FC01E459FE4FC591D49191
:1005600061110EC09FB7F8948C91E22FE0958E2315
:100570008C932881E223E8839FBFDF91CF91089578
:100580008FB7F894EC91E22BEC938FBFF6CF3FB787
:10059000F89480913F0190914001A0914101B09168
:1005A000420126B5A89B05C02F3F19F00196A11D59
:1005B000B11D3FBFBA2FA92F982F8827BC01CD01AD
:1005C000620F711D811D911D42E0660F771F881F0C
:1005D000991F4A95D1F708958F929F92AF92BF923B
:1005E000CF92DF92EF92FF924B015C010E94C70213
:1005F0006B017C010E94C7026C197D098E099F095D
:10060000683E734081059105A8F321E0821A9108A4
:10061000A108B10888EEC80E83E0D81EE11CF11CC9
:1006200081149104A104B10429F7FF90EF90DF90A9
:10063000CF90BF90AF909F908F90089549E050E089
:1006400068E171E08BE491E00C940901EF92FF9274
:100650001F93CF93DF9361E08091EE010E946802C7
:100660006AEF70E080E090E00E94EC022FB7F8940F
:100670008091470190914801A0914901B0914A01B0
:100680002FBF4091F1015091F2016091F3017091FF
:10069000F40184179507A607B70740F41092F101FB
:1006A0001092F2011092F3011092F4012091F501E1
:1006B000211118C04091F1015091F2016091F301B4
:1006C0007091F401841B950BA60BB70B803D9740EE
:1006D000A105B10538F481E0DF91CF911F91FF9022
:1006E000EF9008951092F5012FB7F894809147018B
:1006F00090914801A0914901B0914A012FBF809388
:10070000F1019093F201A093F301B093F4011092E0
:10071000EC011092EB011092EA011092E9011092A3
:10072000E80161E08091EE010E94960260E0809114
:10073000EE010E94680264E170E080E090E00E94B7
:10074000EC02F89461E08091EE010E9468028BE96E
:1007500090E00197F1F760E08091EE010E9496022F
:1007600010E081E0C0E0D0E0E82EF12C8091EE01B5
:100770000E943F028E159F0519F4DF5FDF3FB1F73E
:100780008091EE010E943F02DF3FC1F0C43098F03B
:10079000C0FD11C0E12FE695E695E695F0E0E85141
:1007A000FE4F9081990F90832091F0012D1710F446
:1007B000916090831F5FCF5FC535A9F6789418329A
:1007C000B8F04091EC012091E8018091E901280FF7
:1007D0003327331F8091EA01280F311D8091EB01EF
:1007E000820F932F911D99274817190609F473CF8B
:1007F00080E072CF0F931F93CF93DF93EC0188813A
:100800009981009759F02A813B812617370730F0EC
:1008100081E0DF91CF911F910F9108958B016F5F60
:100820007F4F0E94C10C009759F0998388831B83E6
:100830000A832C813D81232B59F7FC011082E8CFDC
:1008400080E0E7CFEF92FF920F931F93CF93DF9358
:100850006115710541F480E0DF91CF911F910F91F7
:10086000FF90EF90089541155105B1F07B01EC0127
:100870000C811D81040F151FB8010E94FA03882303
:1008800051F3288139818C819D81B701820F931F9B
:100890000E94870D1D830C8381E0DECFCF93DF9311
:1008A000EC0188819981009711F00E94380C19821F
:1008B00018821D821C821B821A82DF91CF910895BB
:1008C000EF92FF920F931F93CF93DF93EC017B0185
:1008D0008A01BA010E94FA0381110BC0CE010E9465
:1008E0004E04CE01DF91CF911F910F91FF90EF90B9
:1008F00008951D830C83B701888199810E94870D1B
:10090000F0CFFC0180819181009711F00C94380C9C
:1009100008951F920F920FB60F9211242F933F93B9
:100920004F935F936F937F938F939F93AF93BF93F7
:10093000EF93FF938BE491E00E948701FF91EF9189
:10094000BF91AF919F918F917F916F915F914F91E7
:100950003F912F910F900FBE0F901F9018951F92EF
:100960000F920FB60F9211242F938F939F93EF93B3
:10097000FF93E0915B01F0915C018081E091610166
:10098000F091620182FD1BC09081809164018F5FB4
:100990008F7320916501821741F0E0916401F0E0CE
:1009A000E55BFE4F958F80936401FF91EF919F91DE
:1009B0008F912F910F900FBE0F901F9018958081EF
:1009C000F4CF1F920F920FB60F9211242F933F93E3
:1009D0008F939F93AF93BF9380914701909148016C
:1009E000A0914901B0914A0130913E0123E0230FCB
:1009F0002D3758F50196A11DB11D20933E0180931E
:100A0000470190934801A0934901B0934A01809116
:100A10003F0190914001A0914101B09142010196A6
:100A2000A11DB11D80933F0190934001A09341010E
:100A3000B0934201BF91AF919F918F913F912F91C0
:100A40000F900FBE0F901F90189526E8230F029667
:100A5000A11DB11DD2CFEBE4F1E01382128288EE2A
:100A600093E0A0E0B0E084839583A683B7838AE017
:100A700091E09183808385EC90E09587848784EC76
:100A800090E09787868780EC90E0918B808B81EC5B
:100A900090E0938B828B82EC90E0958B848B86EC3C
:100AA00090E0978B868B118E128E138E148EE8EE4B
:100AB000F1E082E086838BE0878386E0808781E0B7
:100AC00085870895CF93DF93CDB7DEB7AD970FB687
:100AD000F894DEBF0FBECDBF789484B5826084BD2C
:100AE00084B5816084BD85B5826085BD85B5816032
:100AF00085BD80916E00816080936E0010928100B0
:100B0000809181008260809381008091810081606A
:100B1000809381008091800081608093800080912B
:100B2000B10084608093B1008091B00081608093B7
:100B3000B00080917A00846080937A0080917A007E
:100B4000826080937A0080917A00816080937A003D
:100B500080917A00806880937A001092C100E091C1
:100B60005B01F0915C0182E08083E0915701F0919C
:100B700058011082E0915901F0915A018FEC808365
:100B800010926301E0915F01F091600186E0808343
:100B9000E0915D01F0915E01808180618083E09150
:100BA0005D01F0915E01808188608083E0915D014C
:100BB000F0915E01808180688083E0915D01F09119
:100BC0005E0180818F7D808360E08091EE010E94D4
:100BD000960261E08091EE010E9468021092F1019C
:100BE0001092F2011092F3011092F40180E0E82ECD
:100BF00080E0F82E0E942603882341F08091EF01C7
:100C00008B3059F018F08551823050F10E941E034C
:100C100060E070E080EC9FE707C06091E80170E061
:100C200090E080E00E948509609343017093440145
:100C300080934501909346010E942603882349F042
:100C40008091EF018B3069F120F08551823008F4FA
:100C5000D7C00E941E0360E070E080EC9FE728C0D0
:100C60006091E80170E090E080E00E94850920E05A
:100C700030E040E853E40E94C2094B015C016091FE
:100C8000E90170E090E080E00E948709A5019401ED
:100C90000E94B80A20E030E040E251E40E94240BB8
:100CA000C3CF6091EA0170E090E080E00E94850986
:100CB0001BA21AA21DA21CA21FA21EA28E010F5FC0
:100CC0001F4F22E044E00E943007009709F4BEC0A5
:100CD000FC0101900020E9F73197AF01481B590B47
:100CE000BC01CE0182960E94600460914301709124
:100CF0004401809145019091460119A618A61BA6B2
:100D00001AA61DA61CA68E010F5F1F4F22E044E00D
:100D10000E943007009709F49EC0FC01019000205A
:100D2000E9F73197AF01481B590BBC01CE018896FA
:100D30000E9460041A8219821C821B821E821D82FC
:100D400049E050E062E271E0CE0101960E94600449
:100D50004CA55DA568A579A5CE0101960E94220447
:100D6000811104C0CE0101960E944E044DE050E076
:100D70006CE271E0CE0101960E942204811104C050
:100D8000CE0101960E944E044EA15FA16AA17BA1F3
:100D9000CE0101960E942204811104C0CE01019669
:100DA0000E944E044D815E8169817A818BE491E0DD
:100DB0000E94090142E050E06AE371E08BE491E0B7
:100DC0000E940901CE0101960E948104CE018896FD
:100DD0000E948104CE0182960E94810460ED77E03A
:100DE00080E090E00E94EC02E114F10409F402CFEB
:100DF0000E947301882309F4FDCE0E940000FACE00
:100E00001091EA01612F6F7770E090E080E00E941E
:100E1000870920E030E040E853E40E94C2094B011A
:100E20005C016091EB0170E090E080E00E94870936
:100E3000A50194010E94B80A20E030E040E251E4AC
:100E40000E94240B17FF34CF905832CFCE018296E8
:100E50000E944E044ACFCE0188960E944E046ACF6B
:100E6000EF920F931F93CF93DF93E80134E047FD98
:100E700034E1042E000C550B57FF03C051954195EA
:100E80005109E32E022F242FAE010E944E07CE01FE
:100E9000DF91CF911F910F91EF900895A9E0B0E0FD
:100EA000E4E5F7E00C94860A6A01F22EB02E102FCA
:100EB000FBE3AF2EA01608F41BE31F5F012F27E012
:100EC000AE014F5F5F4F0E94AD08BC018981982F32
:100ED0009970913009F43FC09BE2E1FC04C09E2D63
:100EE0009170E0FC3AC05E2D5071E82FE87083FFEE
:100EF00046C084E0911101C083E0EF2DE81B8F15FF
:100F000008F0E0E0D6018E2F20E2552351F199231D
:100F100029F0D6019C93C60101966C0196012D5FC4
:100F20003F4FE2FE24C08EE4D6018C9391E41196EB
:100F30009C93119712968C93D9018E2F90E2811178
:100F40001BC0E20FF32FF11D10828EEF9FEF299649
:100F5000ECE00C94A20A9DE2C6CF90E2C4CF2D93A0
:100F600081508111FCCFCE0ED11CE0E0D0CF8EE6B7
:100F7000D6018C9391E6DBCF9D938150E0CF482F33
:100F8000447082FF3DC084E0911101C083E08F1561
:100F900010F4EF2DE81BD6018E2F20E2552309F126
:100FA000992329F0D6019C93C60101966C01960104
:100FB0002D5F3F4FE2FE1BC089E4D6018C938EE487
:100FC00011968C93119786E412968C93D9018E2FEB
:100FD00090E2882309F4B5CF9D938150FACF2D93E9
:100FE00081508111FCCFCE0ED11CE0E0D9CF89E633
:100FF000D6018C938EE611968C93119786E6E4CFFA
:101000009B0177FF02C030E020E0A1E0B0E0911149
:1010100002C0B0E0A0E0F9013196AE0FBF1F8B2CEB
:10102000912CBB2009F461C05401EFEFAE1ABE0A47
:10103000AA0DBB1DFA161B0619F014F04F2D4A1B02
:10104000511188C0E3FC59C07601A42FB0E2A11170
:101050004FC0C40ED11C992309F45BC040E0D601F7
:101060001196F60190836D01552309F448C0012FB4
:10107000060F9A81582F507184FF03C0913309F4F1
:10108000015010160CF047C0093008F008E0EEE2FD
:10109000FE2E5B01A01AB1088501919481949108FC
:1010A0002F3F320729F4D601FC92F60131966F01E9
:1010B0006217730794F1021713077CF5DB01A21B7B
:1010C000B30BAA24A394B12CAC0EBD1EAA0DBB1D5C
:1010D00011968C9121503109D601119628153905A8
:1010E000F4F0F60180836D01DBCFB12CA12CA0CFF1
:1010F000F701B1937F01A150AACF9111B0CFD601D2
:10110000942F50E302C05D9391509111FCCFC40E17
:10111000D11C40E0ACCF01E0BACF80E3DBCF621757
:10112000730731F4963388F4953311F4552369F03D
:10113000F6018083FD01842F90E2811108C0A40F85
:10114000B11D1C9290E080E002CF81E3F1CF91933A
:101150008150F3CF911183CF8ACF283008F027E058
:101160003327DA01990F311D87FD916000966105E3
:10117000710539F432602E5F3D9330E32A95E1F733
:1011800008959F3F30F080387105610509F03C5F9C
:101190003C5F3D93913008F08068911DDF93CF93C1
:1011A0001F930F93FF92EF92192F987F9695E92F37
:1011B00096959695E90FFF27EE53FF4F9927332712
:1011C000EE24FF24A701E70105900894079428F472
:1011D000360FE71EF81E491F511D660F771F881F27
:1011E000991F0694A1F70590079428F4E70EF81EBE
:1011F000491F561FC11D770F881F991F661F069430
:10120000A1F70590079428F4F80E491F561FC71F31
:10121000D11D880F991F661F771F0694A1F70590AF
:10122000079420F4490F561FC71FD81F990F661F38
:10123000771F881F0694A9F784911095177041F0C5
:10124000D695C79557954795F794E7941A95C1F7A2
:10125000E8E6F0E0689415901591359165919591C7
:1012600005907FE27395E118F10A430B560BC90B09
:10127000D009C0F7E10CF11E431F561FC91FD01D36
:101280007EF4703311F48A95E6CFE894015030F083
:10129000080F0AF40027021708F4202F2395022FC5
:1012A0007A3328F079E37D932A95E9F710C07D938E
:1012B0002A9589F60694979567953795179517940B
:1012C000E118F10A430B560BC90BD00998F023958E
:1012D0007E9173957A3308F070E37C932013B8F70E
:1012E0007E9170617D9330F0839571E37D9370E31F
:1012F0002A95E1F71124EF90FF900F911F91CF9164
:10130000DF91992787FD90950895E89409C097FB90
:101310003EF490958095709561957F4F8F4F9F4FCC
:101320009923A9F0F92F96E9BB279395F695879510
:1013300077956795B795F111F8CFFAF4BB0F11F4D3
:1013400060FF1BC06F5F7F4F8F4F9F4F16C088237A
:1013500011F096E911C0772321F09EE8872F762FB0
:1013600005C0662371F096E8862F70E060E02AF0F1
:101370009A95660F771F881FDAF7880F96958795DD
:1013800097F908950E94D5090C94460A0E94380ADC
:1013900038F00E943F0A20F0952311F00C942F0A98
:1013A0000C94350A11240C947A0A0E94570A70F39F
:1013B000959FC1F3950F50E0551F629FF001729FFA
:1013C000BB27F00DB11D639FAA27F00DB11DAA1F09
:1013D000649F6627B00DA11D661F829F2227B00D56
:1013E000A11D621F739FB00DA11D621F839FA00DE1
:1013F000611D221F749F3327A00D611D231F849F31
:10140000600D211D822F762F6A2F11249F57504087
:101410009AF0F1F088234AF0EE0FFF1FBB1F661F02
:10142000771F881F91505040A9F79E3F510580F0CB
:101430000C942F0A0C947A0A5F3FE4F3983ED4F39D
:10144000869577956795B795F795E7959F5FC1F76F
:10145000FE2B880F911D9695879597F9089597F91A
:101460009F6780E870E060E008959FEF80EC08954A
:1014700000240A9416161706180609060895002473
:101480000A9412161306140605060895092E0394ED
:10149000000C11F4882352F0BB0F40F4BF2B11F461
:1014A00060FF04C06F5F7F4F8F4F9F4F089557FDC0
:1014B0009058440F551F59F05F3F71F04795880FC2
:1014C00097FB991F61F09F3F79F087950895121659
:1014D00013061406551FF2CF4695F1DF08C0161605
:1014E00017061806991FF1CF8695710561050894B6
:1014F0000895E894BB2766277727CB0197F90895CD
:101500002F923F924F925F926F927F928F929F9213
:10151000AF92BF92CF92DF92EF92FF920F931F9301
:10152000CF93DF93CDB7DEB7CA1BDB0B0FB6F894B2
:10153000DEBF0FBECDBF09942A88398848885F84F2
:101540006E847D848C849B84AA84B984C884DF8063
:10155000EE80FD800C811B81AA81B981CE0FD11D47
:101560000FB6F894DEBF0FBECDBFED010895505801
:10157000BB27AA270E94CF0A0C94460A0E94380A69
:1015800038F00E943F0A20F039F49F3F19F426F406
:101590000C94350A0EF4E095E7FB0C942F0AE92F22
:1015A0000E94570A58F3BA17620773078407950712
:1015B00020F079F4A6F50C94790A0EF4E0950B2E40
:1015C000BA2FA02D0B01B90190010C01CA01A00195
:1015D0001124FF27591B99F0593F50F4503E68F1F0
:1015E0001A16F040A22F232F342F4427585FF3CF31
:1015F000469537952795A795F0405395C9F77EF402
:101600001F16BA0B620B730B840BBAF09150A1F04A
:10161000FF0FBB1F661F771F881FC2F70EC0BA0FD0
:10162000621F731F841F48F4879577956795B79558
:10163000F7959E3F08F0B0CF9395880F08F0992753
:10164000EE0F9795879508950E94380B0C94460AE3
:101650000E943F0A58F00E94380A40F029F45F3F88
:1016600029F00C942F0A51110C947A0A0C94350A23
:101670000E94570A68F39923B1F3552391F3951B00
:10168000550BBB27AA2762177307840738F09F5FA3
:101690005F4F220F331F441FAA1FA9F335D00E2E10
:1016A0003AF0E0E832D091505040E695001CCAF77D
:1016B0002BD0FE2F29D0660F771F881FBB1F261740
:1016C00037074807AB07B0E809F0BB0B802DBF0117
:1016D000FF2793585F4F3AF09E3F510578F00C94E6
:1016E0002F0A0C947A0A5F3FE4F3983ED4F3869570
:1016F00077956795B795F7959F5FC9F7880F911D07
:101700009695879597F90895E1E0660F771F881FF2
:10171000BB1F621773078407BA0720F0621B730BA5
:10172000840BBA0BEE1F88F7E0950895EE0FFF1FAC
:101730000590F491E02D09940F931F93CF93DF93BD
:101740008230910510F482E090E0E091F801F09190
:10175000F90130E020E0B0E0A0E0309799F42115E5
:10176000310509F44AC0281B390B24303105D8F55E
:101770008A819B816115710589F1FB0193838283C5
:10178000FE0111C040815181028113814817590720
:10179000E0F04817590799F4109761F012960C93EE
:1017A000129713961C933296CF01DF91CF911F9120
:1017B0000F9108950093F8011093F901F4CF2115CA
:1017C000310551F04217530738F0A901DB019A01A6
:1017D000BD01DF01F801C1CFEF01F9CF9093F9010D
:1017E0008093F801CDCFFE01E20FF31F8193919317
:1017F0002250310939832883D7CF2091F6013091C7
:10180000F701232B41F42091020130910301309321
:10181000F7012093F601209100013091010121157B
:10182000310541F42DB73EB74091040150910501B7
:10183000241B350BE091F601F091F701E217F30755
:10184000A0F42E1B3F0B2817390778F0AC014E5F30
:101850005F4F2417350748F04E0F5F1F5093F70175
:101860004093F601819391939FCFF0E0E0E09CCF0D
:10187000CF93DF930097E9F0FC0132971382128235
:10188000A091F801B091F901ED0130E020E010974E
:10189000A1F420813181820F931F2091F6013091B4
:1018A000F7012817390709F061C0F093F701E093B9
:1018B000F601DF91CF910895EA01CE17DF07E8F531
:1018C0004A815B819E0141155105B1F7E901FB8316
:1018D000EA8349915991C40FD51FEC17FD0761F4B4
:1018E000808191810296840F951FE90199838883F5
:1018F000828193819B838A83F0E0E0E012968D9150
:101900009C9113970097B9F52D913C911197CD01BA
:101910000296820F931F2091F6013091F70128174C
:10192000390739F6309751F51092F9011092F80104
:10193000B093F701A093F601BCCFD383C28340815B
:101940005181840F951FC817D90761F44E5F5F4F0F
:1019500088819981480F591F518340838A819B81D7
:10196000938382832115310509F0B0CFF093F901FB
:10197000E093F8019ECFFD01DC01C0CF13821282FB
:10198000D7CFB0E0A0E0E7ECFCE00C94820A8C0139
:10199000009751F4CB010E949C0B8C01C801CDB77C
:1019A000DEB7E0E10C949E0AFC01E60FF71F9C01F4
:1019B00022503109E217F30708F49DC0D901CD91F7
:1019C000DC911197C617D70798F0C530D10530F3D1
:1019D000CE0104978617970708F3C61BD70B2297EB
:1019E000C193D1936D937C93CF010E94380CD6CFD5
:1019F0005B01AC1ABD0A4C018C0E9D1EA091F80132
:101A0000B091F901512C412CF12CE12C109731F5BA
:101A10008091F6019091F7018815990509F05CC055
:101A20004616570608F058C08091000190910101B8
:101A3000009741F48DB79EB7409104015091050184
:101A4000841B950BE817F90708F055C0F093F701D0
:101A5000E093F601F90171836083A0CF8D919C9191
:101A6000119712966C90129713967C901397A81565
:101A7000B90559F56C0142E0C40ED11CCA14DB044F
:101A800020F1AC014A195B09DA011296159780F032
:101A90006282738251834083D9016D937C93E114F8
:101AA000F10471F0D7011396FC93EE93129776CF61
:101AB00022968C0F9D1FF90191838083F301EFCF54
:101AC000F093F901E093F80169CF4816590608F43C
:101AD0002C017D01D3019ACFCB010E949C0B7C018C
:101AE000009749F0AE01B8010E947E0DC8010E9426
:101AF000380C870153CF10E000E050CFFB01DC0130
:101B000002C001900D9241505040D8F70895FB015A
:101B1000DC0101900D920020E1F70895F894FFCFC9
:101B20000000FA01800000000000A901090136014F
:101B3000F6016701450159015265616420666169DA
:101B40006C0048756D656461643A200054656D7081
:0E1B5000657261747572613A20000D0A000022
:00000001FF
