:100000000C9422010C9453010C9453010C94530151
:100010000C9453010C9453010C9453010C94530110
:100020000C9453010C9453010C9453010C94530100
:100030000C9453010C9453010C9453010C945301F0
:100040000C9453010C9453010C9453010C945301E0
:100050000C9453010C9453010C9453010C94D00351
:100060000C9453010C9453010C9453010C945301C0
:100070000C9453010C9453010C9453010C945301B0
:100080000C9453010C9453010C9453010C945301A0
:100090000C9453010C9453010C9453010C94530190
:1000A0000C9453010C9453010C9453010C94530180
:1000B0000C9453010C9453010C9453010C94530170
:1000C0000C9453010C9453010C9453010C94530160
:1000D0000C9453010C9453010C9453010C94530150
:1000E0000C9453010C9427020C9407020C940F02F9
:1000F0000C94B1040C9423020C94F4010C9415029A
:100100000C9489020C94D1010C94F7010C94F00129
:100110000C94E8010C941D020C9488020C94CA0300
:100120000C9419020C94FD010C9474010C940102BE
:100130000C94EC010C940B020C94D60100000A0BF9
:1001400002090C0D0E080703040100000000000066
:10015000000000000000000000000000000000009F
:10016000000000000000000012111000000000005C
:10017000000000000000000000000000000000007F
:10018000000000002200250028002B002E00310076
:10019000340002010000050108010B0100002100EC
:1001A000240027002A002D00300033000101000048
:1001B000040107010A0105050505070508080808E7
:1001C000020202020A0A08080404040401010101EF
:1001D00001010101030303030303030304070707EA
:1001E0000C0C0C0C0C0C0C0C02020202060606068F
:1001F000060606060B0B0B0B0B0B0B0B010210205C
:10020000200808102040102040800201020108044C
:1002100002010102040810204080804020100804E0
:100220000201800402018040201008040201080439
:10023000020101020408102040800102040810207D
:100240004080B10411241FBECFEFD1E2DEBFCDBF8D
:1002500000E00CBF12E0A0E0B2E0E2EBF9E000E069
:100260000BBF02C007900D92AE32B107D9F722E062
:10027000AEE2B2E001C01D92AF34B207E1F711E087
:10028000C2E2D1E000E006C021970109802FFE0103
:100290000E94CF04C132D10780E00807A9F70E946D
:1002A0001A040C94D7040C94000090E0FC01E45074
:1002B000FE4F24918A549E4FFC018491882399F02B
:1002C00090E0880F991FFC01E456FE4FA591B49170
:1002D000FC01EE57FE4F859194918FB7F894EC9105
:1002E000E22BEC938FBF0895AF92BF92CF92DF9233
:1002F000EF92FF920F931F93CF93DF936C017B01DB
:100300008B01040F151FEB015E01AE18BF08C0176B
:10031000D10759F06991D601ED91FC910190F081DE
:10032000E02DC6011995892B79F7C501DF91CF9191
:100330001F910F91FF90EF90DF90CF90BF90AF9003
:100340000895282F30E0F901E45CFE4F9491F90103
:10035000E450FE4F44912A543E4FF9012491222348
:1003600009F435C0992311F191509231F8F4E92F35
:10037000F0E08827E154FE4F8F4F0C94CF04F0013A
:10038000F401D101E801EC01D601F701FD01010200
:1003900007020B020F0215021902D6011D022302E9
:1003A0002702809180008F7780938000E22FF0E019
:1003B000EE0FFF1FEE57FE4FA591B4918FB7F89443
:1003C000EC91611148C040954E234C938FBF089526
:1003D000809180008F7DE8CF80918000877FE4CF7F
:1003E00084B58F7784BDE2CF84B58F7DFBCF8091BC
:1003F000B0008F778093B000D9CF8091B0008F7D0F
:10040000F9CF809190008F7780939000CFCF80912B
:1004100090008F7DF9CF80919000877FF5CF8091FC
:10042000A0008F778093A000C1CF8091A0008F7D26
:10043000F9CF8091A000877FF5CF809120018F7741
:1004400080932001B3CF809120018F7DF9CF8091DF
:100450002001877FF5CF4E2BB8CF3FB7F89480911E
:10046000330290913402A0913502B091360226B544
:10047000A89B05C02F3F19F00196A11DB11D3FBFDC
:10048000BA2FA92F982F8827BC01CD01620F711DAB
:10049000811D911D42E0660F771F881F991F4A95A5
:1004A000D1F708958F929F92AF92BF92CF92DF9231
:1004B000EF92FF920E942D024B015C0188EBC82E47
:1004C0008BE0D82EE12CF12C0E942D0268197909BD
:1004D0008A099B09683E734081059105A8F321E0D4
:1004E000C21AD108E108F10888EE880E83E0981E50
:1004F000A11CB11CC114D104E104F10429F7FF903F
:10050000EF90DF90CF90BF90AF909F908F90089525
:10051000089590E080E00895CF93DF93EC0160E0D0
:100520008E810E94A10161E08E810E94A10160E0A4
:100530008E810E94A1018BE891E00197F1F7DF9194
:10054000CF910895CF92DF92EF92FF920F931F9376
:10055000CF93DF936C017C0187E0E80EF11CD0E0C3
:10056000C0E0062F10E0B8010C2E02C0759567950B
:100570000A94E2F76170F70181917F010E94A10165
:100580002196C430D10579F7C601DF91CF911F9133
:100590000F91FF90EF90DF90CF900C948C02CF9250
:1005A000DF92EF92FF920F931F93CF93DF93EC01B3
:1005B000F62E642F8C810E94A1018D818F3F19F04E
:1005C00060E00E94A1010F2D10E08F8584FF25C0FF
:1005D0006E0187E0C80ED11CF12CE12CB8010E2C65
:1005E00002C0759567950A94E2F76170F6018191F2
:1005F0006F010E94A101FFEFEF1AFF0A88E0E816E1
:10060000F10461F7CE01DF91CF911F910F91FF901F
:10061000EF90DF90CF900C948C02B80184E0759538
:1006200067958A95E1F7CE010E94A2026F2DCE0157
:10063000DF91CF911F910F91FF90EF90DF90CF90BE
:100640000C94A20240E0682F87E392E00C94CF0262
:10065000CF93DF93823029F4909146029860909373
:10066000460280934A0210924B0280E480934C022F
:1006700080E180934D0280E580934E0280913B02A1
:100680000E94550180913C028F3F11F00E9455015C
:1006900080913D020E945501C7E3D2E09E0127539D
:1006A00032408091460284FD0AC084E090E02196A9
:1006B000281739073CF48E810E945501EFCF88E05E
:1006C00090E0F5CF8BE39DE00197F1F760E080913A
:1006D0003B020E94A10160E080913D020E94A101C5
:1006E00080913C028F3F19F060E00E94A10180914F
:1006F000460284FD39C063E087E392E00E94A202D3
:10070000CBE4D6E4CE010197F1F763E087E392E012
:100710000E94A2022197F1F763E087E392E00E9432
:10072000A20283E592E00197F1F762E087E392E0AD
:100730000E94A2028091460280620E94220384E00D
:10074000809347028CE00E94220381E00E942203F2
:100750008BE39FE10197F1F782E08093480286E006
:10076000DF91CF910C94220380620E9422038BE4DC
:1007700096E40197F1F78091460280620E9422037D
:1007800083E592E00197F1F78091460280620E9432
:100790002203D0CF41E00E94CF0281E090E0089593
:1007A0001F920F920FB60F9211242F933F938F93A6
:1007B0009F93AF93BF9380912F0290913002A091AD
:1007C0003102B091320230912E0223E0230F2D37F7
:1007D00058F50196A11DB11D20932E0280932F0282
:1007E00090933002A0933102B09332028091330291
:1007F00090913402A0913502B09136020196A11D6C
:10080000B11D8093330290933402A0933502B093CC
:100810003602BF91AF919F918F913F912F910F9091
:100820000FBE0F901F90189526E8230F0296A11D6A
:10083000B11DD2CF789484B5826084BD84B58160C7
:1008400084BD85B5826085BD85B5816085BD80919B
:100850006E00816080936E00109281008091810013
:10086000826080938100809181008160809381000B
:10087000809180008160809380008091B1008460CD
:100880008093B1008091B00081608093B00080912E
:1008900091008260809391008091910081608093AB
:1008A0009100809190008160809390008091A100E0
:1008B00082608093A1008091A10081608093A1005B
:1008C0008091A00081608093A000809121018260CE
:1008D0008093210180912101816080932101809189
:1008E000200181608093200180917A008460809350
:1008F0007A0080917A00826080937A0080917A00F9
:10090000816080937A0080917A00806880937A0079
:100910001092C10082E00E94280341E250E06CE0A6
:1009200072E087E392E00E947401C0E0D0E0809121
:1009300047028E7F8093470288600E9422030E94B4
:10094000520280914702982F9160909347028960EC
:100950000E9422030E945202209749F30E94000045
:10096000E6CFE7E3F2E01382128284E092E0918323
:1009700080838CE084838FEF85838BE0868385E0A2
:10098000878384E0808783E0818782E08287138683
:10099000148615861686178681E00C942803EE0FC0
:1009A000FF1F881F8BBF0790F691E02D1994F894D4
:0209B000FFCF77
:1009B20000000000CA037401890288024A6F72674C
:1009C200652053746576656E205061626C6F206895
:0E09D20061792071756520706173617220007B
:00000001FF
