:100000000C942E010C945F010C945F010C945F0121
:100010000C945F010C945F010C945F010C945F01E0
:100020000C945F010C945F010C945F010C945F01D0
:100030000C945F010C945F010C945F010C945F01C0
:100040000C945F010C945F010C945F010C945F01B0
:100050000C945F010C945F010C945F010C941C05DF
:100060000C945F010C94E6040C94BC040C945F01A6
:100070000C945F010C945F010C945F010C945F0180
:100080000C945F010C945F010C945F010C945F0170
:100090000C945F010C945F010C945F010C945F0160
:1000A0000C945F010C945F010C945F010C945F0150
:1000B0000C945F010C945F010C945F010C945F0140
:1000C0000C945F010C945F010C945F010C945F0130
:1000D0000C945F010C945F010C945F010C945F0120
:1000E0000C945F010C9463020C942C030C94300369
:1000F0000C9403030C9410030C9428030C941E031B
:100100000C9480010C94D0010C9465030C94BC01F8
:100110000C94E4020C941A030C943A030C94FB0222
:100120000C9414030C9416020C9466050C9466034C
:100130000C9436030C94FF020C94DE010C94B6046C
:100140000C94AD010C9422030C940A030C94070345
:100150000C94E90200000A0B02090C0D0E080703BB
:10016000040100000000000000000000000000008A
:10017000000000000000000000000000000000007F
:10018000121110000000000000000000000000003C
:100190000000000000000000000000002200250018
:1001A00028002B002E003100340002010000050160
:1001B00008010B0100002100240027002A002D0067
:1001C0003000330001010000040107010A010505A8
:1001D0000505070508080808020202020A0A0808BD
:1001E00004040404010101010101010103030303EB
:1001F00003030303040707070C0C0C0C0C0C0C0C7A
:100200000202020206060606060606060B0B0B0B8A
:100210000B0B0B0B010210202008081020401020AF
:1002200040800201020108040201010204081020BA
:1002300040808040201008040201800402018040B8
:100240002010080402010804020101020408102021
:1002500040800102040810204080660511241FBE62
:10026000CFEFD1E2DEBFCDBF00E00CBF12E0A0E0D7
:10027000B2E0E8E5FDE000E00BBF02C007900D92A0
:10028000AE31B107D9F722E0AEE1B2E001C01D9274
:10029000AC3DB207E1F711E0CEE2D1E000E006C0EC
:1002A00021970109802FFE010E94A206CD32D107BD
:1002B00080E00807A9F70E94B0050C94AA060C94E8
:1002C000000090E0FC01EC5EFD4F249182539E4FB4
:1002D000FC018491882399F090E0880F991FFC011C
:1002E000EC54FE4FA591B491FC01E656FE4F85916A
:1002F00094918FB7F894EC91E22BEC938FBF089513
:10030000AF92BF92CF92DF92EF92FF920F931F9323
:10031000CF93DF936C017B018B01040F151FEB0161
:100320005E01AE18BF08C017D10759F06991D60118
:10033000ED91FC910190F081E02DC6011995892B7A
:1003400079F7C501DF91CF911F910F91FF90EF9049
:10035000DF90CF90BF90AF900895FC01538D448DF6
:10036000252F30E0842F90E0821B930B541710F060
:10037000CF96089501970895FC01918D828D98176D
:1003800061F0A28DAE0FBF2FB11D5D968C91928D45
:100390009F5F9F73928F90E008958FEF9FEF089576
:1003A000FC01918D828D981731F0828DE80FF11D3F
:1003B000858D90E008958FEF9FEF0895FC01918D5A
:1003C000228D892F90E0805C9F4F821B91098F7353
:1003D0009927089587E292E00E94DE0121E0892BAF
:1003E00009F420E0822F0895FC01A48DA80FB92FF5
:1003F000B11DA35ABF4F2C91848D90E001968F734D
:100400009927848FA689B7892C93A089B1898C916B
:10041000837080648C93938D848D981306C00288BA
:10042000F389E02D80818F7D80830895EF92FF9284
:100430000F931F93CF93DF93EC0181E0888F9B8D07
:100440008C8D98131AC0E889F989808185FF15C0C1
:100450009FB7F894EE89FF896083E889F9898081E4
:100460008370806480839FBF81E090E0DF91CF91B3
:100470001F910F91FF90EF900895F62E0B8D10E0D5
:100480000F5F1F4F0F731127E02E8C8D8E110CC044
:100490000FB607FCFACFE889F989808185FFF5CF8F
:1004A000CE010E94F401F1CFEB8DEC0FFD2FF11D79
:1004B000E35AFF4FF0829FB7F8940B8FEA89FB89CC
:1004C00080818062CFCFCF93DF93EC01888D88232A
:1004D000B9F0AA89BB89E889F9898C9185FD03C0A7
:1004E000808186FD0DC00FB607FCF7CF8C9185FF8C
:1004F000F2CF808185FFEDCFCE010E94F401E9CFDC
:10050000DF91CF91089580E090E0892B29F00E943F
:10051000EA0181110E94000080E090E0892B49F0FF
:1005200080E090E0892B29F00E94000081110E9458
:10053000000080E090E0892B49F080E090E0892B7A
:1005400029F00E94000081110E94000080E090E0EC
:10055000892B49F080E090E0892B29F00E9400006F
:1005600081110C9400000895282F30E0F901EC5A15
:10057000FE4F9491F901EC5EFD4F449122533E4FA2
:10058000F9012491222309F435C0992311F19150E6
:100590009231F8F4E92FF0E08827EE52FD4F8F4FAB
:1005A0000C94A20603030703E402FB02FF02E90224
:1005B0000A03100314031A031E03220328032C0347
:1005C000E902300336033A03809180008F778093ED
:1005D0008000E22FF0E0EE0FFF1FE656FE4FA591E0
:1005E000B4918FB7F894EC91611148C040954E23B7
:1005F0004C938FBF0895809180008F7DE8CF8091CC
:100600008000877FE4CF84B58F7784BDE2CF84B547
:100610008F7DFBCF8091B0008F778093B000D9CFD2
:100620008091B0008F7DF9CF809190008F7780937B
:100630009000CFCF809190008F7DF9CF8091900076
:10064000877FF5CF8091A0008F778093A000C1CFE6
:100650008091A0008F7DF9CF8091A000877FF5CF9A
:10066000809120018F7780932001B3CF809120016A
:100670008F7DF9CF80912001877FF5CF4E2BB8CFAA
:100680003FB7F8948091230290912402A091250213
:10069000B091260226B5A89B05C02F3F19F0019600
:1006A000A11DB11D3FBFBA2FA92F982F8827BC01CC
:1006B000CD01620F711D811D911D42E0660F771FF4
:1006C000881F991F4A95D1F70895089590E080E01A
:1006D0000895CF93DF93EC0160E08E810E94B40215
:1006E00061E08E810E94B40260E08E810E94B402BB
:1006F0008BE891E00197F1F7DF91CF910895CF92C8
:10070000DF92EF92FF920F931F93CF93DF936C01D1
:100710007C0187E0E80EF11CD0E0C0E0062F10E07D
:10072000B8010C2E02C0759567950A94E2F76170C6
:10073000F70181917F010E94B4022196C430D10556
:1007400079F7C601DF91CF911F910F91FF90EF9044
:10075000DF90CF900C946903CF92DF92EF92FF92DB
:100760000F931F93CF93DF93EC01F62E642F8C81B0
:100770000E94B4028D818F3F19F060E00E94B402A4
:100780000F2D10E08F8584FF25C06E0187E0C80E15
:10079000D11CF12CE12CB8010E2C02C07595679587
:1007A0000A94E2F76170F60181916F010E94B40230
:1007B000FFEFEF1AFF0A88E0E816F10461F7CE01B7
:1007C000DF91CF911F910F91FF90EF90DF90CF902D
:1007D0000C946903B80184E0759567958A95E1F7F3
:1007E000CE010E947F036F2DCE01DF91CF911F912B
:1007F0000F91FF90EF90DF90CF900C947F03CF93F9
:10080000DF93823029F49091D30298609093D302C1
:100810008093D7021092D80280E48093D90280E1BD
:100820008093DA0280E58093DB028091C8020E9407
:1008300061018091C9028F3F11F00E946101809196
:10084000CA020E946101C4ECD2E09E01245C3240E5
:100850008091D30284FD0AC084E090E0219628179D
:1008600039073CF48E810E946101EFCF88E090E06F
:10087000F5CF8BE39DE00197F1F760E08091C8022E
:100880000E94B40260E08091CA020E94B40280918A
:10089000C9028F3F19F060E00E94B4026091D30258
:1008A00064FD45C063E084EC92E00E947F03CBE4EA
:1008B000D6E4CE010197F1F763E084EC92E00E9468
:1008C0007F032197F1F763E084EC92E00E947F03BD
:1008D00083E592E00197F1F762E084EC92E00E94F8
:1008E0007F036091D302606240E084EC92E00E945A
:1008F000AC0384E08093D40240E06CE084EC92E0AE
:100900000E94AC0340E061E084EC92E00E94AC0302
:100910008BE39FE10197F1F782E08093D50240E0FD
:1009200066E084EC92E0DF91CF910C94AC036062BE
:1009300040E084EC92E00E94AC038BE496E40197E3
:10094000F1F76091D302606240E084EC92E00E9493
:10095000AC0383E592E00197F1F76091D302606206
:1009600040E084EC92E00E94AC03BBCF41E00E94E7
:10097000AC0381E090E008951F920F920FB60F92A2
:1009800011240BB60F922F933F934F935F936F9366
:100990007F938F939F93AF93BF93EF93FF9387E2E0
:1009A00092E00E94F401FF91EF91BF91AF919F916E
:1009B0008F917F916F915F914F913F912F910F9008
:1009C0000BBE0F900FBE0F901F9018951F920F92A5
:1009D0000FB60F9211240BB60F922F938F939F9304
:1009E000EF93FF93E0913702F09138028081E0911C
:1009F0003D02F0913E0282FD1DC090818091400237
:100A00008F5F8F7320914102821741F0E091400285
:100A1000F0E0E95DFD4F958F80934002FF91EF91EB
:100A20009F918F912F910F900BBE0F900FBE0F9043
:100A30001F9018958081F2CF1F920F920FB60F92E0
:100A400011242F933F938F939F93AF93BF938091E4
:100A50001F0290912002A0912102B09122023091B8
:100A60001E0223E0230F2D3758F50196A11DB11D5D
:100A700020931E0280931F0290932002A0932102D4
:100A8000B09322028091230290912402A09125022A
:100A9000B09126020196A11DB11D8093230290936F
:100AA0002402A0932502B0932602BF91AF919F919B
:100AB0008F913F912F910F900FBE0F901F9018951F
:100AC00026E8230F0296A11DB11DD2CFE7E2F2E086
:100AD0001382128288EE93E0A0E0B0E084839583D5
:100AE000A683B78384E092E09183808385EC90E0D5
:100AF0009587848784EC90E09787868780EC90E0E8
:100B0000918B808B81EC90E0938B828B82EC90E0D8
:100B1000958B848B86EC90E0978B868B118E128E52
:100B2000138E148EE4ECF2E01382128286E192E0DE
:100B3000918380838CE084838FEF85838BE0868331
:100B400085E0878384E0808783E0818782E08287F5
:100B50001386148615861686178681E00C94FF038B
:100B6000789484B5826084BD84B5816084BD85B588
:100B7000826085BD85B5816085BD80916E00816094
:100B800080936E001092810080918100826080933A
:100B9000810080918100816080938100809180003C
:100BA0008160809380008091B10084608093B10067
:100BB0008091B00081608093B0008091910082604C
:100BC0008093910080919100816080939100809149
:100BD00090008160809390008091A100826080935A
:100BE000A1008091A10081608093A1008091A0006C
:100BF00081608093A0008091210182608093210117
:100C00008091210181608093210180912001816088
:100C10008093200180917A00846080937A00809193
:100C20007A00826080937A0080917A00816080935C
:100C30007A0080917A00806880937A001092C100D7
:100C400082E00E94FF03E0913702F091380282E0D7
:100C50008083E0913302F09134021082E0913502FA
:100C6000F09136028FEC808310923F02E0913B02BC
:100C7000F0913C0286E08083E0913902F0913A02E3
:100C8000808180618083E0913902F0913A02808115
:100C900088608083E0913902F0913A028081806817
:100CA0008083E0913902F0913A0280818F7D8083C8
:100CB000CBE3DFE187E292E00E94DE01892B09F4B9
:100CC0003EC00E9440034B015C0184E6C82ED12C3B
:100CD000E12CF12C0E944003681979098A099B09CB
:100CE000683E734081059105A8F321E0C21AD1083E
:100CF000E108F10888EE880E83E0981EA11CB11C63
:100D0000C114D104E104F10429F740E061E084EC6E
:100D100092E00E94AC03CE010197F1F787E292E0E6
:100D20000E94DE011816190654F487E292E00E9430
:100D3000BC01682F84EC92E00E94B604EFCF0E94C1
:100D40008302B8CFEE0FFF1F881F8BBF0790F6916D
:080D5000E02D1994F894FFCF87
:100D58000000000016028001AD016302DE01BC0143
:0E0D6800D00100000000B604800166036503A0
:00000001FF
