:100000000C9435010C9466010C9466010C94660105
:100010000C9466010C9466010C9466010C946601C4
:100020000C9466010C9466010C9466010C946601B4
:100030000C9466010C9466010C9466010C946601A4
:100040000C9466010C9466010C9466010C94660194
:100050000C9466010C9466010C9466010C94DA040D
:100060000C9466010C94A4040C947A040C9466011C
:100070000C9466010C9466010C9466010C94660164
:100080000C9466010C9466010C9466010C94660154
:100090000C9466010C9466010C9466010C94660144
:1000A0000C9466010C9466010C9466010C94660134
:1000B0000C9466010C9466010C9466010C94660124
:1000C0000C9466010C9466010C9466010C94660114
:1000D0000C9466010C9466010C9466010C94660104
:1000E0000C9466010C94ED020C94FF020C946801D0
:1000F0000C94D5020C94BA020C94A4010C94D9026D
:100100000C94B2060C94E3020C94FA020C944B0289
:100110000C94FB020C94C0020C94E7020C94C802ED
:100120000C94F5020C94DF020C94C6010C94C402EA
:100130000C94FE010C94CF020C94B8010C94F102C3
:100140000C94CC020C94950100002100240027009F
:100150002A002D00300033000101000004010701D6
:100160000A0100002200250028002B002E0031008B
:10017000340002010000050108010B01000020000D
:100180002300260029002C002F003200000100006F
:10019000030106010901050505050705080808080A
:1001A000020202020A0A080804040404010101010F
:1001B000010101010303030303030303040707070A
:1001C0000C0C0C0C0C0C0C0C0202020206060606AF
:1001D000060606060B0B0B0B0B0B0B0B010210207C
:1001E000200808102040102040800201020108046D
:1001F0000201010204081020408080402010080401
:100200000201800402018040201008040201080459
:10021000020101020408102040800102040810209D
:10022000408000000A0B02090C0D0E0807030401B0
:1002300000000000000000000000000000000000BE
:10024000000000000000000000000000000012118B
:10025000100000000000000000000000000000008E
:100260000000000000000000B20611241FBECFEF06
:10027000D1E2DEBFCDBF00E00CBF22E0AEE1B2E0D4
:1002800001C01D92AB3CB207E1F712E0A0E0B2E082
:10029000E8E6F2E100E00BBF02C007900D92AE313C
:1002A000B107D9F711E0C5E3D1E000E006C021971E
:1002B0000109802FFE010E941407C433D10780E09A
:1002C0000807A9F70E9424050C9432090C94000039
:1002D000AF92BF92CF92DF92EF92FF920F931F9354
:1002E000CF93DF936C017B018B01040F151FEB0192
:1002F0005E01AE18BF08C017D10759F06991D60149
:10030000ED91FC910190F081E02DC6011995892BAA
:1003100079F7C501DF91CF911F910F91FF90EF9079
:10032000DF90CF90BF90AF900895FC01538D448D26
:10033000252F30E0842F90E0821B930B541710F090
:10034000CF96089501970895FC01918D828D98179D
:1003500061F0A28DAE0FBF2FB11D5D968C91928D75
:100360009F5F9F73928F90E008958FEF9FEF0895A6
:10037000FC01918D828D981731F0828DE80FF11D6F
:10038000858D90E008958FEF9FEF0895FC01918D8A
:10039000228D892F90E0805C9F4F821B91098F7383
:1003A0009927089587E292E00E94C60121E0892BF7
:1003B00009F420E0822F0895FC01A48DA80FB92F25
:1003C000B11DA35ABF4F2C91848D90E001968F737D
:1003D0009927848FA689B7892C93A089B1898C919C
:1003E000837080648C93938D848D981306C00288EB
:1003F000F389E02D80818F7D80830895EF92FF92B5
:100400000F931F93CF93DF93EC0181E0888F9B8D37
:100410008C8D98131AC0E889F989808185FF15C0F1
:100420009FB7F894EE89FF896083E889F989808114
:100430008370806480839FBF81E090E0DF91CF91E3
:100440001F910F91FF90EF900895F62E0B8D10E005
:100450000F5F1F4F0F731127E02E8C8D8E110CC074
:100460000FB607FCFACFE889F989808185FFF5CFBF
:10047000CE010E94DC01F1CFEB8DEC0FFD2FF11DC1
:10048000E35AFF4FF0829FB7F8940B8FEA89FB89FC
:1004900080818062CFCFCF93DF93EC01888D88235A
:1004A000B9F0AA89BB89E889F9898C9185FD03C0D7
:1004B000808186FD0DC00FB607FCF7CF8C9185FFBC
:1004C000F2CF808185FFEDCFCE010E94DC01E9CF24
:1004D000DF91CF91089580E090E0892B29F00E9470
:1004E000D20181110E94000080E090E0892B49F048
:1004F00080E090E0892B29F00E94000081110E9489
:10050000000080E090E0892B49F080E090E0892BAA
:1005100029F00E94000081110E94000080E090E01C
:10052000892B49F080E090E0892B29F00E9400009F
:1005300081110C94000008958150823108F05AC056
:10054000E82FF0E08827E855FD4F8F4F0C941407F3
:10055000C802CC02BA02C002C402FA02CF02D5021B
:10056000D902DF02E302E702ED02F102FA02F5022C
:10057000FB02FF02809180008F77809380000895B6
:10058000809180008F7DF9CF80918000877FF5CFAB
:1005900084B58F7784BD089584B58F7DFBCF80911E
:1005A000B0008F778093B00008958091B0008F7D68
:1005B000F9CF809190008F7780939000089580917B
:1005C00090008F7DF9CF80919000877FF5CF80914B
:1005D000A0008F778093A00008958091A0008F7D68
:1005E000F9CF8091A000877FF5CF809120018F7790
:1005F000809320010895809120018F7DF9CF809113
:100600002001877FF5CFCF93DF93282F30E0F901CA
:10061000EE5DFD4F8491F901E452FE4FD491F90152
:10062000EA56FE4FC491CC23A1F081110E949C0296
:10063000EC2FF0E0EE0FFF1FE458FE4FA591B491B0
:10064000EC91ED2381E090E009F480E0DF91CF911F
:10065000089580E090E0FACF1F93CF93DF93282F87
:1006600030E0F901EE5DFD4F8491F901E452FE4F57
:10067000D491F901EA56FE4FC491CC23A9F0162F6C
:1006800081110E949C02EC2FF0E0EE0FFF1FEE594B
:10069000FE4FA591B4918FB7F894EC91111108C059
:1006A000D095DE23DC938FBFDF91CF911F9108950A
:1006B000DE2BF8CFCF93DF9390E0FC01E452FE4FA6
:1006C00024918A569E4FFC0184918823D1F090E0BA
:1006D000880F991FFC01E85BFE4FA591B491FC01C6
:1006E000EE59FE4FC591D491623071F49FB7F894E2
:1006F0003C91822F809583238C93E8812E2B288335
:100700009FBFDF91CF9108958FB7F894EC912E2B76
:100710002C938FBFF6CF3FB7F8948091230290912E
:100720002402A0912502B091260226B5A89B05C0FF
:100730002F3F19F00196A11DB11D3FBFBA2FA92F60
:10074000982F8827BC01CD01620F711D811D911D5D
:1007500042E0660F771F881F991F4A95D1F70895C9
:10076000CF93DF93EC0188819981009711F00E946B
:10077000B807198218821D821C821B821A82DF919F
:10078000CF910895FC0180819181009711F00C9424
:10079000B80708950F931F93CF93DF93EC018881DF
:1007A0009981009759F02A813B812617370730F04D
:1007B00081E0DF91CF911F910F9108958B016F5FC1
:1007C0007F4F0E944108009759F0998388831B83CB
:1007D0000A832C813D81232B59F7FC011082E8CF3D
:1007E00080E0E7CFCF92DF92EF92FF920F931F93BB
:1007F000CF93DF93CDB7DEB762970FB6F894DEBF25
:100800000FBECDBF8C01CB01F80111821082138283
:100810001282158214824AE09E012F5F3F4F6901C8
:10082000B9010E94DF06F60101900020E9F7319737
:100830007F01EC18FD08B701C8010E94CA038111AD
:1008400012C0C8010E94B00362960FB6F894DEBFD2
:100850000FBECDBFDF91CF911F910F91FF90EF9011
:10086000DF90CF900895F801F582E482B60180818F
:1008700091810E942B09E8CFEF92FF920F931F9373
:10088000CF93DF936115710541F480E0DF91CF9143
:100890001F910F91FF90EF90089541155105B1F010
:1008A0007B01EC010C811D81040F151FB8010E9412
:1008B000CA03882351F3288139818C819D81B70136
:1008C000820F931F0E942B091D830C8381E0DECFD2
:1008D000CF93DF93EC0141E050E068E172E00E94C9
:1008E0003C04811103C0CE010E94B003CE01DF9110
:1008F000CF9108951F920F920FB60F9211240BB64D
:100900000F922F933F934F935F936F937F938F93A8
:100910009F93AF93BF93EF93FF9387E292E00E9480
:10092000DC01FF91EF91BF91AF919F918F917F91EA
:100930006F915F914F913F912F910F900BBE0F9050
:100940000FBE0F901F9018951F920F920FB60F9227
:1009500011240BB60F922F938F939F93EF93FF93D6
:10096000E0913702F09138028081E0913D02F091F0
:100970003E0282FD1DC09081809140028F5F8F7387
:1009800020914102821741F0E0914002F0E0E95DE0
:10099000FD4F958F80934002FF91EF919F918F9132
:1009A0002F910F900BBE0F900FBE0F901F901895B8
:1009B0008081F2CF1F920F920FB60F9211242F93C6
:1009C0003F938F939F93AF93BF9380911F0290911A
:1009D0002002A0912102B091220230911E0223E058
:1009E000230F2D3758F50196A11DB11D20931E022E
:1009F00080931F0290932002A0932102B0932202C1
:100A00008091230290912402A0912502B0912602A8
:100A10000196A11DB11D8093230290932402A093FF
:100A20002502B0932602BF91AF919F918F913F9184
:100A30002F910F900FBE0F901F90189526E8230F4F
:100A40000296A11DB11DD2CFCF93DF93CDB7DEB7F4
:100A500068970FB6F894DEBF0FBECDBF789484B50B
:100A6000826084BD84B5816084BD85B5826085BDAA
:100A700085B5816085BD80916E00816080936E0038
:100A8000109281008091810082608093810080912A
:100A900081008160809381008091800081608093DB
:100AA00080008091B10084608093B1008091B0009B
:100AB00081608093B000809191008260809391006A
:100AC000809191008160809391008091900081607D
:100AD000809390008091A10082608093A10080911A
:100AE000A10081608093A1008091A000816080932B
:100AF000A0008091210182608093210180912101D9
:100B00008160809321018091200181608093200188
:100B100080917A00846080937A0080917A0082606C
:100B200080937A0080917A00816080937A0080912E
:100B30007A00806880937A001092C10062E08EE0B3
:100B40000E945A0362E08FE00E945A0362E080E153
:100B50000E945A0361E08BE00E945A0361E08CE03E
:100B60000E945A0361E08DE00E945A03E09137022F
:100B7000F091380282E08083E0913302F0913402F8
:100B80001082E0913502F09136028FEC8083109252
:100B90003F02E0913B02F0913C0286E08083E091CD
:100BA0003902F0913A02808180618083E0913902BC
:100BB000F0913A02808188608083E0913902F0915F
:100BC0003A02808180688083E0913902F0913A0294
:100BD00080818F7D80838EE00E9403037C018FE003
:100BE0000E9403038C0180E10E9403039C0191E0B9
:100BF000EF2809F090E09093C60291E0012B09F0F4
:100C000090E09093C50261E0232B09F060E06093CF
:100C1000C40270E0CE0101960E94F2036091C50209
:100C200070E0CE0107960E94F2036091C60270E068
:100C3000CE0143960E94F2031E861D86188A1F86E7
:100C40001A8A198A0B891C890115110569F0EF8828
:100C5000F88CB701CE010D960E94CA0381117AC0AB
:100C6000CE010D960E94B003CE010D960E9468043D
:100C70008C014B855C856F8178850E943C048111D5
:100C800003C0C8010E94B003C8010E9468048C011F
:100C90004D815E8169817A810E943C04811103C08B
:100CA000C8010E94B003F8014481558160817181BF
:100CB00087E292E00E94680142E050E06AE172E05F
:100CC00087E292E00E946801CE010D960E94C20365
:100CD000CE0143960E94C203CE0107960E94C20332
:100CE000CE0101960E94C2036091C6028BE00E9471
:100CF0002C036091C5028CE00E942C036091C40219
:100D00008DE00E942C030E948B036B017C018AEF13
:100D1000882E912CA12CB12C0E948B036C197D097B
:100D20008E099F09683E734081059105A8F3F1E0A3
:100D30008F1A9108A108B10828EEC20E23E0D21E36
:100D4000E11CF11C81149104A104B10429F70E9453
:100D50006B0241CFFA8AE98AB8018D859E850E948F
:100D60002B0982CFE7E2F2E01382128288EE93E051
:100D7000A0E0B0E084839583A683B7838AE092E005
:100D80009183808385EC90E09587848784EC90E064
:100D90009787868780EC90E0918B808B81EC90E048
:100DA000938B828B82EC90E0958B848B86EC90E029
:100DB000978B868B118E128E138E148E0895BB27FF
:100DC0004A3031F4992322F4BDE2909581959F4FEA
:100DD0000C94EB06BB27FB015527AA27880F991F08
:100DE000AA1FA41710F0A41B83955051B9F7A05D5A
:100DF000AA3308F0A95DA193009779F7B111B193D7
:100E00001192CB010C940407DC01FC01672F719156
:100E10007723E1F7329704C07C916D9370836291E0
:100E2000AE17BF07C8F30895EE0FFF1F881F8BBFD3
:100E30000790F691E02D19940F931F93CF93DF93B2
:100E40008230910510F482E090E0E091C902F091C7
:100E5000CA0230E020E0B0E0A0E0309799F421151C
:100E6000310509F44AC0281B390B24303105D8F567
:100E70008A819B816115710589F1FB0193838283CE
:100E8000FE0111C040815181028113814817590729
:100E9000E0F04817590799F4109761F012960C93F7
:100EA000129713961C933296CF01DF91CF911F9129
:100EB0000F9108950093C9021093CA02F4CF21152F
:100EC000310551F04217530738F0A901DB019A01AF
:100ED000BD01DF01F801C1CFEF01F9CF9093CA0244
:100EE0008093C902CDCFFE01E20FF31F819391934E
:100EF0002250310939832883D7CF2091C7023091FE
:100F0000C802232B41F42091020230910302309356
:100F1000C8022093C70220910002309101022115DE
:100F2000310541F42DB73EB74091040250910502BE
:100F3000241B350BE091C702F091C802E217F307BA
:100F4000A0F42E1B3F0B2817390778F0AC014E5F39
:100F50005F4F2417350748F04E0F5F1F5093C802AC
:100F60004093C702819391939FCFF0E0E0E09CCF44
:100F7000CF93DF930097E9F0FC013297138212823E
:100F8000A091C902B091CA02ED0130E020E01097B3
:100F9000A1F420813181820F931F2091C7023091EB
:100FA000C8022817390709F061C0F093C802E0931E
:100FB000C702DF91CF910895EA01CE17DF07E8F568
:100FC0004A815B819E0141155105B1F7E901FB831F
:100FD000EA8349915991C40FD51FEC17FD0761F4BD
:100FE000808191810296840F951FE90199838883FE
:100FF000828193819B838A83F0E0E0E012968D9159
:101000009C9113970097B9F52D913C911197CD01C3
:101010000296820F931F2091C7023091C8022817B1
:10102000390739F6309751F51092CA021092C90269
:10103000B093C802A093C702BCCFD383C2834081C0
:101040005181840F951FC817D90761F44E5F5F4F18
:1010500088819981480F591F518340838A819B81E0
:10106000938382832115310509F0B0CFF093CA0232
:10107000E093C9029ECFFD01DC01C0CF1382128232
:10108000D7CF4F925F926F927F928F929F92AF9243
:10109000BF92CF92DF92EF92FF920F931F93CF9365
:1010A000DF938C01009799F4CB01DF91CF911F91D1
:1010B0000F91FF90EF90DF90CF90BF90AF909F90F7
:1010C0008F907F906F905F904F900C941C07FC0165
:1010D000E60FF71F9C0122503109E217F30708F4CD
:1010E000AEC0D901CD91DC911197C617D70720F179
:1010F000C530D10578F0CE0104978617970750F0D8
:10110000C61BD70B2297C193D1936D937C93CF01CC
:101110000E94B807C801DF91CF911F910F91FF90F6
:10112000EF90DF90CF90BF90AF909F908F907F9087
:101130006F905F904F9008955B01AC1ABD0A4C010F
:101140008C0E9D1EA091C902B091CA02512C412C57
:10115000F12CE12C109731F58091C7029091C802D3
:101160008815990509F05CC04616570608F058C066
:101170008091000290910102009741F48DB79EB7D3
:101180004091040250910502841B950BE817F90762
:1011900008F055C0F093C802E093C702F9017183CB
:1011A0006083B8CF8D919C91119712966C90129795
:1011B00013967C901397A815B90559F56C0142E078
:1011C000C40ED11CCA14DB0420F1AC014A195B091E
:1011D000DA011296159780F0628273825183408300
:1011E000D9016D937C93E114F10471F0D70113964A
:1011F000FC93EE9312978ECF22968C0F9D1FF901D0
:1012000091838083F301EFCFF093CA02E093C90288
:1012100081CF4816590608F42C017D01D3019ACFDD
:10122000CB010E941C077C01009749F0AE01B80178
:101230000E942209C8010E94B80787016BCF10E005
:1012400000E068CFFB01DC0102C001900D9241502B
:101250005040D8F70895FB01DC0101900D92002069
:08126000E1F70895F894FFCFB7
:101268000000CB02800000000000FE01680195012B
:0E1278004B02C601A401B80120000D0A0000BF
:00000001FF
