:100000000C9400010C9431010C9431010C943101D9
:100010000C9431010C9431010C9431010C94310198
:100020000C9431010C9431010C9431010C94310188
:100030000C9431010C9431010C9431010C94310178
:100040000C9431010C9431010C9431010C94310168
:100050000C9431010C9431010C9431010C94A102E7
:100060000C9431010C9415030C94EB020C943101A7
:100070000C9431010C9431010C9431010C94310138
:100080000C9431010C9431010C9431010C94310128
:100090000C9431010C9431010C9431010C94310118
:1000A0000C9431010C9431010C9431010C94310108
:1000B0000C9431010C9431010C9431010C943101F8
:1000C0000C9431010C9431010C9431010C943101E8
:1000D0000C9431010C9431010C9431010C943101D8
:1000E0000C9431010C9460010C9483010C94330145
:1000F0000C9416020C9491010C94C9010C94A50463
:100100000C946F0100407A10F35A00A0724E180947
:100110000010A5D4E80000E87648170000E40B546E
:10012000020000CA9A3B000000E1F505000080963D
:100130009800000040420F000000A086010000006F
:10014000102700000000E803000000006400000029
:1001500000000A00000000000100000000002C76F2
:10016000D888DC674F0823DFC1DFAE59E1B1B7960D
:10017000E5E3E453C63AE651997696E8E6C284266A
:10018000EB898C9B62ED407C6FFCEFBC9C9F40F246
:10019000BAA56FA5F490055A2AF75C936B6CF967C2
:1001A0006DC11BFCE0E40D47FEF520E6B500D0ED87
:1001B000902E0300943577050080841E08000020EF
:1001C0004E0A000000C80C333333330F986E12838D
:1001D0001141EF8D2114893BE65516CFFEE6DB1861
:1001E000D1844B381BF77C1D901DA4BBE424203226
:1001F00084725E228100C9F124ECA1E53D27A504AB
:1002000011241FBECFEFD1E2DEBFCDBF00E00CBF97
:1002100022E0ACE2B2E001C01D92A63DB207E1F7D8
:1002200012E0A0E0B2E0ECE3F3E100E00BBF02C0BB
:1002300007900D92AC32B107D9F710E0C0E0D1E0E1
:1002400000E006C021970109802FFE010E947E0771
:10025000CF3FD10780E00807A9F70E944B030C9419
:100260009C090C940000AF92BF92CF92DF92EF9264
:10027000FF920F931F93CF93DF936C017B018B0150
:10028000040F151FEB015E01AE18BF08C017D107A0
:1002900059F06991D601ED91FC910190F081E02D2A
:1002A000C6011995892B79F7C501DF91CF911F916F
:1002B0000F91FF90EF90DF90CF90BF90AF90089597
:1002C000FC01538D448D252F30E0842F90E0821B5C
:1002D000930B541710F0CF96089501970895FC01E1
:1002E000918D828D981761F0A28DAE0FBF2FB11D39
:1002F0005D968C91928D9F5F9F73928F90E0089591
:100300008FEF9FEF0895FC01918D828D981731F04A
:10031000828DE80FF11D858D90E008958FEF9FEF9E
:100320000895FC01918D228D892F90E0805C9F4F74
:10033000821B91098F73992708958CE292E00E94A5
:10034000910121E0892B09F420E0822F0895FC011E
:10035000A48DA80FB92FB11DA35ABF4F2C91848D26
:1003600090E001968F739927848FA689B7892C9383
:10037000A089B1898C91837080648C93938D848DD6
:10038000981306C00288F389E02D80818F7D8083D9
:100390000895EF92FF920F931F93CF93DF93EC0199
:1003A00081E0888F9B8D8C8D98131AC0E889F9891C
:1003B000808185FF15C09FB7F894EE89FF8960831F
:1003C000E889F98980818370806480839FBF81E0A0
:1003D00090E0DF91CF911F910F91FF90EF900895E2
:1003E000F62E0B8D10E00F5F1F4F0F731127E02EBD
:1003F0008C8D8E110CC00FB607FCFACFE889F989F5
:10040000808185FFF5CFCE010E94A701F1CFEB8D52
:10041000EC0FFD2FF11DE35AFF4FF0829FB7F894C8
:100420000B8FEA89FB8980818062CFCFCF93DF93E6
:10043000EC01888D8823B9F0AA89BB89E889F989FC
:100440008C9185FD03C0808186FD0DC00FB607FC31
:10045000F7CF8C9185FFF2CF808185FFEDCFCE0164
:100460000E94A701E9CFDF91CF91089580E090E04D
:10047000892B29F00E949D0181110E94000080E0DB
:1004800090E0892B49F080E090E0892B29F00E94D0
:10049000000081110E94000080E090E0892B49F06B
:1004A00080E090E0892B29F00E94000081110E94D9
:1004B000000080E090E0892B49F080E090E0892BFB
:1004C00029F00E94000081110C9400000895CF9340
:1004D000DF93EC0188819981009711F00E94220836
:1004E000198218821D821C821B821A82DF91CF9191
:1004F00008950F931F93CF93DF93EC018881998127
:10050000009759F02A813B812617370730F081E0A8
:10051000DF91CF911F910F9108958B016F5F7F4FF6
:100520000E94AB08009759F0998388831B830A8344
:100530002C813D81232B59F7FC011082E8CF80E00C
:10054000E7CF1F920F920FB60F9211242F933F9374
:100550008F939F93AF93BF938091CE029091CF02E0
:10056000A091D002B091D1023091CD0223E0230FAF
:100570002D3758F50196A11DB11D2093CD02809312
:10058000CE029093CF02A093D002B093D10280917B
:10059000C9029091CA02A091CB02B091CC020196FF
:1005A000A11DB11D8093C9029093CA02A093CB02F2
:1005B000B093CC02BF91AF919F918F913F912F91BA
:1005C0000F900FBE0F901F90189526E8230F0296EC
:1005D000A11DB11DD2CF1F920F920FB60F92112401
:1005E0000BB60F922F933F934F935F936F937F932D
:1005F0008F939F93AF93BF93EF93FF938CE292E01F
:100600000E94A701FF91EF91BF91AF919F918F91B0
:100610007F916F915F914F913F912F910F900BBE02
:100620000F900FBE0F901F9018951F920F920FB64C
:100630000F9211240BB60F922F938F939F93EF93EA
:10064000FF93E0913C02F0913D028081E0914202F3
:10065000F091430282FD1DC09081809145028F5F21
:100660008F7320914602821741F0E0914502F0E03D
:10067000E45DFD4F958F80934502FF91EF919F912F
:100680008F912F910F900BBE0F900FBE0F901F9068
:1006900018958081F2CFCF93DF93CDB7DEB7A797C0
:1006A0000FB6F894DEBF0FBECDBF789484B58260DC
:1006B00084BD84B5816084BD85B5826085BD85B506
:1006C000816085BD80916E00816080936E00109284
:1006D00081008091810082608093810080918100FF
:1006E0008160809381008091800081608093800090
:1006F0008091B10084608093B1008091B0008160EE
:100700008093B000809191008260809391008091ED
:10071000910081608093910080919000816080932E
:1007200090008091A10082608093A1008091A1003F
:1007300081608093A1008091A00081608093A000DF
:10074000809121018260809321018091210181604B
:10075000809321018091200181608093200180910C
:100760007A00846080937A0080917A00826080931E
:100770007A0080917A00816080937A0080917A007B
:10078000806880937A001092C100E0913C02F09161
:100790003D0282E08083E0913802F09139021082BC
:1007A000E0913A02F0913B028FEC80831092440278
:1007B000E0914002F091410286E08083E0913E02A8
:1007C000F0913F02808180618083E0913E02F09150
:1007D0003F02808188608083E0913E02F0913F0279
:1007E000808180688083E0913E02F0913F028081A9
:1007F0008F7D808381E4F82E80917B00877F8093BA
:100800007B00F0927C0080917A00806480937A0073
:1008100080917A0086FDFCCF80917800609179000C
:100820001BA21AA21DA21CA21FA21EA2762F682F15
:10083000072E000C880B990B0E9443078E010F5F57
:100840001F4F22E044E00E94D2046C01009779F02F
:10085000FC0101900020E9F731978F01081B190B6B
:10086000B801CE0182960E947902811156C0CE0154
:1008700082960E9467021A8219821C821B821E8243
:100880001D8260E170E0CE0101960E947902811123
:100890004CC0CE0101960E946702CAA0DBA0C11421
:1008A000D10409F44DC00EA11FA101151105B1F02D
:1008B0008D819E81080F191FB801CE0101960E94FB
:1008C00079028823E9F129813A818D819E81B601DF
:1008D000820F931F0E9495091E830D834D815E81B7
:1008E00069817A818CE292E00E94330142E050E01B
:1008F00069E272E08CE292E00E94330189819A8180
:10090000009711F00E9422088AA19BA1009711F084
:100910000E9422080E9436026FCF1FA30EA3B601C9
:100920008AA19BA10E949509A6CF80E190E09E83B9
:100930008D8368E172E089819A810E949509ADCF2B
:10094000CE0101960E946702C9CFECE2F2E0138269
:10095000128288EE93E0A0E0B0E084839583A683C2
:10096000B7838AE092E09183808385EC90E095875D
:10097000848784EC90E09787868780EC90E0918B69
:10098000808B81EC90E0938B828B82EC90E0958B56
:10099000848B86EC90E0978B868B118E128E138E53
:1009A000148E0895EF920F931F93CF93DF93E80176
:1009B00034E047FD34E1042E000C550B57FF03C013
:1009C000519541955109E32E022F242FAE010E942B
:1009D000F004CE01DF91CF911F910F91EF90089518
:1009E0008F929F92AF92BF92CF92DF92EF92FF923F
:1009F0000F931F93CF93DF9300D000D000D0CDB7DB
:100A0000DEB76A01F22EB02E102FFBE3AF2EA01638
:100A100008F41BE31F5F012F27E0AE014F5F5F4F1C
:100A20000E946906BC018981982F9970913009F460
:100A30004EC09BE2E1FC04C09E2D9170E0FC49C0D9
:100A40005E2D5071E82FE87083FF55C084E091114E
:100A500001C083E0EF2DE81B8F1508F0E0E0D60120
:100A60008E2F20E25523C9F1992329F0D6019C93BA
:100A7000C60101966C0196012D5F3F4FE2FE33C027
:100A80008EE4D6018C9391E411969C931197129663
:100A90008C93D9018E2F90E281112AC0E20FF32F9F
:100AA000F11D10828EEF9FEF29960FB6F894DEBFEE
:100AB0000FBECDBFDF91CF911F910F91FF90EF90AF
:100AC000DF90CF90BF90AF909F908F9008959DE260
:100AD000B7CF90E2B5CF2D9381508111FCCFCE0ED0
:100AE000D11CE0E0C1CF8EE6D6018C9391E6CCCF4D
:100AF0009D938150D1CF482F447082FF3DC084E048
:100B0000911101C083E08F1510F4EF2DE81BD60181
:100B10008E2F20E2552309F1992329F0D6019C93C9
:100B2000C60101966C0196012D5F3F4FE2FE1BC08E
:100B300089E4D6018C938EE411968C93119786E408
:100B400012968C93D9018E2F90E2882309F4A6CFB8
:100B50009D938150FACF2D9381508111FCCFCE0E01
:100B6000D11CE0E0D9CF89E6D6018C938EE61196B0
:100B70008C93119786E6E4CF9B0177FF02C030E0AB
:100B800020E0A1E0B0E0911102C0B0E0A0E0F901E6
:100B90003196AE0FBF1F8B2C912CBB2009F461C086
:100BA0005401EFEFAE1ABE0AAA0DBB1DFA161B06C2
:100BB00019F014F04F2D4A1B511188C0E3FC59C0A5
:100BC0007601A42FB0E2A1114FC0C40ED11C99230D
:100BD00009F45BC040E0D6011196F60190836D01E7
:100BE000552309F448C0012F060F9A81582F5071E0
:100BF00084FF03C0913309F4015010160CF047C074
:100C0000093008F008E0EEE2FE2E5B01A01AB10800
:100C100085019194819491082F3F320729F4D601E0
:100C2000FC92F60131966F016217730794F1021777
:100C300013077CF5DB01A21BB30BAA24A394B12CF0
:100C4000AC0EBD1EAA0DBB1D11968C912150310911
:100C5000D601119628153905F4F0F60180836D014F
:100C6000DBCFB12CA12CA0CFF701B1937F01A15014
:100C7000AACF9111B0CFD601942F50E302C05D935B
:100C800091509111FCCFC40ED11C40E0ACCF01E0DB
:100C9000BACF80E3DBCF6217730731F4963388F461
:100CA000953311F4552369F0F6018083FD01842FFB
:100CB00090E2811108C0A40FB11D1C9290E080E069
:100CC000F3CE81E3F1CF91938150F3CF911183CF94
:100CD0008ACF283008F027E03327DA01990F311D39
:100CE00087FD916000966105710539F432602E5FD1
:100CF0003D9330E32A95E1F708959F3F30F0803827
:100D00007105610509F03C5F3C5F3D93913008F04F
:100D10008068911DDF93CF931F930F93FF92EF9203
:100D2000192F987F9695E92F96959695E90FFF27AD
:100D3000E25AFE4F99273327EE24FF24A701E7014B
:100D400005900894079428F4360FE71EF81E491FF3
:100D5000511D660F771F881F991F0694A1F70590F4
:100D6000079428F4E70EF81E491F561FC11D770F80
:100D7000881F991F661F0694A1F70590079428F411
:100D8000F80E491F561FC71FD11D880F991F661FD8
:100D9000771F0694A1F70590079420F4490F561F7A
:100DA000C71FD81F990F661F771F881F0694A9F7C2
:100DB00084911095177041F0D695C7955795479532
:100DC000F794E7941A95C1F7E4E0F1E06894159080
:100DD000159135916591959105907FE27395E11894
:100DE000F10A430B560BC90BD009C0F7E10CF11EF9
:100DF000431F561FC91FD01D7EF4703311F48A950E
:100E0000E6CFE894015030F0080F0AF400270217EB
:100E100008F4202F2395022F7A3328F079E37D936D
:100E20002A95E9F710C07D932A9589F6069497953F
:100E30006795379517951794E118F10A430B560BF0
:100E4000C90BD00998F023957E9173957A3308F0F9
:100E500070E37C932013B8F77E9170617D9330F03E
:100E6000839571E37D9370E32A95E1F71124EF9068
:100E7000FF900F911F91CF91DF91992787FD90955A
:100E80000895E89409C097FB3EF49095809570957D
:100E900061957F4F8F4F9F4F9923A9F0F92F96E9C6
:100EA000BB279395F695879577956795B795F1113B
:100EB000F8CFFAF4BB0F11F460FF1BC06F5F7F4FD8
:100EC0008F4F9F4F16C0882311F096E911C07723EA
:100ED00021F09EE8872F762F05C0662371F096E8F3
:100EE000862F70E060E02AF09A95660F771F881FC2
:100EF000DAF7880F9695879597F90895EE0FFF1FFB
:100F0000881F8BBF0790F691E02D19940F931F93C4
:100F1000CF93DF938230910510F482E090E0E0916E
:100F2000D402F091D50230E020E0B0E0A0E03097AC
:100F300099F42115310509F44AC0281B390B2430D6
:100F40003105D8F58A819B816115710589F1FB0115
:100F500093838283FE0111C04081518102811381FC
:100F600048175907E0F04817590799F4109761F0AE
:100F700012960C93129713961C933296CF01DF9121
:100F8000CF911F910F9108950093D4021093D50231
:100F9000F4CF2115310551F04217530738F0A9015C
:100FA000DB019A01BD01DF01F801C1CFEF01F9CFEB
:100FB0009093D5028093D402CDCFFE01E20FF31FB0
:100FC000819391932250310939832883D7CF20917F
:100FD000D2023091D302232B41F4209102023091AE
:100FE00003023093D3022093D20220910002309169
:100FF00001022115310541F42DB73EB7409104029D
:1010000050910502241B350BE091D202F091D302DE
:10101000E217F307A0F42E1B3F0B2817390778F0CF
:10102000AC014E5F5F4F2417350748F04E0F5F1F2E
:101030005093D3024093D202819391939FCFF0E0DB
:10104000E0E09CCFCF93DF930097E9F0FC0132976B
:1010500013821282A091D402B091D502ED0130E04A
:1010600020E01097A1F420813181820F931F2091FD
:10107000D2023091D3022817390709F061C0F093EA
:10108000D302E093D202DF91CF910895EA01CE1707
:10109000DF07E8F54A815B819E0141155105B1F7F3
:1010A000E901FB83EA8349915991C40FD51FEC17DD
:1010B000FD0761F4808191810296840F951FE901FB
:1010C00099838883828193819B838A83F0E0E0E027
:1010D00012968D919C9113970097B9F52D913C91A3
:1010E0001197CD010296820F931F2091D202309169
:1010F000D3022817390739F6309751F51092D502E7
:101100001092D402B093D302A093D202BCCFD38367
:10111000C28340815181840F951FC817D90761F49C
:101120004E5F5F4F88819981480F591F51834083DB
:101130008A819B81938382832115310509F0B0CF89
:10114000F093D502E093D4029ECFFD01DC01C0CF25
:1011500013821282D7CF4F925F926F927F928F92BB
:101160009F92AF92BF92CF92DF92EF92FF920F9336
:101170001F93CF93DF938C01009799F4CB01DF91FC
:10118000CF911F910F91FF90EF90DF90CF90BF9084
:10119000AF909F908F907F906F905F904F900C9446
:1011A0008607FC01E60FF71F9C0122503109E21768
:1011B000F30708F4AEC0D901CD91DC911197C617A1
:1011C000D70720F1C530D10578F0CE0104978617F6
:1011D000970750F0C61BD70B2297C193D1936D93FD
:1011E0007C93CF010E942208C801DF91CF911F910B
:1011F0000F91FF90EF90DF90CF90BF90AF909F90B6
:101200008F907F906F905F904F9008955B01AC1A24
:10121000BD0A4C018C0E9D1EA091D402B091D50246
:10122000512C412CF12CE12C109731F58091D202F8
:101230009091D3028815990509F05CC046165706AF
:1012400008F058C08091000290910102009741F48B
:101250008DB79EB74091040250910502841B950BF7
:10126000E817F90708F055C0F093D302E093D202D3
:10127000F90171836083B8CF8D919C91119712967B
:101280006C90129713967C901397A815B90559F591
:101290006C0142E0C40ED11CCA14DB0420F1AC0185
:1012A0004A195B09DA011296159780F062827382FF
:1012B00051834083D9016D937C93E114F10471F063
:1012C000D7011396FC93EE9312978ECF22968C0F34
:1012D0009D1FF90191838083F301EFCFF093D50235
:1012E000E093D40281CF4816590608F42C017D0101
:1012F000D3019ACFCB010E9486077C01009749F069
:10130000AE01B8010E948C09C8010E942208870121
:101310006BCF10E000E068CFFB01DC0102C0019060
:101320000D9241505040D8F70895FB01DC01019027
:0C1330000D920020E1F70895F894FFCF23
:10133C000000D602800000000000C90133016001EA
:10134C00160291016F01830156616C6F7220496E18
:0C135C0074656E7369646164000D0A0022
:00000001FF
