:100000000C944A010C947B010C947B010C947B01B1
:100010000C947B010C947B010C947B010C947B0170
:100020000C947B010C947B010C947B010C947B0160
:100030000C947B010C947B010C947B010C947B0150
:100040000C947B010C947B010C947B010C947B0140
:100050000C947B010C947B010C947B010C94B102F9
:100060000C947B010C9425030C94FB020C947B01F3
:100070000C947B010C947B010C947B010C947B0110
:100080000C947B010C947B010C947B010C947B0100
:100090000C947B010C947B010C947B010C947B01F0
:1000A0000C947B010C947B010C947B010C947B01E0
:1000B0000C947B010C947B010C947B010C947B01D0
:1000C0000C947B010C947B010C947B010C947B01C0
:1000D0000C947B010C947B010C947B010C947B01B0
:1000E0000C947B010C947D010C9401050C94C405C7
:1000F0000C9495050C9424050C94E4040C9442058E
:100100000C9474050C94C8050C9413020C946002B2
:100110000C9489050C94BD040C941A050C94F704F6
:100120000C94B6050C946F040C94B0050C94ED047B
:100130000C9438050C94DB040C94B7040C94AC05B7
:100140000C94E2050C940B050C9479050C94D104E5
:100150000C94BE050C94CD010C94C7040C9491052D
:100160000C94AA010C948D050C9498050C94B9017B
:100170000C949E050C94BA050C94DB010C942E058E
:100180000C94A8050C94A2050C944C0500000A0BD5
:1001900002090C0D0E080703040100000000000016
:1001A000000000000000000000000000000000004F
:1001B000000000000000000012111000000000000C
:1001C000000000000000000000000000000000002F
:1001D000000000002200250028002B002E00310026
:1001E000340002010000050108010B01000021009C
:1001F000240027002A002D003000330001010000F8
:10020000040107010A010505050507050808080896
:10021000020202020A0A080804040404010101019E
:100220000101010103030303030303030407070799
:100230000C0C0C0C0C0C0C0C02020202060606063E
:10024000060606060B0B0B0B0B0B0B0B010210200B
:1002500020080810204010204080020102010804FC
:100260000201010204081020408080402010080490
:1002700002018004020180402010080402010804E9
:10028000020101020408102040800102040810202D
:100290004080E20511241FBECFEFD1E2DEBFCDBF0B
:1002A00000E00CBF12E0A0E0B2E0E6E7FCE000E016
:1002B0000BBF02C007900D92A631B107D9F722E01B
:1002C000A6E1B2E001C01D92AE3BB207E1F711E03A
:1002D000CAE4D1E000E006C021970109802FFE01A9
:1002E0000E943106C934D10780E00807A9F70E94AF
:1002F0005B030C9439060C940000AF92BF92CF922E
:10030000DF92EF92FF920F931F93CF93DF936C01D5
:100310007B018B01040F151FEB015E01AE18BF08B6
:10032000C017D10759F06991D601ED91FC91019068
:10033000F081E02DC6011995892B79F7C501DF9170
:10034000CF911F910F91FF90EF90DF90CF90BF90D2
:10035000AF900895FC01538D448D252F30E0842FFC
:1003600090E0821B930B541710F0CF9608950197DD
:100370000895FC01918D828D981761F0A28DAE0FCA
:10038000BF2FB11D5D968C91928D9F5F9F73928F51
:1003900090E008958FEF9FEF0895FC01918D828D7D
:1003A000981731F0828DE80FF11D858D90E008954A
:1003B0008FEF9FEF0895FC01918D228D892F90E0A2
:1003C000805C9F4F821B91098F739927089586E166
:1003D00092E00E94DB0121E0892B09F420E0822FCA
:1003E0000895FC01A48DA80FB92FB11DA35ABF4FCA
:1003F0002C91848D90E001968F739927848FA68924
:10040000B7892C93A089B1898C91837080648C9377
:10041000938D848D981306C00288F389E02D808126
:100420008F7D80830895EF92FF920F931F93CF9358
:10043000DF93EC0181E0888F9B8D8C8D98131AC01F
:10044000E889F989808185FF15C09FB7F894EE8906
:10045000FF896083E889F989808183708064808363
:100460009FBF81E090E0DF91CF911F910F91FF90AE
:10047000EF900895F62E0B8D10E00F5F1F4F0F7356
:100480001127E02E8C8D8E110CC00FB607FCFACF11
:10049000E889F989808185FFF5CFCE010E94F101BD
:1004A000F1CFEB8DEC0FFD2FF11DE35AFF4FF082E2
:1004B0009FB7F8940B8FEA89FB8980818062CFCF48
:1004C000CF93DF93EC01888D8823B9F0AA89BB898B
:1004D000E889F9898C9185FD03C0808186FD0DC076
:1004E0000FB607FCF7CF8C9185FFF2CF808185FF97
:1004F000EDCFCE010E94F101E9CFDF91CF910895B8
:1005000080E090E0892B29F00E94E70181110E9490
:10051000000080E090E0892B49F080E090E0892B9A
:1005200029F00E94000081110E94000080E090E00C
:10053000892B49F080E090E0892B29F00E9400008F
:1005400081110E94000080E090E0892B49F080E05A
:1005500090E0892B29F00E94000081110C9400008A
:1005600008951F920F920FB60F9211242F933F936D
:100570008F939F93AF93BF938091BA029091BB02E8
:10058000A091BC02B091BD023091B90223E0230FCB
:100590002D3758F50196A11DB11D2093B902809306
:1005A000BA029093BB02A093BC02B093BD028091AB
:1005B000B5029091B602A091B702B091B80201962F
:1005C000A11DB11D8093B5029093B602A093B7020E
:1005D000B093B802BF91AF919F918F913F912F91AE
:1005E0000F900FBE0F901F90189526E8230F0296CC
:1005F000A11DB11DD2CF1F920F920FB60F921124E1
:100600000BB60F922F933F934F935F936F937F930C
:100610008F939F93AF93BF93EF93FF9386E192E005
:100620000E94F101FF91EF91BF91AF919F918F9146
:100630007F916F915F914F913F912F910F900BBEE2
:100640000F900FBE0F901F9018951F920F920FB62C
:100650000F9211240BB60F922F938F939F93EF93CA
:10066000FF93E0912602F09127028081E0912C0215
:10067000F0912D0282FD1DC0908180912F028F5F2D
:100680008F7320913002821741F0E0912F02F0E049
:10069000EA5EFD4F958F80932F02FF91EF919F911E
:1006A0008F912F910F900BBE0F900FBE0F901F9048
:1006B00018958081F2CFCF93DF93CDB7DEB7A197A6
:1006C0000FB6F894DEBF0FBECDBF789484B58260BC
:1006D00084BD84B5816084BD85B5826085BD85B5E6
:1006E000816085BD80916E00816080936E00109264
:1006F00081008091810082608093810080918100DF
:10070000816080938100809180008160809380006F
:100710008091B10084608093B1008091B0008160CD
:100720008093B000809191008260809391008091CD
:10073000910081608093910080919000816080930E
:1007400090008091A10082608093A1008091A1001F
:1007500081608093A1008091A00081608093A000BF
:10076000809121018260809321018091210181602B
:1007700080932101809120018160809320018091EC
:100780007A00846080937A0080917A0082608093FE
:100790007A0080917A00816080937A0080917A005B
:1007A000806880937A001092C100E0912602F09157
:1007B000270282E08083E0912202F09123021082DE
:1007C000E0912402F09125028FEC808310922E029A
:1007D000E0912A02F0912B0286E08083E0912802CA
:1007E000F0912902808180618083E0912802F0915C
:1007F0002902808188608083E0912802F09129029B
:10080000808180688083E0912802F09129028081B4
:100810008F7D808346E5242E42E0342E50E1A52EC4
:1008200052E0B52E66E9862E61E0962E01E010E0DA
:100830007AE0472E512C612C712C80917B00877FB0
:1008400080937B0081E480937C0080917A008064B7
:1008500080937A0080917A0086FDFCCF80917800A9
:10086000809179001092B4021092B302F1012491A8
:10087000F5018491882399F090E0880F991FFC017D
:10088000E451FE4FA591B491FC01EE52FE4F8591CB
:1008900094918FB7F8949C91292B2C938FBFF401DE
:1008A0008491EFEFE80FE23108F0F6C0F0E088271E
:1008B000E35AFB4F8F4F0C9431066F04B704BD040D
:1008C000C704D1044C05DB04E404ED04F70401057E
:1008D0000B051A0524054C052E053805420584B57F
:1008E000806884BDF1E0F7BDC090B302D090B4023F
:1008F0000D2C000CEE08FF08F7FE4EC16DE286E1FC
:1009000092E00E94130222273327A9012C193D09E6
:100910004E095F0919A2CE0181967C01CA01B90175
:10092000A30192010E940F06605DF70162937F01AF
:10093000211531054105510589F7E114F10461F0F4
:1009400001900020E9F73197AF014E195F09B70117
:1009500086E192E00E947D0142E050E062E172E0B7
:1009600086E192E00E947D010E94800266CF84B5FC
:10097000806284BD81E088BDB7CF809180008068AF
:10098000809380001093890000938800ADCF809100
:10099000800080628093800010938B0000938A0017
:1009A000A3CF8091800088608093800010938D0099
:1009B00000938C0099CF8091B00080688093B00044
:1009C00091E09093B30090CF8091B00080628093CB
:1009D000B000E1E0E093B40087CF809190008068A0
:1009E0008093900010939900009398007DCF8091A0
:1009F000900080628093900010939B0000939A0077
:100A000073CF8091900088608093900010939D0038
:100A100000939C0069CF8091A00080688093A00023
:100A20008091A0008F7B8093A0001093A900009379
:100A3000A8005ACF8091A00080628093A0001093FC
:100A4000AB000093AA0050CF8091A00088608093F3
:100A5000A0001093AD000093AC0046CF8091200120
:100A600080688093200110932901009328013CCFD6
:100A70008091200180628093200110932B010093CC
:100A80002A0132CF80912001886080932001109349
:100A90002D0100932C0128CFF4018491F1012491C0
:100AA000F5019491992309F41FCF882311F1815006
:100AB0008231F8F4E82FF0E08827EE59FA4F8F4F93
:100AC0000C94310691059505740589058D05790508
:100AD00098059E05A205A805AC05B005B605BA05A2
:100AE0007905BE05C405C805809180008F77809385
:100AF0008000E92FF0E0EE0FFF1FEE52FE4FA591B0
:100B0000B4918FB7F8949C91209529232C938FBF93
:100B1000EBCE809180008F7DEACF80918000877F2F
:100B2000E6CF84B58F7784BDE4CF84B58F7DFBCFCE
:100B30008091B0008F778093B000DBCF8091B000C0
:100B40008F7DF9CF809190008F7780939000D1CFE7
:100B5000809190008F7DF9CF80919000877FF5CFB5
:100B60008091A0008F778093A000C3CF8091A000D8
:100B70008F7DF9CF8091A000877FF5CF80912001F4
:100B80008F7780932001B5CF809120018F7DF9CFA1
:100B900080912001877FF5CFA701960119A2CE0190
:100BA00081967C01CA01B901A30192010E940F063E
:100BB000605DF70162937F01211531054105510503
:100BC00089F7BBCEE6E1F2E01382128288EE93E071
:100BD000A0E0B0E084839583A683B78384E092E0AD
:100BE0009183808385EC90E09587848784EC90E006
:100BF0009787868780EC90E0918B808B81EC90E0EA
:100C0000938B828B82EC90E0958B848B86EC90E0CA
:100C1000978B868B118E128E138E148E0895A1E2FF
:100C20001A2EAA1BBB1BFD010DC0AA1FBB1FEE1F66
:100C3000FF1FA217B307E407F50720F0A21BB30BB1
:100C4000E40BF50B661F771F881F991F1A9469F72D
:100C500060957095809590959B01AC01BD01CF0189
:100C60000895EE0FFF1F881F8BBF0790F691E02DB0
:060C70001994F894FFCF77
:100C76000000000013027D01AA016002DB01B90138
:060C8600CD010D0A000083
:00000001FF
