:100000000C9421010C9452010C9452010C94520155
:100010000C9452010C9452010C9452010C94520114
:100020000C9452010C9452010C9452010C94520104
:100030000C9452010C9452010C9452010C945201F4
:100040000C9452010C9452010C9452010C945201E4
:100050000C9452010C9452010C9452010C94F5032F
:100060000C9452010C94BF030C9495030C94520110
:100070000C9452010C9452010C9452010C945201B4
:100080000C9452010C9452010C9452010C945201A4
:100090000C9452010C9452010C9452010C94520194
:1000A0000C9452010C9452010C9452010C94520184
:1000B0000C9452010C9452010C9452010C94520174
:1000C0000C9452010C9452010C9452010C94520164
:1000D0000C9452010C9452010C9452010C94520154
:1000E0000C9452010C94EC010C943A060C947F028F
:1000F0000C9489010C94FA010C9454010C9498010D
:100100000C943F040C9432024E414E494E495459CE
:10011000494E46CDCCCC3D0AD7233C17B7D13877D2
:10012000CC2B329595E6241FB14F0A0000204100E8
:1001300000C84200401C4620BCBE4CCA1B0E5AAE32
:10014000C59D7400407A10F35A00A0724E18090041
:1001500010A5D4E80000E87648170000E40B54022C
:100160000000CA9A3B000000E1F505000080969867
:1001700000000040420F000000A0860100000010B7
:100180002700000000E803000000006400000000F9
:10019000000A00000000000100000000002C76D8DA
:1001A00088DC674F0823DFC1DFAE59E1B1B796E5C0
:1001B000E3E453C63AE651997696E8E6C28426EB24
:1001C000898C9B62ED407C6FFCEFBC9C9F40F2BA37
:1001D000A56FA5F490055A2AF75C936B6CF9676DCF
:1001E000C11BFCE0E40D47FEF520E6B500D0ED9024
:1001F0002E0300943577050080841E080000204EF1
:100200000A000000C80C333333330F986E12831189
:1002100041EF8D2114893BE65516CFFEE6DB18D160
:10022000844B381BF77C1D901DA4BBE42420328432
:10023000725E228100C9F124ECA1E53D27003F0454
:100240003A0611241FBECFEFD1E2DEBFCDBF00E0E2
:100250000CBF23E0AAE4B2E001C01D92AB30B207AC
:10026000E1F712E0A0E0B2E0EEE2FCE100E00BBF5B
:1002700002C007900D92AA34B107D9F711E0C0E28D
:10028000D1E000E006C021970109802FFE010E9405
:10029000E70BCF31D10780E00807A9F70E94770468
:1002A0000C94050E0C940000AF92BF92CF92DF9297
:1002B000EF92FF920F931F93CF93DF936C017B011B
:1002C0008B01040F151FEB015E01AE18BF08C017AC
:1002D000D10759F06991D601ED91FC910190F0811F
:1002E000E02DC6011995892B79F7C501DF91CF91D2
:1002F0001F910F91FF90EF90DF90CF90BF90AF9044
:10030000089542E050E068E172E08CE592E00C94E0
:100310005401FC01538D448D252F30E0842F90E053
:10032000821B930B541710F0CF96089501970895F0
:10033000FC01918D828D981761F0A28DAE0FBF2FB9
:10034000B11D5D968C91928D9F5F9F73928F90E00F
:1003500008958FEF9FEF08952FB7F894809158027A
:1003600090915902A0915A02B0915B022FBF8093E5
:10037000640290936502A0936602B09367028CE5D5
:1003800092E00E94980197FF26C02FB7F8948091C1
:10039000580290915902A0915A02B0915B022FBF6E
:1003A000409164025091650260916602709167020B
:1003B000841B950BA60BB70B409160025091610214
:1003C000609162027091630284179507A607B707D0
:1003D000B0F28FEF9FEF0895FC01918D828D9817F9
:1003E00031F0828DE80FF11D858D90E008958FEF3B
:1003F0009FEF0895FC01918D228D892F90E0805C04
:100400009F4F821B91098F73992708958CE592E085
:100410000E94FA0121E0892B09F420E0822F08953F
:10042000FC01A48DA80FB92FB11DA35ABF4F2C9169
:10043000848D90E001968F739927848FA689B78960
:100440002C93A089B1898C91837080648C93938D57
:10045000848D981306C00288F389E02D80818F7DFA
:1004600080830895EF92FF920F931F93CF93DF93B2
:10047000EC0181E0888F9B8D8C8D98131AC0E889E0
:10048000F989808185FF15C09FB7F894EE89FF89AF
:100490006083E889F98980818370806480839FBF4D
:1004A00081E090E0DF91CF911F910F91FF90EF904D
:1004B0000895F62E0B8D10E00F5F1F4F0F7311275D
:1004C000E02E8C8D8E110CC00FB607FCFACFE88998
:1004D000F989808185FFF5CFCE010E941002F1CF0E
:1004E000EB8DEC0FFD2FF11DE35AFF4FF0829FB70C
:1004F000F8940B8FEA89FB8980818062CFCFCF93FC
:10050000DF93EC01888D8823B9F0AA89BB89E8893B
:10051000F9898C9185FD03C0808186FD0DC00FB6E1
:1005200007FCF7CF8C9185FFF2CF808185FFEDCF5F
:10053000CE010E941002E9CFDF91CF91089580E0B3
:1005400090E0892B29F00E94060281110E94000090
:1005500080E090E0892B49F080E090E0892B29F041
:100560000E94000081110E94000080E090E0892B31
:1005700049F080E090E0892B29F00E940000811171
:100580000E94000080E090E0892B49F080E090E03C
:10059000892B29F00E94000081110C94000008951D
:1005A0003FB7F89480914B0290914C02A0914D027C
:1005B000B0914E0226B5A89B05C02F3F19F00196B9
:1005C000A11DB11D3FBFBA2FA92F982F8827BC01AD
:1005D000CD01620F711D811D911D42E0660F771FD5
:1005E000881F991F4A95D1F708950F931F93CF93B2
:1005F000DF93EC0188819981009759F02A813B8132
:100600002617370730F081E0DF91CF911F910F91CE
:1006100008958B016F5F7F4F0E94140D009759F072
:10062000998388831B830A832C813D81232B59F76F
:10063000FC011082E8CF80E0E7CFEF92FF920F93AA
:100640001F93CF93DF936115710541F480E0DF9133
:10065000CF911F910F91FF90EF9008954115510593
:10066000B1F07B01EC010C811D81040F151FB80155
:100670000E94F502882351F3288139818C819D8164
:10068000B701820F931F0E94FE0D1D830C8381E032
:10069000DECFCF93DF93EC0188819981009711F031
:1006A0000E948B0C198218821D821C821B821A8266
:1006B000DF91CF910895EF92FF920F931F93CF9305
:1006C000DF93EC017B018A01BA010E94F5028111DE
:1006D0000BC0CE010E944903CE01DF91CF911F9143
:1006E0000F91FF90EF9008951D830C83B7018881CF
:1006F00099810E94FE0DF0CFFC01118210821382BD
:10070000128215821482FB0101900020E9F73197D3
:10071000AF01461B570B0C945B03FC018081918158
:10072000009711F00C948B0C08951F920F920FB646
:100730000F9211240BB60F922F933F934F935F9319
:100740006F937F938F939F93AF93BF93EF93FF9399
:100750008CE592E00E941002FF91EF91BF91AF9162
:100760009F918F917F916F915F914F913F912F91C9
:100770000F900BBE0F900FBE0F901F9018951F92F9
:100780000F920FB60F9211240BB60F922F938F93E7
:100790009F93EF93FF93E0916C02F0916D02808143
:1007A000E0917202F091730282FD1DC090818091F0
:1007B00075028F5F8F7320917602821741F0E0916E
:1007C0007502F0E0E45AFD4F958F80937502FF911A
:1007D000EF919F918F912F910F900BBE0F900FBEB5
:1007E0000F901F9018958081F2CF1F920F920FB635
:1007F0000F9211242F933F938F939F93AF93BF93A7
:100800008091580290915902A0915A02B0915B02D6
:1008100030914A0223E0230F2D3758F50196A11D90
:10082000B11D20934A028093580290935902A093DD
:100830005A02B0935B0280914B0290914C02A091BE
:100840004D02B0914E020196A11DB11D80934B0245
:1008500090934C02A0934D02B0934E02BF91AF9182
:100860009F918F913F912F910F900FBE0F901F90EE
:10087000189526E8230F0296A11DB11DD2CFECE5F5
:10088000F2E01382128288EE93E0A0E0B0E084836D
:100890009583A683B7838AE092E09183808385EC79
:1008A00090E09587848784EC90E09787868780EC3A
:1008B00090E0918B808B81EC90E0938B828B82EC2B
:1008C00090E0958B848B86EC90E0978B868B118ED5
:1008D000128E138E148E6BE172E089EF92E00E940B
:1008E0007C0368E272E08FEF92E00C947C03CF937C
:1008F000DF93CDB7DEB7A7970FB6F894DEBF0FBE74
:10090000CDBF789484B5826084BD84B5816084BD98
:1009100085B5826085BD85B5816085BD80916E009D
:10092000816080936E0010928100809181008260CE
:10093000809381008091810081608093810080910B
:1009400080008160809380008091B10084608093FA
:10095000B1008091B00081608093B00080919100DF
:1009600082608093910080919100816080939100DA
:10097000809190008160809390008091A1008260BE
:100980008093A1008091A10081608093A10080915B
:10099000A00081608093A0008091210182608093FB
:1009A00021018091210181608093210180912001AA
:1009B00081608093200180917A00846080937A0026
:1009C00080917A00826080937A0080917A008160C1
:1009D00080937A0080917A00806880937A001092E8
:1009E000C100E0916C02F0916D0282E08083E091A1
:1009F0006802F09169021082E0916A02F0916B0244
:100A00008FEC808310927402E0917002F091710279
:100A100086E08083E0916E02F0916F0280818061B8
:100A20008083E0916E02F0916F0280818860808304
:100A3000E0916E02F0916F02808180688083E09186
:100A40006E02F0916F0280818F7D808336E0F32EFD
:100A500000915702043009F085C020915302309173
:100A60005402409155025091560260914F0270918C
:100A7000500280915102909152020E94750B1BA26C
:100A80001AA21DA21CA21FA21EA28E010F5F1F4F41
:100A900022E044E00E944206009709F45EC0FC0197
:100AA00001900020E9F73197AF01481B590BBC01B9
:100AB000CE0182960E945B0362E372E0CE01019652
:100AC0000E947C034EA15FA16AA17BA1CE01019689
:100AD0000E941D03811104C0CE0101960E944903AA
:100AE0004D815E8169817A818CE592E00E9454019A
:100AF0000E948101CE0101960E948D03CE01829653
:100B00000E948D030E948101109257020E94D00220
:100B10002B013C0188EC882E912CA12CB12C0E9439
:100B2000D0026419750986099709683E73408105EA
:100B30009105A8F321E0821A9108A108B10888EE76
:100B4000480E83E0581E611C711C81149104A1049D
:100B5000B10429F70E949F027BCFCE0182960E94AA
:100B60004903AACF00FD3DC0069510E064E472E0A1
:100B7000CE0101960E947C03F09EF001F19EF00DE3
:100B80001124E750FD4F4481558160817181CE0170
:100B900001960E941D03811104C0CE0101960E949E
:100BA000490342E050E061E472E0CE0101960E9408
:100BB0001D03811104C0CE0101960E9449034D819D
:100BC0005E8169817A818CE592E00E945401CE01B8
:100BD00001960E948D03809157028F5F8093570288
:100BE00095CF8CE592E00E94FA01181619060CF0D8
:100BF0008DCF1A8219821C821B821E821D8250E0B8
:100C000040E06AE172E0CE0101960E945B030E941F
:100C1000AC0197FD0CC08AA31BA241E050E0BE01CD
:100C20006E5D7F4FCE0101960E941D03F0CF0695A9
:100C300010E089819A810097C9F00E946006000F38
:100C4000111F000F111FF801E15BFD4F60837183DD
:100C500082839383CE0101960E948D038091570277
:100C60008F5F809357020E94810150CF60E070E057
:100C7000CB01E5CF8FEF92E00E948D0389EF92E0E8
:100C80000C948D03EF920F931F93CF93DF93E801A2
:100C900034E047FD34E1042E000C550B57FF03C030
:100CA000519541955109E32E022F242FAE010E9448
:100CB0006406CE01DF91CF911F910F91EF900895BF
:100CC000662777270C94DD078F929F92AF92BF9291
:100CD000CF92DF92EF92FF920F931F93CF93DF9308
:100CE00000D000D000D0CDB7DEB76A01F22EB02E12
:100CF000102FFBE3AF2EA01608F41BE31F5F012F9C
:100D000027E0AE014F5F5F4F0E943B09BC01898124
:100D1000982F9970913009F44EC09BE2E1FC04C019
:100D20009E2D9170E0FC49C05E2D5071E82FE87057
:100D300083FF55C084E0911101C083E0EF2DE81BD3
:100D40008F1508F0E0E0D6018E2F20E25523C9F17F
:100D5000992329F0D6019C93C60101966C01960156
:100D60002D5F3F4FE2FE33C08EE4D6018C9391E4B9
:100D700011969C93119712968C93D9018E2F90E225
:100D800081112AC0E20FF32FF11D10828EEF9FEF29
:100D900029960FB6F894DEBF0FBECDBFDF91CF917D
:100DA0001F910F91FF90EF90DF90CF90BF90AF9089
:100DB0009F908F9008959DE2B7CF90E2B5CF2D938D
:100DC00081508111FCCFCE0ED11CE0E0C1CF8EE668
:100DD000D6018C9391E6CCCF9D938150D1CF482FF3
:100DE000447082FF3DC084E0911101C083E08F1503
:100DF00010F4EF2DE81BD6018E2F20E2552309F1C8
:100E0000992329F0D6019C93C60101966C019601A5
:100E10002D5F3F4FE2FE1BC089E4D6018C938EE428
:100E200011968C93119786E412968C93D9018E2F8C
:100E300090E2882309F4A6CF9D938150FACF2D9399
:100E400081508111FCCFCE0ED11CE0E0D9CF89E6D4
:100E5000D6018C938EE611968C93119786E6E4CF9B
:100E60009B0177FF02C030E020E0A1E0B0E09111EB
:100E700002C0B0E0A0E0F9013196AE0FBF1F8B2C8D
:100E8000912CBB2009F461C05401EFEFAE1ABE0AE9
:100E9000AA0DBB1DFA161B0619F014F04F2D4A1BA4
:100EA000511188C0E3FC59C07601A42FB0E2A11112
:100EB0004FC0C40ED11C992309F45BC040E0D60199
:100EC0001196F60190836D01552309F448C0012F56
:100ED000060F9A81582F507184FF03C0913309F493
:100EE000015010160CF047C0093008F008E0EEE29F
:100EF000FE2E5B01A01AB10885019194819491089E
:100F00002F3F320729F4D601FC92F60131966F018A
:100F10006217730794F1021713077CF5DB01A21B1C
:100F2000B30BAA24A394B12CAC0EBD1EAA0DBB1DFD
:100F300011968C9121503109D60111962815390549
:100F4000F4F0F60180836D01DBCFB12CA12CA0CF92
:100F5000F701B1937F01A150AACF9111B0CFD60173
:100F6000942F50E302C05D9391509111FCCFC40EB9
:100F7000D11C40E0ACCF01E0BACF80E3DBCF6217F9
:100F8000730731F4963388F4953311F4552369F0DF
:100F9000F6018083FD01842F90E2811108C0A40F27
:100FA000B11D1C9290E080E0F3CE81E3F1CF9193EC
:100FB0008150F3CF911183CF8ACF8F929F92AF92BE
:100FC000BF92CF92DF92EF92FF920F931F93CF9336
:100FD000DF935C017B016115710519F0DB018D93D5
:100FE0009C9385010F5F1F4FF501D0818D2F90E0FD
:100FF0000E94130A6C01892BB9F5DD32B9F50F5F38
:101000001F4FD5011196DC91C1E05801F1E0AF1AF4
:10101000B10843E050E060E171E0C5010E941C0AA4
:10102000892B69F5680182E0C80ED11C45E050E0CB
:101030006BE071E0C6010E941C0A892B21F4680153
:1010400097E0C90ED11CE114F10419F0D701CD923B
:10105000DC9260E070E080E89FEFC111FFC060E0CB
:1010600070E080E89FE7FAC05801BBCFDB3229F47B
:1010700085010E5F1F4FF501D181C0E0C6CF43E06F
:1010800050E068E071E0C5010E941C0A892BE9F07C
:10109000F80110E000E020E030E0A9015F01B0EDD0
:1010A0008B2E8D0E89E08815C8F19C2E689491F8DE
:1010B0008C2F8870C2FF16C0811102C00F5F1F4FB6
:1010C0003196D501DC91C92DE9CFE114F10429F065
:1010D0000E5F1F4FF7011183008360E070E080EC2A
:1010E0009FE7BCC0882311F001501109A5E0B0E0D2
:1010F0000E945B0B9B01AC01220F331F441F551F45
:10110000280D311D411D511D283999E9390749071D
:1011100099E15907A8F2C6609C2ED2CFAEEF8A1291
:1011200006C0C3FD3CC09C2E689493F8C9CFDF7DF8
:10113000D534A9F580818D3239F4C061DF01129672
:10114000818162E070E006C0DF018B32C1F311964D
:1011500061E070E080535D01A61AB70A8A30F8F4A6
:10116000E0E8CE16ECE0DE065CF4B601660F771F11
:10117000660F771FC60ED71ECC0CDD1CC80ED11C07
:101180005D01FFEFAF1ABF0A8C9180538A30A8F13E
:10119000C4FF03C0D194C194D1080C0D1D1DC1FF23
:1011A00009C0E114F10431F081E0A81AB108D701B7
:1011B000AD92BC92CA01B9010E94390AC370C33012
:1011C00009F490584B015C0120E030E0A9010E9435
:1011D000340A882309F440C0CFE3D1E017FF05C0EB
:1011E000119501951109C7E2D1E06E01B8E1CB1A62
:1011F000D10880E2E82EF12C0FC0D501B1CFFE015D
:1012000025913591459154910E191F09C501B401DD
:101210000E949A0A4B015C01D501C4010E151F05FD
:1012200074F72497F594E794CC16DD06A9F78A2F76
:10123000880F8B2F881F8F3F49F020E030E0A901F5
:10124000C501B4010E94340A811106C082E290E017
:101250009093060380930503C501B401DF91CF91FC
:101260001F910F91FF90EF90DF90CF90BF90AF90C4
:101270009F908F900895283008F027E03327DA01F7
:10128000990F311D87FD916000966105710539F454
:1012900032602E5F3D9330E32A95E1F708959F3F3A
:1012A00030F080387105610509F03C5F3C5F3D938B
:1012B000913008F08068911DDF93CF931F930F93B7
:1012C000FF92EF92192F987F9695E92F9695969514
:1012D000E90FFF27E356FE4F99273327EE24FF241B
:1012E000A701E70105900894079428F4360FE71E3C
:1012F000F81E491F511D660F771F881F991F0694FE
:10130000A1F70590079428F4E70EF81E491F561F11
:10131000C11D770F881F991F661F0694A1F70590BE
:10132000079428F4F80E491F561FC71FD11D880FB8
:10133000991F661F771F0694A1F70590079420F464
:10134000490F561FC71FD81F990F661F771F881F89
:101350000694A9F784911095177041F0D695C7951A
:1013600057954795F794E7941A95C1F7E3E4F1E0B0
:1013700068941590159135916591959105907FE24E
:101380007395E118F10A430B560BC90BD009C0F74E
:10139000E10CF11E431F561FC91FD01D7EF4703390
:1013A00011F48A95E6CFE894015030F0080F0AF462
:1013B0000027021708F4202F2395022F7A3328F0F4
:1013C00079E37D932A95E9F710C07D932A9589F6F4
:1013D000069497956795379517951794E118F10A34
:1013E000430B560BC90BD00998F023957E9173954A
:1013F0007A3308F070E37C932013B8F77E91706124
:101400007D9330F0839571E37D9370E32A95E1F746
:101410001124EF90FF900F911F91CF91DF919927A9
:1014200087FD9095089591110C94070B803219F067
:1014300089508550C8F70895FB01DC0141505040A8
:1014400088F08D9181341CF08B350CF4805E6591B1
:1014500061341CF06B350CF4605E861B611171F316
:10146000990B0895881BFCCF0E94760A08F481E04E
:101470000895E89409C097FB3EF490958095709587
:1014800061957F4F8F4F9F4F9923A9F0F92F96E9D0
:10149000BB279395F695879577956795B795F11145
:1014A000F8CFFAF4BB0F11F460FF1BC06F5F7F4FE2
:1014B0008F4F9F4F16C0882311F096E911C07723F4
:1014C00021F09EE8872F762F05C0662371F096E8FD
:1014D000862F70E060E02AF09A95660F771F881FCC
:1014E000DAF7880F9695879597F90895990F000870
:1014F000550FAA0BE0E8FEEF16161706E807F907E6
:10150000C0F012161306E407F50798F0621B730B80
:10151000840B950B39F40A2661F0232B242B252B01
:1015200021F408950A2609F4A140A6958FEF811DA4
:10153000811D08950E94AD0A0C94210B0E94130B8B
:1015400038F00E941A0B20F0952311F00C940A0B2E
:101550000C94100B11240C94550B0E94320B70F359
:10156000959FC1F3950F50E0551F629FF001729F48
:10157000BB27F00DB11D639FAA27F00DB11DAA1F57
:10158000649F6627B00DA11D661F829F2227B00DA4
:10159000A11D621F739FB00DA11D621F839FA00D2F
:1015A000611D221F749F3327A00D611D231F849F7F
:1015B000600D211D822F762F6A2F11249F575040D6
:1015C0009AF0F1F088234AF0EE0FFF1FBB1F661F51
:1015D000771F881F91505040A9F79E3F510580F01A
:1015E0000C940A0B0C94550B5F3FE4F3983ED4F334
:1015F000869577956795B795F795E7959F5FC1F7BE
:10160000FE2B880F911D9695879597F90895992738
:101610008827089597F99F6780E870E060E0089553
:101620009FEF80EC089500240A94161617061806FA
:101630000906089500240A941216130614060506D6
:101640000895092E0394000C11F4882352F0BB0F67
:1016500040F4BF2B11F460FF04C06F5F7F4F8F4FCA
:101660009F4F089557FD9058440F551F59F05F3F05
:1016700071F04795880F97FB991F61F09F3F79F0B4
:1016800087950895121613061406551FF2CF469536
:10169000F1DF08C0161617061806991FF1CF8695B8
:1016A0007105610508940895E894BB27662777279C
:1016B000CB0197F908950E94660BA59F900DB49FEA
:1016C000900DA49F800D911D11240895A29FB0013B
:1016D000B39FC001A39F700D811D1124911DB29F66
:1016E000700D811D1124911D08950E94890B0C9489
:1016F000210B0E941A0B58F00E94130B40F029F4A2
:101700005F3F29F00C940A0B51110C94550B0C946B
:10171000100B0E94320B68F39923B1F3552391F318
:10172000951B550BBB27AA2762177307840738F050
:101730009F5F5F4F220F331F441FAA1FA9F335D0AD
:101740000E2E3AF0E0E832D091505040E695001C61
:10175000CAF72BD0FE2F29D0660F771F881FBB1F1B
:10176000261737074807AB07B0E809F0BB0B802DF9
:10177000BF01FF2793585F4F3AF09E3F510578F025
:101780000C940A0B0C94550B5F3FE4F3983ED4F392
:10179000869577956795B795F7959F5FC9F7880FF9
:1017A000911D9695879597F90895E1E0660F771F4B
:1017B000881FBB1F621773078407BA0720F0621BDC
:1017C000730B840BBA0BEE1F88F7E0950895EE0FAC
:1017D000FF1F881F8BBF0790F691E02D19940F9380
:1017E0001F93CF93DF938230910510F482E090E055
:1017F000E0910903F0910A0330E020E0B0E0A0E0BE
:10180000309799F42115310509F44AC0281B390B8A
:1018100024303105D8F58A819B816115710589F1E4
:10182000FB0193838283FE0111C0408151810281BB
:10183000138148175907E0F04817590799F4109792
:1018400061F012960C93129713961C933296CF0167
:10185000DF91CF911F910F91089500930903109389
:101860000A03F4CF2115310551F04217530738F020
:10187000A901DB019A01BD01DF01F801C1CFEF0130
:10188000F9CF90930A0380930903CDCFFE01E20FB5
:10189000F31F819391932250310939832883D7CF45
:1018A0002091070330910803232B41F42091020279
:1018B0003091030230930803209307032091000224
:1018C000309101022115310541F42DB73EB7409109
:1018D000040250910502241B350BE0910703F0919F
:1018E0000803E217F307A0F42E1B3F0B2817390754
:1018F00078F0AC014E5F5F4F2417350748F04E0F6C
:101900005F1F5093080340930703819391939FCFE8
:10191000F0E0E0E09CCFCF93DF930097E9F0FC018B
:10192000329713821282A0910903B0910A03ED014C
:1019300030E020E01097A1F420813181820F931FC5
:1019400020910703309108032817390709F061C077
:10195000F0930803E0930703DF91CF910895EA0124
:10196000CE17DF07E8F54A815B819E0141155105DD
:10197000B1F7E901FB83EA8349915991C40FD51F5F
:10198000EC17FD0761F4808191810296840F951F09
:10199000E90199838883828193819B838A83F0E024
:1019A000E0E012968D919C9113970097B9F52D91D7
:1019B0003C911197CD010296820F931F209107034E
:1019C000309108032817390739F6309751F51092EE
:1019D0000A0310920903B0930803A0930703BCCF36
:1019E000D383C28340815181840F951FC817D907C3
:1019F00061F44E5F5F4F88819981480F591F518371
:101A000040838A819B81938382832115310509F06C
:101A1000B0CFF0930A03E09309039ECFFD01DC01F0
:101A2000C0CF13821282D7CF4F925F926F927F9274
:101A30008F929F92AF92BF92CF92DF92EF92FF92DE
:101A40000F931F93CF93DF938C01009799F4CB01F1
:101A5000DF91CF911F910F91FF90EF90DF90CF908A
:101A6000BF90AF909F908F907F906F905F904F90BE
:101A70000C94EF0BFC01E60FF71F9C01225031097B
:101A8000E217F30708F4AEC0D901CD91DC911197AC
:101A9000C617D70720F1C530D10578F0CE010497DD
:101AA0008617970750F0C61BD70B2297C193D19387
:101AB0006D937C93CF010E948B0CC801DF91CF9175
:101AC0001F910F91FF90EF90DF90CF90BF90AF905C
:101AD0009F908F907F906F905F904F9008955B01E3
:101AE000AC1ABD0A4C018C0E9D1EA0910903B09149
:101AF0000A03512C412CF12CE12C109731F58091E7
:101B00000703909108038815990509F05CC04616F3
:101B1000570608F058C0809100029091010200978A
:101B200041F48DB79EB74091040250910502841B89
:101B3000950BE817F90708F055C0F0930803E093F8
:101B40000703F90171836083B8CF8D919C91119740
:101B500012966C90129713967C901397A815B9055E
:101B600059F56C0142E0C40ED11CCA14DB0420F10B
:101B7000AC014A195B09DA011296159780F062826E
:101B8000738251834083D9016D937C93E114F104F6
:101B900071F0D7011396FC93EE9312978ECF229695
:101BA0008C0F9D1FF90191838083F301EFCFF09398
:101BB0000A03E093090381CF4816590608F42C0163
:101BC0007D01D3019ACFCB010E94EF0B7C010097DE
:101BD00049F0AE01B8010E94F50DC8010E948B0CBE
:101BE00087016BCF10E000E068CFFB01DC0102C091
:101BF00001900D9241505040D8F70895FB01DC014F
:101C000001900D920020E1F7089511E0C0E2D1E0CB
:101C100000E006C0802FFE010E94E70B2196011D07
:0E1C2000C132D10780E00807A9F7F894FFCF82
:101C2E0000000B0380000000000032025401890105
:101C3E007F02FA019801EC010D0A006C61206469C3
:101C4E007374616E63696100656C207469656D7093
:101C5E006F00456C20726573756C7461646F2065DE
:0A1C6E00733A200044616D65200008
:00000001FF
